{
  "address": "0x7E5E623edFc2De910054bC5cBC14d1eF69BA6A20",
  "abi": [
    {
      "inputs": [],
      "stateMutability": "nonpayable",
      "type": "constructor"
    },
    {
      "anonymous": false,
      "inputs": [
        {
          "indexed": false,
          "internalType": "string",
          "name": "onePUser",
          "type": "string"
        },
        {
          "indexed": false,
          "internalType": "address",
          "name": "account",
          "type": "address"
        }
      ],
      "name": "AccountAttached",
      "type": "event"
    },
    {
      "anonymous": false,
      "inputs": [
        {
          "indexed": false,
          "internalType": "address",
          "name": "previousAdmin",
          "type": "address"
        },
        {
          "indexed": false,
          "internalType": "address",
          "name": "newAdmin",
          "type": "address"
        }
      ],
      "name": "AdminChanged",
      "type": "event"
    },
    {
      "anonymous": false,
      "inputs": [
        {
          "indexed": true,
          "internalType": "address",
          "name": "owner",
          "type": "address"
        },
        {
          "indexed": true,
          "internalType": "address",
          "name": "spender",
          "type": "address"
        },
        {
          "indexed": false,
          "internalType": "uint256",
          "name": "value",
          "type": "uint256"
        }
      ],
      "name": "Approval",
      "type": "event"
    },
    {
      "anonymous": false,
      "inputs": [
        {
          "indexed": false,
          "internalType": "uint64",
          "name": "id",
          "type": "uint64"
        },
        {
          "indexed": false,
          "internalType": "string",
          "name": "onePUser",
          "type": "string"
        },
        {
          "indexed": false,
          "internalType": "address",
          "name": "hotWallet",
          "type": "address"
        },
        {
          "indexed": false,
          "internalType": "uint64",
          "name": "difficulty",
          "type": "uint64"
        }
      ],
      "name": "AttemptCreated",
      "type": "event"
    },
    {
      "anonymous": false,
      "inputs": [
        {
          "indexed": false,
          "internalType": "uint64",
          "name": "id",
          "type": "uint64"
        },
        {
          "indexed": false,
          "internalType": "enum OnePProtocol.Status",
          "name": "newStatus",
          "type": "uint8"
        }
      ],
      "name": "AttemptUpdated",
      "type": "event"
    },
    {
      "anonymous": false,
      "inputs": [
        {
          "indexed": true,
          "internalType": "address",
          "name": "beacon",
          "type": "address"
        }
      ],
      "name": "BeaconUpgraded",
      "type": "event"
    },
    {
      "anonymous": false,
      "inputs": [],
      "name": "EIP712DomainChanged",
      "type": "event"
    },
    {
      "anonymous": false,
      "inputs": [
        {
          "indexed": false,
          "internalType": "uint8",
          "name": "version",
          "type": "uint8"
        }
      ],
      "name": "Initialized",
      "type": "event"
    },
    {
      "anonymous": false,
      "inputs": [
        {
          "indexed": true,
          "internalType": "address",
          "name": "previousOwner",
          "type": "address"
        },
        {
          "indexed": true,
          "internalType": "address",
          "name": "newOwner",
          "type": "address"
        }
      ],
      "name": "OwnershipTransferred",
      "type": "event"
    },
    {
      "anonymous": false,
      "inputs": [
        {
          "indexed": false,
          "internalType": "address",
          "name": "account",
          "type": "address"
        }
      ],
      "name": "Paused",
      "type": "event"
    },
    {
      "anonymous": false,
      "inputs": [
        {
          "indexed": true,
          "internalType": "address",
          "name": "from",
          "type": "address"
        },
        {
          "indexed": true,
          "internalType": "address",
          "name": "to",
          "type": "address"
        },
        {
          "indexed": false,
          "internalType": "uint256",
          "name": "value",
          "type": "uint256"
        }
      ],
      "name": "Transfer",
      "type": "event"
    },
    {
      "anonymous": false,
      "inputs": [
        {
          "indexed": false,
          "internalType": "address",
          "name": "account",
          "type": "address"
        }
      ],
      "name": "Unpaused",
      "type": "event"
    },
    {
      "anonymous": false,
      "inputs": [
        {
          "indexed": true,
          "internalType": "address",
          "name": "implementation",
          "type": "address"
        }
      ],
      "name": "Upgraded",
      "type": "event"
    },
    {
      "anonymous": false,
      "inputs": [
        {
          "indexed": false,
          "internalType": "string",
          "name": "onePUser",
          "type": "string"
        },
        {
          "indexed": false,
          "internalType": "string",
          "name": "name",
          "type": "string"
        },
        {
          "indexed": false,
          "internalType": "string",
          "name": "img",
          "type": "string"
        }
      ],
      "name": "UsernameRegistered",
      "type": "event"
    },
    {
      "inputs": [],
      "name": "DOMAIN_SEPARATOR",
      "outputs": [
        {
          "internalType": "bytes32",
          "name": "",
          "type": "bytes32"
        }
      ],
      "stateMutability": "view",
      "type": "function"
    },
    {
      "inputs": [
        {
          "internalType": "uint256",
          "name": "",
          "type": "uint256"
        }
      ],
      "name": "allUsernamesArray",
      "outputs": [
        {
          "internalType": "string",
          "name": "",
          "type": "string"
        }
      ],
      "stateMutability": "view",
      "type": "function"
    },
    {
      "inputs": [
        {
          "internalType": "address",
          "name": "owner",
          "type": "address"
        },
        {
          "internalType": "address",
          "name": "spender",
          "type": "address"
        }
      ],
      "name": "allowance",
      "outputs": [
        {
          "internalType": "uint256",
          "name": "",
          "type": "uint256"
        }
      ],
      "stateMutability": "view",
      "type": "function"
    },
    {
      "inputs": [
        {
          "internalType": "address",
          "name": "spender",
          "type": "address"
        },
        {
          "internalType": "uint256",
          "name": "amount",
          "type": "uint256"
        }
      ],
      "name": "approve",
      "outputs": [
        {
          "internalType": "bool",
          "name": "",
          "type": "bool"
        }
      ],
      "stateMutability": "nonpayable",
      "type": "function"
    },
    {
      "inputs": [
        {
          "internalType": "string",
          "name": "onePUser",
          "type": "string"
        },
        {
          "internalType": "address",
          "name": "account",
          "type": "address"
        }
      ],
      "name": "attachAccount",
      "outputs": [],
      "stateMutability": "nonpayable",
      "type": "function"
    },
    {
      "inputs": [
        {
          "internalType": "uint64",
          "name": "",
          "type": "uint64"
        }
      ],
      "name": "attemptRegistry",
      "outputs": [
        {
          "internalType": "uint64",
          "name": "id",
          "type": "uint64"
        },
        {
          "internalType": "string",
          "name": "onePUser",
          "type": "string"
        },
        {
          "internalType": "address",
          "name": "hotWallet",
          "type": "address"
        },
        {
          "internalType": "uint64",
          "name": "expiresAt",
          "type": "uint64"
        },
        {
          "internalType": "uint64",
          "name": "difficulty",
          "type": "uint64"
        },
        {
          "internalType": "enum OnePProtocol.Status",
          "name": "status",
          "type": "uint8"
        }
      ],
      "stateMutability": "view",
      "type": "function"
    },
    {
      "inputs": [
        {
          "internalType": "address",
          "name": "account",
          "type": "address"
        }
      ],
      "name": "balanceOf",
      "outputs": [
        {
          "internalType": "uint256",
          "name": "",
          "type": "uint256"
        }
      ],
      "stateMutability": "view",
      "type": "function"
    },
    {
      "inputs": [
        {
          "internalType": "uint256",
          "name": "amount",
          "type": "uint256"
        }
      ],
      "name": "burn",
      "outputs": [],
      "stateMutability": "nonpayable",
      "type": "function"
    },
    {
      "inputs": [
        {
          "internalType": "address",
          "name": "from",
          "type": "address"
        },
        {
          "internalType": "uint256",
          "name": "amount",
          "type": "uint256"
        }
      ],
      "name": "burn",
      "outputs": [],
      "stateMutability": "nonpayable",
      "type": "function"
    },
    {
      "inputs": [
        {
          "internalType": "address",
          "name": "account",
          "type": "address"
        },
        {
          "internalType": "uint256",
          "name": "amount",
          "type": "uint256"
        }
      ],
      "name": "burnFrom",
      "outputs": [],
      "stateMutability": "nonpayable",
      "type": "function"
    },
    {
      "inputs": [],
      "name": "cap",
      "outputs": [
        {
          "internalType": "uint256",
          "name": "",
          "type": "uint256"
        }
      ],
      "stateMutability": "view",
      "type": "function"
    },
    {
      "inputs": [],
      "name": "decimals",
      "outputs": [
        {
          "internalType": "uint8",
          "name": "",
          "type": "uint8"
        }
      ],
      "stateMutability": "view",
      "type": "function"
    },
    {
      "inputs": [
        {
          "internalType": "address",
          "name": "spender",
          "type": "address"
        },
        {
          "internalType": "uint256",
          "name": "subtractedValue",
          "type": "uint256"
        }
      ],
      "name": "decreaseAllowance",
      "outputs": [
        {
          "internalType": "bool",
          "name": "",
          "type": "bool"
        }
      ],
      "stateMutability": "nonpayable",
      "type": "function"
    },
    {
      "inputs": [],
      "name": "eip712Domain",
      "outputs": [
        {
          "internalType": "bytes1",
          "name": "fields",
          "type": "bytes1"
        },
        {
          "internalType": "string",
          "name": "name",
          "type": "string"
        },
        {
          "internalType": "string",
          "name": "version",
          "type": "string"
        },
        {
          "internalType": "uint256",
          "name": "chainId",
          "type": "uint256"
        },
        {
          "internalType": "address",
          "name": "verifyingContract",
          "type": "address"
        },
        {
          "internalType": "bytes32",
          "name": "salt",
          "type": "bytes32"
        },
        {
          "internalType": "uint256[]",
          "name": "extensions",
          "type": "uint256[]"
        }
      ],
      "stateMutability": "view",
      "type": "function"
    },
    {
      "inputs": [],
      "name": "getAllAttemptIds",
      "outputs": [
        {
          "internalType": "uint64[]",
          "name": "",
          "type": "uint64[]"
        }
      ],
      "stateMutability": "view",
      "type": "function"
    },
    {
      "inputs": [],
      "name": "getAllUsernames",
      "outputs": [
        {
          "internalType": "string[]",
          "name": "",
          "type": "string[]"
        }
      ],
      "stateMutability": "view",
      "type": "function"
    },
    {
      "inputs": [
        {
          "internalType": "uint64",
          "name": "attemptId",
          "type": "uint64"
        }
      ],
      "name": "getAttempt",
      "outputs": [
        {
          "components": [
            {
              "internalType": "uint64",
              "name": "id",
              "type": "uint64"
            },
            {
              "internalType": "string",
              "name": "onePUser",
              "type": "string"
            },
            {
              "internalType": "address",
              "name": "hotWallet",
              "type": "address"
            },
            {
              "internalType": "uint64",
              "name": "expiresAt",
              "type": "uint64"
            },
            {
              "internalType": "uint64",
              "name": "difficulty",
              "type": "uint64"
            },
            {
              "internalType": "enum OnePProtocol.Status",
              "name": "status",
              "type": "uint8"
            }
          ],
          "internalType": "struct OnePProtocol.Attempt",
          "name": "",
          "type": "tuple"
        }
      ],
      "stateMutability": "view",
      "type": "function"
    },
    {
      "inputs": [
        {
          "internalType": "string",
          "name": "onePUser",
          "type": "string"
        }
      ],
      "name": "getAttemptFee",
      "outputs": [
        {
          "internalType": "uint256",
          "name": "attemptFee",
          "type": "uint256"
        }
      ],
      "stateMutability": "view",
      "type": "function"
    },
    {
      "inputs": [
        {
          "internalType": "string",
          "name": "onePUser",
          "type": "string"
        }
      ],
      "name": "getUserProfile",
      "outputs": [
        {
          "components": [
            {
              "internalType": "string",
              "name": "name",
              "type": "string"
            },
            {
              "internalType": "string",
              "name": "img",
              "type": "string"
            },
            {
              "internalType": "address",
              "name": "account",
              "type": "address"
            }
          ],
          "internalType": "struct OnePProtocol.UserProfile",
          "name": "",
          "type": "tuple"
        }
      ],
      "stateMutability": "view",
      "type": "function"
    },
    {
      "inputs": [
        {
          "internalType": "string",
          "name": "onePUser",
          "type": "string"
        }
      ],
      "name": "getUserState",
      "outputs": [
        {
          "components": [
            {
              "internalType": "uint64",
              "name": "totalAttempts",
              "type": "uint64"
            },
            {
              "internalType": "uint64",
              "name": "successCount",
              "type": "uint64"
            },
            {
              "internalType": "uint64",
              "name": "failureCount",
              "type": "uint64"
            },
            {
              "internalType": "uint64",
              "name": "firstFailureTs",
              "type": "uint64"
            },
            {
              "internalType": "uint64",
              "name": "lastFailureTs",
              "type": "uint64"
            },
            {
              "internalType": "uint64",
              "name": "d",
              "type": "uint64"
            },
            {
              "internalType": "bool",
              "name": "highAbuse",
              "type": "bool"
            }
          ],
          "internalType": "struct OnePProtocol.UserState",
          "name": "",
          "type": "tuple"
        }
      ],
      "stateMutability": "view",
      "type": "function"
    },
    {
      "inputs": [
        {
          "internalType": "address",
          "name": "spender",
          "type": "address"
        },
        {
          "internalType": "uint256",
          "name": "addedValue",
          "type": "uint256"
        }
      ],
      "name": "increaseAllowance",
      "outputs": [
        {
          "internalType": "bool",
          "name": "",
          "type": "bool"
        }
      ],
      "stateMutability": "nonpayable",
      "type": "function"
    },
    {
      "inputs": [
        {
          "internalType": "address",
          "name": "_verifier",
          "type": "address"
        }
      ],
      "name": "initialize",
      "outputs": [],
      "stateMutability": "nonpayable",
      "type": "function"
    },
    {
      "inputs": [
        {
          "internalType": "uint256",
          "name": "_initialSupply",
          "type": "uint256"
        },
        {
          "internalType": "uint256",
          "name": "_cap",
          "type": "uint256"
        }
      ],
      "name": "initializeToken",
      "outputs": [],
      "stateMutability": "nonpayable",
      "type": "function"
    },
    {
      "inputs": [
        {
          "internalType": "address",
          "name": "to",
          "type": "address"
        },
        {
          "internalType": "uint256",
          "name": "amount",
          "type": "uint256"
        }
      ],
      "name": "mint",
      "outputs": [],
      "stateMutability": "nonpayable",
      "type": "function"
    },
    {
      "inputs": [],
      "name": "name",
      "outputs": [
        {
          "internalType": "string",
          "name": "",
          "type": "string"
        }
      ],
      "stateMutability": "view",
      "type": "function"
    },
    {
      "inputs": [],
      "name": "nextAttemptId",
      "outputs": [
        {
          "internalType": "uint64",
          "name": "",
          "type": "uint64"
        }
      ],
      "stateMutability": "view",
      "type": "function"
    },
    {
      "inputs": [
        {
          "internalType": "address",
          "name": "owner",
          "type": "address"
        }
      ],
      "name": "nonces",
      "outputs": [
        {
          "internalType": "uint256",
          "name": "",
          "type": "uint256"
        }
      ],
      "stateMutability": "view",
      "type": "function"
    },
    {
      "inputs": [],
      "name": "owner",
      "outputs": [
        {
          "internalType": "address",
          "name": "",
          "type": "address"
        }
      ],
      "stateMutability": "view",
      "type": "function"
    },
    {
      "inputs": [],
      "name": "pause",
      "outputs": [],
      "stateMutability": "nonpayable",
      "type": "function"
    },
    {
      "inputs": [],
      "name": "paused",
      "outputs": [
        {
          "internalType": "bool",
          "name": "",
          "type": "bool"
        }
      ],
      "stateMutability": "view",
      "type": "function"
    },
    {
      "inputs": [
        {
          "internalType": "address",
          "name": "owner",
          "type": "address"
        },
        {
          "internalType": "address",
          "name": "spender",
          "type": "address"
        },
        {
          "internalType": "uint256",
          "name": "value",
          "type": "uint256"
        },
        {
          "internalType": "uint256",
          "name": "deadline",
          "type": "uint256"
        },
        {
          "internalType": "uint8",
          "name": "v",
          "type": "uint8"
        },
        {
          "internalType": "bytes32",
          "name": "r",
          "type": "bytes32"
        },
        {
          "internalType": "bytes32",
          "name": "s",
          "type": "bytes32"
        }
      ],
      "name": "permit",
      "outputs": [],
      "stateMutability": "nonpayable",
      "type": "function"
    },
    {
      "inputs": [],
      "name": "proxiableUUID",
      "outputs": [
        {
          "internalType": "bytes32",
          "name": "",
          "type": "bytes32"
        }
      ],
      "stateMutability": "view",
      "type": "function"
    },
    {
      "inputs": [
        {
          "internalType": "string",
          "name": "onePUser",
          "type": "string"
        },
        {
          "internalType": "string",
          "name": "name",
          "type": "string"
        },
        {
          "internalType": "string",
          "name": "img",
          "type": "string"
        }
      ],
      "name": "register",
      "outputs": [],
      "stateMutability": "nonpayable",
      "type": "function"
    },
    {
      "inputs": [],
      "name": "renounceOwnership",
      "outputs": [],
      "stateMutability": "nonpayable",
      "type": "function"
    },
    {
      "inputs": [
        {
          "internalType": "string",
          "name": "onePUser",
          "type": "string"
        }
      ],
      "name": "requestAttempt",
      "outputs": [],
      "stateMutability": "nonpayable",
      "type": "function"
    },
    {
      "inputs": [],
      "name": "symbol",
      "outputs": [
        {
          "internalType": "string",
          "name": "",
          "type": "string"
        }
      ],
      "stateMutability": "view",
      "type": "function"
    },
    {
      "inputs": [],
      "name": "totalSupply",
      "outputs": [
        {
          "internalType": "uint256",
          "name": "",
          "type": "uint256"
        }
      ],
      "stateMutability": "view",
      "type": "function"
    },
    {
      "inputs": [
        {
          "internalType": "address",
          "name": "to",
          "type": "address"
        },
        {
          "internalType": "uint256",
          "name": "amount",
          "type": "uint256"
        }
      ],
      "name": "transfer",
      "outputs": [
        {
          "internalType": "bool",
          "name": "",
          "type": "bool"
        }
      ],
      "stateMutability": "nonpayable",
      "type": "function"
    },
    {
      "inputs": [
        {
          "internalType": "address",
          "name": "from",
          "type": "address"
        },
        {
          "internalType": "address",
          "name": "to",
          "type": "address"
        },
        {
          "internalType": "uint256",
          "name": "amount",
          "type": "uint256"
        }
      ],
      "name": "transferFrom",
      "outputs": [
        {
          "internalType": "bool",
          "name": "",
          "type": "bool"
        }
      ],
      "stateMutability": "nonpayable",
      "type": "function"
    },
    {
      "inputs": [
        {
          "internalType": "address",
          "name": "newOwner",
          "type": "address"
        }
      ],
      "name": "transferOwnership",
      "outputs": [],
      "stateMutability": "nonpayable",
      "type": "function"
    },
    {
      "inputs": [],
      "name": "unpause",
      "outputs": [],
      "stateMutability": "nonpayable",
      "type": "function"
    },
    {
      "inputs": [
        {
          "internalType": "uint64",
          "name": "attemptId",
          "type": "uint64"
        },
        {
          "internalType": "enum OnePProtocol.Status",
          "name": "newStatus",
          "type": "uint8"
        }
      ],
      "name": "updateAttemptStatus",
      "outputs": [],
      "stateMutability": "nonpayable",
      "type": "function"
    },
    {
      "inputs": [
        {
          "internalType": "address",
          "name": "_verifier",
          "type": "address"
        }
      ],
      "name": "updateVerifier",
      "outputs": [],
      "stateMutability": "nonpayable",
      "type": "function"
    },
    {
      "inputs": [
        {
          "internalType": "address",
          "name": "newImplementation",
          "type": "address"
        }
      ],
      "name": "upgradeTo",
      "outputs": [],
      "stateMutability": "nonpayable",
      "type": "function"
    },
    {
      "inputs": [
        {
          "internalType": "address",
          "name": "newImplementation",
          "type": "address"
        },
        {
          "internalType": "bytes",
          "name": "data",
          "type": "bytes"
        }
      ],
      "name": "upgradeToAndCall",
      "outputs": [],
      "stateMutability": "payable",
      "type": "function"
    },
    {
      "inputs": [
        {
          "internalType": "string",
          "name": "",
          "type": "string"
        }
      ],
      "name": "userStateRegistry",
      "outputs": [
        {
          "internalType": "uint64",
          "name": "totalAttempts",
          "type": "uint64"
        },
        {
          "internalType": "uint64",
          "name": "successCount",
          "type": "uint64"
        },
        {
          "internalType": "uint64",
          "name": "failureCount",
          "type": "uint64"
        },
        {
          "internalType": "uint64",
          "name": "firstFailureTs",
          "type": "uint64"
        },
        {
          "internalType": "uint64",
          "name": "lastFailureTs",
          "type": "uint64"
        },
        {
          "internalType": "uint64",
          "name": "d",
          "type": "uint64"
        },
        {
          "internalType": "bool",
          "name": "highAbuse",
          "type": "bool"
        }
      ],
      "stateMutability": "view",
      "type": "function"
    },
    {
      "inputs": [
        {
          "internalType": "string",
          "name": "onePUser",
          "type": "string"
        }
      ],
      "name": "usernameExists",
      "outputs": [
        {
          "internalType": "bool",
          "name": "",
          "type": "bool"
        }
      ],
      "stateMutability": "view",
      "type": "function"
    },
    {
      "inputs": [
        {
          "internalType": "string",
          "name": "",
          "type": "string"
        }
      ],
      "name": "usernameRegistry",
      "outputs": [
        {
          "internalType": "string",
          "name": "name",
          "type": "string"
        },
        {
          "internalType": "string",
          "name": "img",
          "type": "string"
        },
        {
          "internalType": "address",
          "name": "account",
          "type": "address"
        }
      ],
      "stateMutability": "view",
      "type": "function"
    },
    {
      "inputs": [],
      "name": "verifier",
      "outputs": [
        {
          "internalType": "address",
          "name": "",
          "type": "address"
        }
      ],
      "stateMutability": "view",
      "type": "function"
    }
  ],
  "transactionHash": "0x19617795a9564cf9f2265ec7b06486928a451a0a4ec2d437af700c9be48ccf0e",
  "args": [],
  "numDeployments": 1,
  "solcInputHash": "d24c79638a0a3eda148a6d81f9c76969",
  "bytecode": "0x60a06040523060805234801561001457600080fd5b5061001d61002a565b61002561002a565b6100e9565b600054610100900460ff16156100965760405162461bcd60e51b815260206004820152602760248201527f496e697469616c697a61626c653a20636f6e747261637420697320696e697469604482015266616c697a696e6760c81b606482015260840160405180910390fd5b60005460ff908116146100e7576000805460ff191660ff9081179091556040519081527f7f26b83ff96e1f2b6a682f133852f6798a09c465da95921460cefb38474024989060200160405180910390a15b565b608051614dd161012060003960008181610ba101528181610bea01528181610ef601528181610f360152610fc50152614dd16000f3fe6080604052600436106102ae5760003560e01c80637ecebe0011610175578063c4d66de8116100dc578063dbddc3b411610095578063ed7b22571161006f578063ed7b22571461094d578063f2fde38b1461096f578063f309e3f91461098f578063f9c72035146109af57600080fd5b8063dbddc3b4146108ed578063dc0683c01461090d578063dd62ed3e1461092d57600080fd5b8063c4d66de8146107f8578063c898d36b14610818578063ce18884214610845578063d505accf14610874578063d607b5c614610894578063da2dfd11146108b457600080fd5b806397fc007c1161012e57806397fc007c1461072b5780639dc29fac1461074b578063a457c2d71461076b578063a81203b61461078b578063a9059cbb146107b8578063bd071486146107d857600080fd5b80637ecebe00146105d75780638456cb59146105f757806384b0196e1461060c578063852da046146106345780638da5cb5b146106f757806395d89b411461071657600080fd5b806340c10f19116102195780635c975abb116101d25780635c975abb1461050757806369e4c16c1461051f57806370a082311461053f578063715018a61461057557806379cc67901461058a5780637a0d62b2146105aa57600080fd5b806340c10f191461045d57806342966c681461047d5780634cd08d031461049d5780634f1ef286146104bd57806352d1902d146104d057806353620375146104e557600080fd5b8063313ce5671161026b578063313ce567146103bf578063355274ea146103db5780633644e515146103f15780633659cfe61461040657806339509351146104285780633f4ba83a1461044857600080fd5b806306fdde03146102b3578063095ea7b3146102de5780630bdc25351461030e57806318160ddd1461034057806323b872dd1461035f5780632b7ac3f31461037f575b600080fd5b3480156102bf57600080fd5b506102c86109cf565b6040516102d591906140b1565b60405180910390f35b3480156102ea57600080fd5b506102fe6102f93660046140e0565b610a61565b60405190151581526020016102d5565b34801561031a57600080fd5b5061032e610329366004614121565b610a7b565b6040516102d596959493929190614174565b34801561034c57600080fd5b506035545b6040519081526020016102d5565b34801561036b57600080fd5b506102fe61037a3660046141d6565b610b62565b34801561038b57600080fd5b50610263546103a790600160401b90046001600160a01b031681565b6040516001600160a01b0390911681526020016102d5565b3480156103cb57600080fd5b50604051601281526020016102d5565b3480156103e757600080fd5b5061013054610351565b3480156103fd57600080fd5b50610351610b88565b34801561041257600080fd5b50610426610421366004614213565b610b97565b005b34801561043457600080fd5b506102fe6104433660046140e0565b610c7f565b34801561045457600080fd5b50610426610ca1565b34801561046957600080fd5b506104266104783660046140e0565b610cb3565b34801561048957600080fd5b5061042661049836600461422e565b610cc9565b3480156104a957600080fd5b506104266104b83660046142f5565b610cd3565b6104266104cb366004614386565b610eec565b3480156104dc57600080fd5b50610351610fb8565b3480156104f157600080fd5b506104fa61106b565b6040516102d591906143e7565b34801561051357600080fd5b5060cc5460ff166102fe565b34801561052b57600080fd5b5061035161053a36600461444c565b611145565b34801561054b57600080fd5b5061035161055a366004614213565b6001600160a01b031660009081526033602052604090205490565b34801561058157600080fd5b50610426611360565b34801561059657600080fd5b506104266105a53660046140e0565b611372565b3480156105b657600080fd5b506105ca6105c5366004614121565b611387565b6040516102d59190614480565b3480156105e357600080fd5b506103516105f2366004614213565b6114f7565b34801561060357600080fd5b50610426611515565b34801561061857600080fd5b50610621611525565b6040516102d59796959493929190614503565b34801561064057600080fd5b506106ad61064f36600461444c565b805160208183018101805161025e82529282019190930120915280546001909101546001600160401b0380831692600160401b808204831693600160801b808404851694600160c01b90940484169380831693830416910460ff1687565b604080516001600160401b03988916815296881660208801529487169486019490945291851660608501528416608084015290921660a082015290151560c082015260e0016102d5565b34801561070357600080fd5b50610195546001600160a01b03166103a7565b34801561072257600080fd5b506102c86115c3565b34801561073757600080fd5b50610426610746366004614213565b6115d2565b34801561075757600080fd5b506104266107663660046140e0565b611650565b34801561077757600080fd5b506102fe6107863660046140e0565b611658565b34801561079757600080fd5b506107ab6107a636600461444c565b6116de565b6040516102d5919061459b565b3480156107c457600080fd5b506102fe6107d33660046140e0565b611860565b3480156107e457600080fd5b506102c86107f336600461422e565b61186e565b34801561080457600080fd5b50610426610813366004614213565b61191b565b34801561082457600080fd5b5061083861083336600461444c565b611a6d565b6040516102d591906145f6565b34801561085157600080fd5b5061086561086036600461444c565b611b34565b6040516102d59392919061468c565b34801561088057600080fd5b5061042661088f3660046146d9565b611c7b565b3480156108a057600080fd5b506104266108af366004614746565b611ddf565b3480156108c057600080fd5b50610263546108d5906001600160401b031681565b6040516001600160401b0390911681526020016102d5565b3480156108f957600080fd5b50610426610908366004614768565b611e64565b34801561091957600080fd5b506104266109283660046147b5565b612028565b34801561093957600080fd5b506103516109483660046147f0565b61259a565b34801561095957600080fd5b506109626125c5565b6040516102d5919061481a565b34801561097b57600080fd5b5061042661098a366004614213565b612673565b34801561099b57600080fd5b506102fe6109aa36600461444c565b6126e9565b3480156109bb57600080fd5b506104266109ca36600461444c565b612723565b6060603680546109de90614866565b80601f0160208091040260200160405190810160405280929190818152602001828054610a0a90614866565b8015610a575780601f10610a2c57610100808354040283529160200191610a57565b820191906000526020600020905b815481529060010190602001808311610a3a57829003601f168201915b5050505050905090565b600033610a6f818585612a9c565b60019150505b92915050565b61025f60205260009081526040902080546001820180546001600160401b039092169291610aa890614866565b80601f0160208091040260200160405190810160405280929190818152602001828054610ad490614866565b8015610b215780601f10610af657610100808354040283529160200191610b21565b820191906000526020600020905b815481529060010190602001808311610b0457829003601f168201915b50505050600283015460039093015491926001600160a01b03811692600160a01b9091046001600160401b039081169250811690600160401b900460ff1686565b600033610b70858285612bc0565b610b7b858585612c34565b60019150505b9392505050565b6000610b92612dea565b905090565b6001600160a01b037f0000000000000000000000000000000000000000000000000000000000000000163003610be85760405162461bcd60e51b8152600401610bdf9061489a565b60405180910390fd5b7f00000000000000000000000000000000000000000000000000000000000000006001600160a01b0316610c31600080516020614d55833981519152546001600160a01b031690565b6001600160a01b031614610c575760405162461bcd60e51b8152600401610bdf906148e6565b610c6081612df4565b60408051600080825260208201909252610c7c91839190612dfc565b50565b600033610a6f818585610c92838361259a565b610c9c9190614948565b612a9c565b610ca9612f67565b610cb1612fc2565b565b610cbb612f67565b610cc58282613014565b5050565b610c7c338261301e565b610cdb61315e565b610ce4836131b9565b610d235760405162461bcd60e51b815260206004820152601060248201526f496e76616c696420757365726e616d6560801b6044820152606401610bdf565b60405163f309e3f960e01b8152309063f309e3f990610d469086906004016140b1565b602060405180830381865afa158015610d63573d6000803e3d6000fd5b505050506040513d601f19601f82011682018060405250810190610d87919061495b565b610dc55760405162461bcd60e51b815260206004820152600f60248201526e557365726e616d652065786973747360881b6044820152606401610bdf565b610dd9333068056bc75e2d63100000612c34565b60408051606081018252838152602081018390526000818301529051819061025d90610e0690879061497d565b90815260405190819003602001902081518190610e2390826149e7565b5060208201516001820190610e3890826149e7565b5060409190910151600290910180546001600160a01b0319166001600160a01b0390921691909117905561026280546001810182556000919091527f338bfe207be87fe819ed3a8a6fc3e5b2e6e3d835cbfe1057849661fdcf4c639101610e9f85826149e7565b507fbd923fe07a823605215bd6fd9be1099106f4391586bbebfe8ff6f933655ee3a0848484604051610ed393929190614aa5565b60405180910390a150610ee760016101c755565b505050565b6001600160a01b037f0000000000000000000000000000000000000000000000000000000000000000163003610f345760405162461bcd60e51b8152600401610bdf9061489a565b7f00000000000000000000000000000000000000000000000000000000000000006001600160a01b0316610f7d600080516020614d55833981519152546001600160a01b031690565b6001600160a01b031614610fa35760405162461bcd60e51b8152600401610bdf906148e6565b610fac82612df4565b610cc582826001612dfc565b6000306001600160a01b037f000000000000000000000000000000000000000000000000000000000000000016146110585760405162461bcd60e51b815260206004820152603860248201527f555550535570677261646561626c653a206d757374206e6f742062652063616c60448201527f6c6564207468726f7567682064656c656761746563616c6c00000000000000006064820152608401610bdf565b50600080516020614d5583398151915290565b6060610262805480602002602001604051908101604052809291908181526020016000905b8282101561113c5783829060005260206000200180546110af90614866565b80601f01602080910402602001604051908101604052809291908181526020018280546110db90614866565b80156111285780601f106110fd57610100808354040283529160200191611128565b820191906000526020600020905b81548152906001019060200180831161110b57829003601f168201915b505050505081526020019060010190611090565b50505050905090565b60008061025e83604051611159919061497d565b908152604080516020928190038301812060e08201835280546001600160401b038082168452600160401b808304821696850196909652600160801b808304821695850195909552600160c01b9091048116606084015260019091015480821660808401529384041660a082018190529190920460ff16151560c0830152909150600090156111ec578160a001516111ef565b60015b9050662386f26fc10000670de0b6b3a7640000600a60006112196001600160401b03861680614ade565b905061122e6001600160401b03861682614ade565b905061123b600282614af5565b905060006112498380614ade565b90506112558382614ade565b9050611262600282614af5565b90506000306001600160a01b031663313ce5676040518163ffffffff1660e01b8152600401602060405180830381865afa1580156112a4573d6000803e3d6000fd5b505050506040513d601f19601f820116820180604052508101906112c89190614b17565b60ff16905060006112d98787614b34565b90506000836112e88487614ade565b6112f29190614af5565b90506000836113018385614ade565b61130b9190614af5565b90506000611319828b614948565b9050888111156113355750969c9b505050505050505050505050565b8981101561134f5750979c9b505050505050505050505050565b9d9c50505050505050505050505050565b611368612f67565b610cb160006131dc565b61137d823383612bc0565b610cc5828261301e565b6113be6040805160c0810182526000808252606060208301819052928201819052918101829052608081018290529060a082015290565b6001600160401b03808316600090815261025f6020908152604091829020825160c08101909352805490931682526001830180549293929184019161140290614866565b80601f016020809104026020016040519081016040528092919081815260200182805461142e90614866565b801561147b5780601f106114505761010080835404028352916020019161147b565b820191906000526020600020905b81548152906001019060200180831161145e57829003601f168201915b505050918352505060028201546001600160a01b0381166020830152600160a01b90046001600160401b0390811660408301526003808401549182166060840152608090920191600160401b90910460ff16908111156114dd576114dd61413c565b60038111156114ee576114ee61413c565b90525092915050565b6001600160a01b038116600090815260996020526040812054610a75565b61151d612f67565b610cb161322f565b6000606080600080600060606065546000801b1480156115455750606654155b6115895760405162461bcd60e51b81526020600482015260156024820152741152540dcc4c8e88155b9a5b9a5d1a585b1a5e9959605a1b6044820152606401610bdf565b61159161326c565b61159961327b565b60408051600080825260208201909252600f60f81b9b939a50919850469750309650945092509050565b6060603780546109de90614866565b6115da612f67565b6001600160a01b0381166116235760405162461bcd60e51b815260206004820152601060248201526f24b73b30b634b2103b32b934b334b2b960811b6044820152606401610bdf565b61026380546001600160a01b03909216600160401b02600160401b600160e01b0319909216919091179055565b61137d612f67565b60003381611666828661259a565b9050838110156116c65760405162461bcd60e51b815260206004820152602560248201527f45524332303a2064656372656173656420616c6c6f77616e63652062656c6f77604482015264207a65726f60d81b6064820152608401610bdf565b6116d38286868403612a9c565b506001949350505050565b60408051606080820183528082526020820152600081830152905161025d9061170890849061497d565b908152602001604051809103902060405180606001604052908160008201805461173190614866565b80601f016020809104026020016040519081016040528092919081815260200182805461175d90614866565b80156117aa5780601f1061177f576101008083540402835291602001916117aa565b820191906000526020600020905b81548152906001019060200180831161178d57829003601f168201915b505050505081526020016001820180546117c390614866565b80601f01602080910402602001604051908101604052809291908181526020018280546117ef90614866565b801561183c5780601f106118115761010080835404028352916020019161183c565b820191906000526020600020905b81548152906001019060200180831161181f57829003601f168201915b5050509183525050600291909101546001600160a01b031660209091015292915050565b600033610a6f818585612c34565b610262818154811061187f57600080fd5b90600052602060002001600091509050805461189a90614866565b80601f01602080910402602001604051908101604052809291908181526020018280546118c690614866565b80156119135780601f106118e857610100808354040283529160200191611913565b820191906000526020600020905b8154815290600101906020018083116118f657829003601f168201915b505050505081565b600054610100900460ff161580801561193b5750600054600160ff909116105b806119555750303b158015611955575060005460ff166001145b6119b85760405162461bcd60e51b815260206004820152602e60248201527f496e697469616c697a61626c653a20636f6e747261637420697320616c72656160448201526d191e481a5b9a5d1a585b1a5e995960921b6064820152608401610bdf565b6000805460ff1916600117905580156119db576000805461ff0019166101001790555b6a084595161401484a0000006a52b7d2dcc80cd2e40000006119fd8282611ddf565b50506102638054600160401b600160e01b031916600160401b6001600160a01b038516021790558015610cc5576000805461ff0019169055604051600181527f7f26b83ff96e1f2b6a682f133852f6798a09c465da95921460cefb38474024989060200160405180910390a15050565b6040805160e081018252600080825260208201819052818301819052606082018190526080820181905260a0820181905260c0820152905161025e90611ab490849061497d565b908152604080516020928190038301812060e08201835280546001600160401b038082168452600160401b808304821696850196909652600160801b808304821695850195909552600160c01b9091048116606084015260019091015480821660808401529384041660a0820152910460ff16151560c082015292915050565b805160208183018101805161025d82529282019190930120915280548190611b5b90614866565b80601f0160208091040260200160405190810160405280929190818152602001828054611b8790614866565b8015611bd45780601f10611ba957610100808354040283529160200191611bd4565b820191906000526020600020905b815481529060010190602001808311611bb757829003601f168201915b505050505090806001018054611be990614866565b80601f0160208091040260200160405190810160405280929190818152602001828054611c1590614866565b8015611c625780601f10611c3757610100808354040283529160200191611c62565b820191906000526020600020905b815481529060010190602001808311611c4557829003601f168201915b505050600290930154919250506001600160a01b031683565b83421115611ccb5760405162461bcd60e51b815260206004820152601d60248201527f45524332305065726d69743a206578706972656420646561646c696e650000006044820152606401610bdf565b60007f6e71edae12b1b97f4d1f60370fef10105fa2faae0126114a169c64845d6126c9888888611cfa8c61328a565b6040805160208101969096526001600160a01b0394851690860152929091166060840152608083015260a082015260c0810186905260e0016040516020818303038152906040528051906020012090506000611d55826132b0565b90506000611d65828787876132dd565b9050896001600160a01b0316816001600160a01b031614611dc85760405162461bcd60e51b815260206004820152601e60248201527f45524332305065726d69743a20696e76616c6964207369676e617475726500006044820152606401610bdf565b611dd38a8a8a612a9c565b50505050505050505050565b604080518082018252600881526718a8102a37b5b2b760c11b60208083019190915282518084019093526002835261031560f41b9083015290611e228282613307565b611e2b82613338565b611e3483613382565b611e3c6133b2565b611e446133e1565b611e4c613410565b611e5461343f565b611e5e3385613014565b50505050565b61026354600160401b90046001600160a01b03163314611eb65760405162461bcd60e51b815260206004820152600d60248201526c27b7363c903b32b934b334b2b960991b6044820152606401610bdf565b600061025d83604051611ec9919061497d565b908152602001604051809103902090506000816000018054611eea90614866565b905011611f335760405162461bcd60e51b8152602060048201526017602482015276155cd95c9b985b59481b9bdd081c9959da5cdd195c9959604a1b6044820152606401610bdf565b60028101546001600160a01b031615611f845760405162461bcd60e51b81526020600482015260136024820152721058d8dbdd5b9d08185b1c9958591e481cd95d606a1b6044820152606401610bdf565b6001600160a01b038216611fcc5760405162461bcd60e51b815260206004820152600f60248201526e125b9d985b1a59081858d8dbdd5b9d608a1b6044820152606401610bdf565b6002810180546001600160a01b0319166001600160a01b0384161790556040517ff609fe4c93cca40e8981fee69d133b9cfa79155bc0cdee3c154e46c64fd7b9fa9061201b9085908590614b47565b60405180910390a1505050565b61026354600160401b90046001600160a01b0316331461207a5760405162461bcd60e51b815260206004820152600d60248201526c27b7363c903b32b934b334b2b960991b6044820152606401610bdf565b6001600160401b038216600090815261025f6020526040902060038101546120ac90600160401b900460ff1683613466565b6120f85760405162461bcd60e51b815260206004820152601a60248201527f537461747573206d7573742062652070726f67726573736976650000000000006044820152606401610bdf565b600381015461211190600160401b900460ff168361349a565b61215d5760405162461bcd60e51b815260206004820152601960248201527f496e76616c696420737461747573207472616e736974696f6e000000000000006044820152606401610bdf565b6040805160c0810190915281546001600160401b031681526001820180546122939291849160208401919061219190614866565b80601f01602080910402602001604051908101604052809291908181526020018280546121bd90614866565b801561220a5780601f106121df5761010080835404028352916020019161220a565b820191906000526020600020905b8154815290600101906020018083116121ed57829003601f168201915b505050918352505060028201546001600160a01b0381166020830152600160a01b90046001600160401b0390811660408301526003808401549182166060840152608090920191600160401b90910460ff169081111561226c5761226c61413c565b600381111561227d5761227d61413c565b905250606001516001600160401b031642101590565b156122d25760405162461bcd60e51b815260206004820152600f60248201526e105d1d195b5c1d08195e1c1a5c9959608a1b6044820152606401610bdf565b818160030160086101000a81548160ff021916908360038111156122f8576122f861413c565b02179055507f689fa9f55ffd5f17620eedece51304ea7d5d365566907941bb2e34d0cbd1c54c838360405161232e929190614b71565b60405180910390a1600282600381111561234a5761234a61413c565b1480612367575060038260038111156123655761236561413c565b145b15610ee757600061025e826001016040516123829190614b8e565b9081526040519081900360200190209050600060028460038111156123a9576123a961413c565b149050428115612472578254600160401b90046001600160401b03168360086123d183614c03565b91906101000a8154816001600160401b0302191690836001600160401b031602179055505060018360010160089054906101000a90046001600160401b03166001600160401b031611612425576001612445565b6001838101546124459190600160401b90046001600160401b0316614c2e565b8360010160086101000a8154816001600160401b0302191690836001600160401b03160217905550612592565b8254600160801b90046001600160401b031683601061249083614c03565b82546101009290920a6001600160401b038181021990931691831602179091558454600160c01b90041660000390506124e25782546001600160c01b0316600160c01b6001600160401b038316021783555b60018301805467ffffffffffffffff19166001600160401b0383811691909117909155835461252391600160801b8204811691600160c01b90041683613534565b1561253e5760018301805460ff60801b1916600160801b1790555b600183015461256990600160401b81046001600160401b031690600160801b900460ff16600061357f565b8360010160086101000a8154816001600160401b0302191690836001600160401b031602179055505b505050505050565b6001600160a01b03918216600090815260346020908152604080832093909416825291909152205490565b610263546060906000906001600160401b03908116908111156125ea576125ea614247565b604051908082528060200260200182016040528015612613578160200160208202803683370190505b50905060005b610263546001600160401b03908116908216101561266d578082826001600160401b03168151811061264d5761264d614c4d565b6001600160401b0390921660209283029190910190910152600101612619565b50919050565b61267b612f67565b6001600160a01b0381166126e05760405162461bcd60e51b815260206004820152602660248201527f4f776e61626c653a206e6577206f776e657220697320746865207a65726f206160448201526564647265737360d01b6064820152608401610bdf565b610c7c816131dc565b600080826040516020016126fd919061497d565b60408051601f1981840301815291905280516020909101209050610b81610260826135dc565b61272b61315e565b60405163f309e3f960e01b8152309063f309e3f99061274e9084906004016140b1565b602060405180830381865afa15801561276b573d6000803e3d6000fd5b505050506040513d601f19601f8201168201806040525081019061278f919061495b565b6127d55760405162461bcd60e51b8152602060048201526017602482015276155cd95c9b985b59481b9bdd081c9959da5cdd195c9959604a1b6044820152606401610bdf565b600061025d826040516127e8919061497d565b90815260405190819003602001902060028101549091506001600160a01b0316806128105750305b600061281b84611145565b9050600080600061282b846135f4565b92509250925061283c333083612c34565b612847338685612c34565b61026354612867903390600160401b90046001600160a01b031684612c34565b612871308261301e565b600061025e88604051612884919061497d565b90815260405190819003602001902060018101549091506001600160401b03600160401b909104166000036128d5576001810180546fffffffffffffffff00000000000000001916600160401b1790555b80546001600160401b03168160006128ec83614c03565b82546101009290920a6001600160401b0381810219909316918316021790915560018301546102638054600160401b9092048316935060009291909116908261293483614c03565b91906101000a8154816001600160401b0302191690836001600160401b031602179055509050600061296b828c3386610258613689565b6001600160401b03838116600090815261025f602090815260409091208351815467ffffffffffffffff19169316929092178255820151919250829160018201906129b690826149e7565b50604082015160028201805460608501516001600160401b03908116600160a01b026001600160e01b03199092166001600160a01b03909416939093171790556080830151600380840180549290931667ffffffffffffffff1983168117845560a0860151939268ffffffffffffffffff19161790600160401b908490811115612a4257612a4261413c565b02179055509050507f0f6a47bdf5782b21edfaa370264af1691d2eb2324e9aec5b69d70b539b0b794b828c3386604051612a7f9493929190614c63565b60405180910390a150505050505050505050610c7c60016101c755565b6001600160a01b038316612afe5760405162461bcd60e51b8152602060048201526024808201527f45524332303a20617070726f76652066726f6d20746865207a65726f206164646044820152637265737360e01b6064820152608401610bdf565b6001600160a01b038216612b5f5760405162461bcd60e51b815260206004820152602260248201527f45524332303a20617070726f766520746f20746865207a65726f206164647265604482015261737360f01b6064820152608401610bdf565b6001600160a01b0383811660008181526034602090815260408083209487168084529482529182902085905590518481527f8c5be1e5ebec7d5bd14f71427d1e84f3dd0314c0f7b2291e5b200ac8c7c3b925910160405180910390a3505050565b6000612bcc848461259a565b90506000198114611e5e5781811015612c275760405162461bcd60e51b815260206004820152601d60248201527f45524332303a20696e73756666696369656e7420616c6c6f77616e63650000006044820152606401610bdf565b611e5e8484848403612a9c565b6001600160a01b038316612c985760405162461bcd60e51b815260206004820152602560248201527f45524332303a207472616e736665722066726f6d20746865207a65726f206164604482015264647265737360d81b6064820152608401610bdf565b6001600160a01b038216612cfa5760405162461bcd60e51b815260206004820152602360248201527f45524332303a207472616e7366657220746f20746865207a65726f206164647260448201526265737360e81b6064820152608401610bdf565b612d05838383613726565b6001600160a01b03831660009081526033602052604090205481811015612d7d5760405162461bcd60e51b815260206004820152602660248201527f45524332303a207472616e7366657220616d6f756e7420657863656564732062604482015265616c616e636560d01b6064820152608401610bdf565b6001600160a01b0380851660008181526033602052604080822086860390559286168082529083902080548601905591517fddf252ad1be2c89b69c2b068fc378daa952ba7f163c4a11628f55a4df523b3ef90612ddd9086815260200190565b60405180910390a3611e5e565b6000610b92613731565b610c7c612f67565b7f4910fdfa16fed3260ed0e7147f7cc6da11a60208b5b9406d12a635614ffd91435460ff1615612e2f57610ee7836137a5565b826001600160a01b03166352d1902d6040518163ffffffff1660e01b8152600401602060405180830381865afa925050508015612e89575060408051601f3d908101601f19168201909252612e8691810190614caf565b60015b612eec5760405162461bcd60e51b815260206004820152602e60248201527f45524331393637557067726164653a206e657720696d706c656d656e7461746960448201526d6f6e206973206e6f74205555505360901b6064820152608401610bdf565b600080516020614d558339815191528114612f5b5760405162461bcd60e51b815260206004820152602960248201527f45524331393637557067726164653a20756e737570706f727465642070726f786044820152681a58589b195555525160ba1b6064820152608401610bdf565b50610ee7838383613841565b610195546001600160a01b03163314610cb15760405162461bcd60e51b815260206004820181905260248201527f4f776e61626c653a2063616c6c6572206973206e6f7420746865206f776e65726044820152606401610bdf565b612fca613866565b60cc805460ff191690557f5db9ee0a495bf2e6ff9c91a7834c1ba4fdd244a5e8aa4e537bd38aeae4b073aa335b6040516001600160a01b03909116815260200160405180910390a1565b610cc582826138af565b6001600160a01b03821661307e5760405162461bcd60e51b815260206004820152602160248201527f45524332303a206275726e2066726f6d20746865207a65726f206164647265736044820152607360f81b6064820152608401610bdf565b61308a82600083613726565b6001600160a01b038216600090815260336020526040902054818110156130fe5760405162461bcd60e51b815260206004820152602260248201527f45524332303a206275726e20616d6f756e7420657863656564732062616c616e604482015261636560f01b6064820152608401610bdf565b6001600160a01b03831660008181526033602090815260408083208686039055603580548790039055518581529192917fddf252ad1be2c89b69c2b068fc378daa952ba7f163c4a11628f55a4df523b3ef910160405180910390a3505050565b60026101c754036131b15760405162461bcd60e51b815260206004820152601f60248201527f5265656e7472616e637947756172643a207265656e7472616e742063616c6c006044820152606401610bdf565b60026101c755565b8051600090829015801590610b815750516040101592915050565b60016101c755565b61019580546001600160a01b038381166001600160a01b0319831681179093556040519116919082907f8be0079c531659141344cd1fd0a4f28419497f9722a3daafe3b4186f6b6457e090600090a35050565b61323761391f565b60cc805460ff191660011790557f62e78cea01bee320cd4e420270b5ea74000d11b0c9f74754ebdbfc544b05a258612ff73390565b6060606780546109de90614866565b6060606880546109de90614866565b6001600160a01b038116600090815260996020526040902080546001810182559061266d565b6000610a756132bd612dea565b8360405161190160f01b8152600281019290925260228201526042902090565b60008060006132ee87878787613965565b915091506132fb81613a29565b5090505b949350505050565b600054610100900460ff1661332e5760405162461bcd60e51b8152600401610bdf90614cc8565b610cc58282613b73565b600054610100900460ff1661335f5760405162461bcd60e51b8152600401610bdf90614cc8565b610c7c81604051806040016040528060018152602001603160f81b815250613bb3565b600054610100900460ff166133a95760405162461bcd60e51b8152600401610bdf90614cc8565b610c7c81613c02565b600054610100900460ff166133d95760405162461bcd60e51b8152600401610bdf90614cc8565b610cb1613c77565b600054610100900460ff166134085760405162461bcd60e51b8152600401610bdf90614cc8565b610cb1613caa565b600054610100900460ff166134375760405162461bcd60e51b8152600401610bdf90614cc8565b610cb1613cda565b600054610100900460ff16610cb15760405162461bcd60e51b8152600401610bdf90614cc8565b600082600381111561347a5761347a61413c565b60ff1682600381111561348f5761348f61413c565b60ff16119392505050565b6000808360038111156134af576134af61413c565b1480156134cd575060018260038111156134cb576134cb61413c565b145b156134da57506001610a75565b60018360038111156134ee576134ee61413c565b1480156135275750600282600381111561350a5761350a61413c565b1480613527575060038260038111156135255761352561413c565b145b15610a7557506001610a75565b60006003846001600160401b03161015801561355957506000836001600160401b0316115b80156132ff5750610e1061356d8484614c2e565b6001600160401b031610949350505050565b600081156135b1576001846001600160401b03161161359f5760016135aa565b6135aa600185614c2e565b9050610b81565b82156135cc576135aa600a6135c7866002614d13565b613d01565b6135aa600a6135c7866001614d35565b60008181526001830160205260408120541515610b81565b60008080612710613607610fa086614ade565b6136119190614af5565b9250612710613622610fa086614ade565b61362c9190614af5565b915061271061363d6107d086614ade565b6136479190614af5565b90506000816136568486614948565b6136609190614948565b905084811015613681576136748186614b34565b61367e9083614948565b91505b509193909250565b6136c06040805160c0810182526000808252606060208301819052928201819052918101829052608081018290529060a082015290565b60004290506040518060c00160405280886001600160401b03168152602001878152602001866001600160a01b0316815260200184836137009190614d35565b6001600160401b0390811682528616602082015260400160009052979650505050505050565b610ee7838383613d29565b60007f8b73c3c69bb8fe3d512ecc4cf759cc79239f7b179b0ffacaa9a75d522b39400f61375c613d8f565b613764613de8565b60408051602081019490945283019190915260608201524660808201523060a082015260c00160405160208183030381529060405280519060200120905090565b6001600160a01b0381163b6138125760405162461bcd60e51b815260206004820152602d60248201527f455243313936373a206e657720696d706c656d656e746174696f6e206973206e60448201526c1bdd08184818dbdb9d1c9858dd609a1b6064820152608401610bdf565b600080516020614d5583398151915280546001600160a01b0319166001600160a01b0392909216919091179055565b61384a83613e19565b6000825111806138575750805b15610ee757611e5e8383613e59565b60cc5460ff16610cb15760405162461bcd60e51b815260206004820152601460248201527314185d5cd8589b194e881b9bdd081c185d5cd95960621b6044820152606401610bdf565b61013054816138bd60355490565b6138c79190614948565b11156139155760405162461bcd60e51b815260206004820152601960248201527f45524332304361707065643a20636170206578636565646564000000000000006044820152606401610bdf565b610cc58282613e7e565b60cc5460ff1615610cb15760405162461bcd60e51b815260206004820152601060248201526f14185d5cd8589b194e881c185d5cd95960821b6044820152606401610bdf565b6000807f7fffffffffffffffffffffffffffffff5d576e7357a4501ddfe92f46681b20a083111561399c5750600090506003613a20565b6040805160008082526020820180845289905260ff881692820192909252606081018690526080810185905260019060a0016020604051602081039080840390855afa1580156139f0573d6000803e3d6000fd5b5050604051601f1901519150506001600160a01b038116613a1957600060019250925050613a20565b9150600090505b94509492505050565b6000816004811115613a3d57613a3d61413c565b03613a455750565b6001816004811115613a5957613a5961413c565b03613aa65760405162461bcd60e51b815260206004820152601860248201527f45434453413a20696e76616c6964207369676e617475726500000000000000006044820152606401610bdf565b6002816004811115613aba57613aba61413c565b03613b075760405162461bcd60e51b815260206004820152601f60248201527f45434453413a20696e76616c6964207369676e6174757265206c656e677468006044820152606401610bdf565b6003816004811115613b1b57613b1b61413c565b03610c7c5760405162461bcd60e51b815260206004820152602260248201527f45434453413a20696e76616c6964207369676e6174757265202773272076616c604482015261756560f01b6064820152608401610bdf565b600054610100900460ff16613b9a5760405162461bcd60e51b8152600401610bdf90614cc8565b6036613ba683826149e7565b506037610ee782826149e7565b600054610100900460ff16613bda5760405162461bcd60e51b8152600401610bdf90614cc8565b6067613be683826149e7565b506068613bf382826149e7565b50506000606581905560665550565b600054610100900460ff16613c295760405162461bcd60e51b8152600401610bdf90614cc8565b60008111613c715760405162461bcd60e51b8152602060048201526015602482015274045524332304361707065643a20636170206973203605c1b6044820152606401610bdf565b61013055565b600054610100900460ff16613c9e5760405162461bcd60e51b8152600401610bdf90614cc8565b60cc805460ff19169055565b600054610100900460ff16613cd15760405162461bcd60e51b8152600401610bdf90614cc8565b610cb1336131dc565b600054610100900460ff166131d45760405162461bcd60e51b8152600401610bdf90614cc8565b6000816001600160401b0316836001600160401b031610613d225781610b81565b5090919050565b60cc5460ff1615610ee75760405162461bcd60e51b815260206004820152602a60248201527f45524332305061757361626c653a20746f6b656e207472616e736665722077686044820152691a5b19481c185d5cd95960b21b6064820152608401610bdf565b600080613d9a61326c565b805190915015613db1578051602090910120919050565b6065548015613dc05792915050565b7fc5d2460186f7233c927e7db2dcc703c0e500b653ca82273b7bfad8045d85a4709250505090565b600080613df361327b565b805190915015613e0a578051602090910120919050565b6066548015613dc05792915050565b613e22816137a5565b6040516001600160a01b038216907fbc7cd75a20ee27fd9adebab32041f755214dbc6bffa90cc0225b39da2e5c2d3b90600090a250565b6060610b818383604051806060016040528060278152602001614d7560279139613f4b565b6001600160a01b038216613ed45760405162461bcd60e51b815260206004820152601f60248201527f45524332303a206d696e7420746f20746865207a65726f2061646472657373006044820152606401610bdf565b613ee060008383613726565b8060356000828254613ef29190614948565b90915550506001600160a01b0382166000818152603360209081526040808320805486019055518481527fddf252ad1be2c89b69c2b068fc378daa952ba7f163c4a11628f55a4df523b3ef910160405180910390a35050565b6060600080856001600160a01b031685604051613f68919061497d565b600060405180830381855af49150503d8060008114613fa3576040519150601f19603f3d011682016040523d82523d6000602084013e613fa8565b606091505b5091509150613fb986838387613fc3565b9695505050505050565b6060831561403257825160000361402b576001600160a01b0385163b61402b5760405162461bcd60e51b815260206004820152601d60248201527f416464726573733a2063616c6c20746f206e6f6e2d636f6e74726163740000006044820152606401610bdf565b50816132ff565b6132ff83838151156140475781518083602001fd5b8060405162461bcd60e51b8152600401610bdf91906140b1565b60005b8381101561407c578181015183820152602001614064565b50506000910152565b6000815180845261409d816020860160208601614061565b601f01601f19169290920160200192915050565b602081526000610b816020830184614085565b80356001600160a01b03811681146140db57600080fd5b919050565b600080604083850312156140f357600080fd5b6140fc836140c4565b946020939093013593505050565b80356001600160401b03811681146140db57600080fd5b60006020828403121561413357600080fd5b610b818261410a565b634e487b7160e01b600052602160045260246000fd5b6004811061417057634e487b7160e01b600052602160045260246000fd5b9052565b6001600160401b038716815260c06020820152600061419660c0830188614085565b6001600160a01b03871660408401526001600160401b0386811660608501528516608084015290506141cb60a0830184614152565b979650505050505050565b6000806000606084860312156141eb57600080fd5b6141f4846140c4565b9250614202602085016140c4565b929592945050506040919091013590565b60006020828403121561422557600080fd5b610b81826140c4565b60006020828403121561424057600080fd5b5035919050565b634e487b7160e01b600052604160045260246000fd5b6000806001600160401b0384111561427757614277614247565b50604051601f19601f85018116603f011681018181106001600160401b03821117156142a5576142a5614247565b6040528381529050808284018510156142bd57600080fd5b83836020830137600060208583010152509392505050565b600082601f8301126142e657600080fd5b610b818383356020850161425d565b60008060006060848603121561430a57600080fd5b83356001600160401b0381111561432057600080fd5b61432c868287016142d5565b93505060208401356001600160401b0381111561434857600080fd5b614354868287016142d5565b92505060408401356001600160401b0381111561437057600080fd5b61437c868287016142d5565b9150509250925092565b6000806040838503121561439957600080fd5b6143a2836140c4565b915060208301356001600160401b038111156143bd57600080fd5b8301601f810185136143ce57600080fd5b6143dd8582356020840161425d565b9150509250929050565b6000602082016020835280845180835260408501915060408160051b86010192506020860160005b8281101561444057603f1987860301845261442b858351614085565b9450602093840193919091019060010161440f565b50929695505050505050565b60006020828403121561445e57600080fd5b81356001600160401b0381111561447457600080fd5b6132ff848285016142d5565b602081526001600160401b0382511660208201526000602083015160c060408401526144af60e0840182614085565b905060018060a01b0360408501511660608401526001600160401b0360608501511660808401526001600160401b0360808501511660a084015260a08401516144fb60c0850182614152565b509392505050565b60ff60f81b8816815260e06020820152600061452260e0830189614085565b82810360408401526145348189614085565b606084018890526001600160a01b038716608085015260a0840186905283810360c08501528451808252602080870193509091019060005b8181101561458a57835183526020938401939092019160010161456c565b50909b9a5050505050505050505050565b6020815260008251606060208401526145b76080840182614085565b90506020840151601f198483030160408501526145d48282614085565b604095909501516001600160a01b031660609490940193909352509192915050565b600060e0820190506001600160401b0383511682526001600160401b0360208401511660208301526001600160401b0360408401511660408301526001600160401b0360608401511660608301526001600160401b03608084015116608083015260a083015161467160a08401826001600160401b03169052565b5060c083015161468560c084018215159052565b5092915050565b60608152600061469f6060830186614085565b82810360208401526146b18186614085565b91505060018060a01b0383166040830152949350505050565b60ff81168114610c7c57600080fd5b600080600080600080600060e0888a0312156146f457600080fd5b6146fd886140c4565b965061470b602089016140c4565b955060408801359450606088013593506080880135614729816146ca565b9699959850939692959460a0840135945060c09093013592915050565b6000806040838503121561475957600080fd5b50508035926020909101359150565b6000806040838503121561477b57600080fd5b82356001600160401b0381111561479157600080fd5b61479d858286016142d5565b9250506147ac602084016140c4565b90509250929050565b600080604083850312156147c857600080fd5b6147d18361410a565b91506020830135600481106147e557600080fd5b809150509250929050565b6000806040838503121561480357600080fd5b61480c836140c4565b91506147ac602084016140c4565b602080825282518282018190526000918401906040840190835b8181101561485b5783516001600160401b0316835260209384019390920191600101614834565b509095945050505050565b600181811c9082168061487a57607f821691505b60208210810361266d57634e487b7160e01b600052602260045260246000fd5b6020808252602c908201527f46756e6374696f6e206d7573742062652063616c6c6564207468726f7567682060408201526b19195b1959d85d1958d85b1b60a21b606082015260800190565b6020808252602c908201527f46756e6374696f6e206d7573742062652063616c6c6564207468726f7567682060408201526b6163746976652070726f787960a01b606082015260800190565b634e487b7160e01b600052601160045260246000fd5b80820180821115610a7557610a75614932565b60006020828403121561496d57600080fd5b81518015158114610b8157600080fd5b6000825161498f818460208701614061565b9190910192915050565b601f821115610ee757806000526020600020601f840160051c810160208510156149c05750805b601f840160051c820191505b818110156149e057600081556001016149cc565b5050505050565b81516001600160401b03811115614a0057614a00614247565b614a1481614a0e8454614866565b84614999565b6020601f821160018114614a485760008315614a305750848201515b600019600385901b1c1916600184901b1784556149e0565b600084815260208120601f198516915b82811015614a785787850151825560209485019460019092019101614a58565b5084821015614a965786840151600019600387901b60f8161c191681555b50505050600190811b01905550565b606081526000614ab86060830186614085565b8281036020840152614aca8186614085565b90508281036040840152613fb98185614085565b8082028115828204841417610a7557610a75614932565b600082614b1257634e487b7160e01b600052601260045260246000fd5b500490565b600060208284031215614b2957600080fd5b8151610b81816146ca565b81810381811115610a7557610a75614932565b604081526000614b5a6040830185614085565b905060018060a01b03831660208301529392505050565b6001600160401b038316815260408101610b816020830184614152565b6000808354614b9c81614866565b600182168015614bb35760018114614bc857614bf8565b60ff1983168652811515820286019350614bf8565b86600052602060002060005b83811015614bf057815488820152600190910190602001614bd4565b505081860193505b509195945050505050565b60006001600160401b0382166001600160401b038103614c2557614c25614932565b60010192915050565b6001600160401b038281168282160390811115610a7557610a75614932565b634e487b7160e01b600052603260045260246000fd5b6001600160401b0385168152608060208201526000614c856080830186614085565b6001600160a01b03949094166040830152506001600160401b039190911660609091015292915050565b600060208284031215614cc157600080fd5b5051919050565b6020808252602b908201527f496e697469616c697a61626c653a20636f6e7472616374206973206e6f74206960408201526a6e697469616c697a696e6760a81b606082015260800190565b6001600160401b03818116838216029081169081811461468557614685614932565b6001600160401b038181168382160190811115610a7557610a7561493256fe360894a13ba1a3210667c828492db98dca3e2076cc3735a920a3ca505d382bbc416464726573733a206c6f772d6c6576656c2064656c65676174652063616c6c206661696c6564a2646970667358221220b277d3658f50ab3da236d134b07811d6b4461133d514137b24b4bbac7e95982764736f6c634300081e0033",
  "devdoc": {
    "details": "Child contract that inherits from OnePToken and implements the 1P Protocol",
    "events": {
      "AdminChanged(address,address)": {
        "details": "Emitted when the admin account has changed."
      },
      "Approval(address,address,uint256)": {
        "details": "Emitted when the allowance of a `spender` for an `owner` is set by a call to {approve}. `value` is the new allowance."
      },
      "BeaconUpgraded(address)": {
        "details": "Emitted when the beacon is changed."
      },
      "EIP712DomainChanged()": {
        "details": "MAY be emitted to signal that the domain could have changed."
      },
      "Initialized(uint8)": {
        "details": "Triggered when the contract has been initialized or reinitialized."
      },
      "Paused(address)": {
        "details": "Emitted when the pause is triggered by `account`."
      },
      "Transfer(address,address,uint256)": {
        "details": "Emitted when `value` tokens are moved from one account (`from`) to another (`to`). Note that `value` may be zero."
      },
      "Unpaused(address)": {
        "details": "Emitted when the pause is lifted by `account`."
      },
      "Upgraded(address)": {
        "details": "Emitted when the implementation is upgraded."
      }
    },
    "kind": "dev",
    "methods": {
      "DOMAIN_SEPARATOR()": {
        "details": "Returns the domain separator used in the encoding of the signature for {permit}, as defined by {EIP712}."
      },
      "allowance(address,address)": {
        "details": "See {IERC20-allowance}."
      },
      "approve(address,uint256)": {
        "details": "See {IERC20-approve}. NOTE: If `amount` is the maximum `uint256`, the allowance is not updated on `transferFrom`. This is semantically equivalent to an infinite approval. Requirements: - `spender` cannot be the zero address."
      },
      "attachAccount(string,address)": {
        "details": "Attach custodial account to username (Step 2 of 1P Protocol)",
        "params": {
          "account": "Custodial wallet address",
          "onePUser": "Username to attach account to"
        }
      },
      "balanceOf(address)": {
        "details": "See {IERC20-balanceOf}."
      },
      "burn(address,uint256)": {
        "details": "Burn tokens from account (only owner)"
      },
      "burn(uint256)": {
        "details": "Destroys `amount` tokens from the caller. See {ERC20-_burn}."
      },
      "burnFrom(address,uint256)": {
        "details": "Destroys `amount` tokens from `account`, deducting from the caller's allowance. See {ERC20-_burn} and {ERC20-allowance}. Requirements: - the caller must have allowance for ``accounts``'s tokens of at least `amount`."
      },
      "cap()": {
        "details": "Returns the cap on the token's total supply."
      },
      "constructor": {
        "custom:oz-upgrades-unsafe-allow": "constructor"
      },
      "decimals()": {
        "details": "Returns the number of decimals used to get its user representation. For example, if `decimals` equals `2`, a balance of `505` tokens should be displayed to a user as `5.05` (`505 / 10 ** 2`). Tokens usually opt for a value of 18, imitating the relationship between Ether and Wei. This is the default value returned by this function, unless it's overridden. NOTE: This information is only used for _display_ purposes: it in no way affects any of the arithmetic of the contract, including {IERC20-balanceOf} and {IERC20-transfer}."
      },
      "decreaseAllowance(address,uint256)": {
        "details": "Atomically decreases the allowance granted to `spender` by the caller. This is an alternative to {approve} that can be used as a mitigation for problems described in {IERC20-approve}. Emits an {Approval} event indicating the updated allowance. Requirements: - `spender` cannot be the zero address. - `spender` must have allowance for the caller of at least `subtractedValue`."
      },
      "eip712Domain()": {
        "details": "See {EIP-5267}. _Available since v4.9._"
      },
      "getAllAttemptIds()": {
        "details": "Get all attempt IDs"
      },
      "getAllUsernames()": {
        "details": "Get all registered usernames"
      },
      "getAttempt(uint64)": {
        "details": "Get attempt by ID"
      },
      "getAttemptFee(string)": {
        "details": "Calculate attempt fee based on user's difficulty level using mathematical bonding curve",
        "params": {
          "onePUser": "Username to get difficulty for"
        },
        "returns": {
          "attemptFee": "Fee for the attempt based on difficulty"
        }
      },
      "getUserProfile(string)": {
        "details": "Get user profile by username"
      },
      "getUserState(string)": {
        "details": "Get user state by username"
      },
      "increaseAllowance(address,uint256)": {
        "details": "Atomically increases the allowance granted to `spender` by the caller. This is an alternative to {approve} that can be used as a mitigation for problems described in {IERC20-approve}. Emits an {Approval} event indicating the updated allowance. Requirements: - `spender` cannot be the zero address."
      },
      "initialize(address)": {
        "details": "Initialize the OneP contract",
        "params": {
          "_verifier": "Address of the backend verifier"
        }
      },
      "initializeToken(uint256,uint256)": {
        "details": "Initialize the OnePToken contract",
        "params": {
          "_cap": "Maximum token supply cap",
          "_initialSupply": "Initial token supply to mint"
        }
      },
      "mint(address,uint256)": {
        "details": "Mint tokens (only owner)"
      },
      "name()": {
        "details": "Returns the name of the token."
      },
      "nonces(address)": {
        "details": "Returns the current nonce for `owner`. This value must be included whenever a signature is generated for {permit}. Every successful call to {permit} increases ``owner``'s nonce by one. This prevents a signature from being used multiple times."
      },
      "owner()": {
        "details": "Returns the address of the current owner."
      },
      "pause()": {
        "details": "Pause contract (only owner)"
      },
      "paused()": {
        "details": "Returns true if the contract is paused, and false otherwise."
      },
      "permit(address,address,uint256,uint256,uint8,bytes32,bytes32)": {
        "details": "Sets `value` as the allowance of `spender` over ``owner``'s tokens, given ``owner``'s signed approval. IMPORTANT: The same issues {IERC20-approve} has related to transaction ordering also apply here. Emits an {Approval} event. Requirements: - `spender` cannot be the zero address. - `deadline` must be a timestamp in the future. - `v`, `r` and `s` must be a valid `secp256k1` signature from `owner` over the EIP712-formatted function arguments. - the signature must use ``owner``'s current nonce (see {nonces}). For more information on the signature format, see the https://eips.ethereum.org/EIPS/eip-2612#specification[relevant EIP section]. CAUTION: See Security Considerations above."
      },
      "proxiableUUID()": {
        "details": "Implementation of the ERC1822 {proxiableUUID} function. This returns the storage slot used by the implementation. It is used to validate the implementation's compatibility when performing an upgrade. IMPORTANT: A proxy pointing at a proxiable contract should not be considered proxiable itself, because this risks bricking a proxy that upgrades to it, by delegating to itself until out of gas. Thus it is critical that this function revert if invoked through a proxy. This is guaranteed by the `notDelegated` modifier."
      },
      "register(string,string,string)": {
        "details": "Register a new username (Step 1 of 1P Protocol)",
        "params": {
          "img": "Profile image URL",
          "name": "Display name for the user",
          "onePUser": "Username to register (e.g., \"alice.1p\")"
        }
      },
      "renounceOwnership()": {
        "details": "Leaves the contract without owner. It will not be possible to call `onlyOwner` functions. Can only be called by the current owner. NOTE: Renouncing ownership will leave the contract without an owner, thereby disabling any functionality that is only available to the owner."
      },
      "requestAttempt(string)": {
        "details": "Request authentication attempt (Step 3 of 1P Protocol)",
        "params": {
          "onePUser": "Username requesting authentication"
        }
      },
      "symbol()": {
        "details": "Returns the symbol of the token, usually a shorter version of the name."
      },
      "totalSupply()": {
        "details": "See {IERC20-totalSupply}."
      },
      "transfer(address,uint256)": {
        "details": "See {IERC20-transfer}. Requirements: - `to` cannot be the zero address. - the caller must have a balance of at least `amount`."
      },
      "transferFrom(address,address,uint256)": {
        "details": "See {IERC20-transferFrom}. Emits an {Approval} event indicating the updated allowance. This is not required by the EIP. See the note at the beginning of {ERC20}. NOTE: Does not update the allowance if the current allowance is the maximum `uint256`. Requirements: - `from` and `to` cannot be the zero address. - `from` must have a balance of at least `amount`. - the caller must have allowance for ``from``'s tokens of at least `amount`."
      },
      "transferOwnership(address)": {
        "details": "Transfers ownership of the contract to a new account (`newOwner`). Can only be called by the current owner."
      },
      "unpause()": {
        "details": "Unpause contract (only owner)"
      },
      "updateAttemptStatus(uint64,uint8)": {
        "details": "Update attempt status with progressive validation (only verifier)",
        "params": {
          "attemptId": "ID of the attempt to update",
          "newStatus": "New status (must be greater than current status)"
        }
      },
      "updateVerifier(address)": {
        "details": "Update verifier address (only owner)"
      },
      "upgradeTo(address)": {
        "custom:oz-upgrades-unsafe-allow-reachable": "delegatecall",
        "details": "Upgrade the implementation of the proxy to `newImplementation`. Calls {_authorizeUpgrade}. Emits an {Upgraded} event."
      },
      "upgradeToAndCall(address,bytes)": {
        "custom:oz-upgrades-unsafe-allow-reachable": "delegatecall",
        "details": "Upgrade the implementation of the proxy to `newImplementation`, and subsequently execute the function call encoded in `data`. Calls {_authorizeUpgrade}. Emits an {Upgraded} event."
      },
      "usernameExists(string)": {
        "details": "Check if username exists"
      }
    },
    "title": "OneP",
    "version": 1
  },
  "userdoc": {
    "kind": "user",
    "methods": {},
    "notice": "This contract adds quantum-resistant authentication functionality to the base token Architecture: - Inherits from OnePToken for ERC20 functionality and token economics - Uses OnePProtocol library for authentication logic - Maintains separation of concerns: token logic in parent, protocol logic here",
    "version": 1
  },
  "storageLayout": {
    "storage": [
      {
        "astId": 530,
        "contract": "contracts/1p/OneP.sol:OneP",
        "label": "_initialized",
        "offset": 0,
        "slot": "0",
        "type": "t_uint8"
      },
      {
        "astId": 533,
        "contract": "contracts/1p/OneP.sol:OneP",
        "label": "_initializing",
        "offset": 1,
        "slot": "0",
        "type": "t_bool"
      },
      {
        "astId": 2580,
        "contract": "contracts/1p/OneP.sol:OneP",
        "label": "__gap",
        "offset": 0,
        "slot": "1",
        "type": "t_array(t_uint256)50_storage"
      },
      {
        "astId": 1062,
        "contract": "contracts/1p/OneP.sol:OneP",
        "label": "_balances",
        "offset": 0,
        "slot": "51",
        "type": "t_mapping(t_address,t_uint256)"
      },
      {
        "astId": 1068,
        "contract": "contracts/1p/OneP.sol:OneP",
        "label": "_allowances",
        "offset": 0,
        "slot": "52",
        "type": "t_mapping(t_address,t_mapping(t_address,t_uint256))"
      },
      {
        "astId": 1070,
        "contract": "contracts/1p/OneP.sol:OneP",
        "label": "_totalSupply",
        "offset": 0,
        "slot": "53",
        "type": "t_uint256"
      },
      {
        "astId": 1072,
        "contract": "contracts/1p/OneP.sol:OneP",
        "label": "_name",
        "offset": 0,
        "slot": "54",
        "type": "t_string_storage"
      },
      {
        "astId": 1074,
        "contract": "contracts/1p/OneP.sol:OneP",
        "label": "_symbol",
        "offset": 0,
        "slot": "55",
        "type": "t_string_storage"
      },
      {
        "astId": 1654,
        "contract": "contracts/1p/OneP.sol:OneP",
        "label": "__gap",
        "offset": 0,
        "slot": "56",
        "type": "t_array(t_uint256)45_storage"
      },
      {
        "astId": 3379,
        "contract": "contracts/1p/OneP.sol:OneP",
        "label": "_hashedName",
        "offset": 0,
        "slot": "101",
        "type": "t_bytes32"
      },
      {
        "astId": 3382,
        "contract": "contracts/1p/OneP.sol:OneP",
        "label": "_hashedVersion",
        "offset": 0,
        "slot": "102",
        "type": "t_bytes32"
      },
      {
        "astId": 3384,
        "contract": "contracts/1p/OneP.sol:OneP",
        "label": "_name",
        "offset": 0,
        "slot": "103",
        "type": "t_string_storage"
      },
      {
        "astId": 3386,
        "contract": "contracts/1p/OneP.sol:OneP",
        "label": "_version",
        "offset": 0,
        "slot": "104",
        "type": "t_string_storage"
      },
      {
        "astId": 3644,
        "contract": "contracts/1p/OneP.sol:OneP",
        "label": "__gap",
        "offset": 0,
        "slot": "105",
        "type": "t_array(t_uint256)48_storage"
      },
      {
        "astId": 1974,
        "contract": "contracts/1p/OneP.sol:OneP",
        "label": "_nonces",
        "offset": 0,
        "slot": "153",
        "type": "t_mapping(t_address,t_struct(Counter)2587_storage)"
      },
      {
        "astId": 1982,
        "contract": "contracts/1p/OneP.sol:OneP",
        "label": "_PERMIT_TYPEHASH_DEPRECATED_SLOT",
        "offset": 0,
        "slot": "154",
        "type": "t_bytes32"
      },
      {
        "astId": 2138,
        "contract": "contracts/1p/OneP.sol:OneP",
        "label": "__gap",
        "offset": 0,
        "slot": "155",
        "type": "t_array(t_uint256)49_storage"
      },
      {
        "astId": 851,
        "contract": "contracts/1p/OneP.sol:OneP",
        "label": "_paused",
        "offset": 0,
        "slot": "204",
        "type": "t_bool"
      },
      {
        "astId": 956,
        "contract": "contracts/1p/OneP.sol:OneP",
        "label": "__gap",
        "offset": 0,
        "slot": "205",
        "type": "t_array(t_uint256)49_storage"
      },
      {
        "astId": 1946,
        "contract": "contracts/1p/OneP.sol:OneP",
        "label": "__gap",
        "offset": 0,
        "slot": "254",
        "type": "t_array(t_uint256)50_storage"
      },
      {
        "astId": 1810,
        "contract": "contracts/1p/OneP.sol:OneP",
        "label": "_cap",
        "offset": 0,
        "slot": "304",
        "type": "t_uint256"
      },
      {
        "astId": 1885,
        "contract": "contracts/1p/OneP.sol:OneP",
        "label": "__gap",
        "offset": 0,
        "slot": "305",
        "type": "t_array(t_uint256)50_storage"
      },
      {
        "astId": 1797,
        "contract": "contracts/1p/OneP.sol:OneP",
        "label": "__gap",
        "offset": 0,
        "slot": "355",
        "type": "t_array(t_uint256)50_storage"
      },
      {
        "astId": 11,
        "contract": "contracts/1p/OneP.sol:OneP",
        "label": "_owner",
        "offset": 0,
        "slot": "405",
        "type": "t_address"
      },
      {
        "astId": 131,
        "contract": "contracts/1p/OneP.sol:OneP",
        "label": "__gap",
        "offset": 0,
        "slot": "406",
        "type": "t_array(t_uint256)49_storage"
      },
      {
        "astId": 972,
        "contract": "contracts/1p/OneP.sol:OneP",
        "label": "_status",
        "offset": 0,
        "slot": "455",
        "type": "t_uint256"
      },
      {
        "astId": 1041,
        "contract": "contracts/1p/OneP.sol:OneP",
        "label": "__gap",
        "offset": 0,
        "slot": "456",
        "type": "t_array(t_uint256)49_storage"
      },
      {
        "astId": 512,
        "contract": "contracts/1p/OneP.sol:OneP",
        "label": "__gap",
        "offset": 0,
        "slot": "505",
        "type": "t_array(t_uint256)50_storage"
      },
      {
        "astId": 828,
        "contract": "contracts/1p/OneP.sol:OneP",
        "label": "__gap",
        "offset": 0,
        "slot": "555",
        "type": "t_array(t_uint256)50_storage"
      },
      {
        "astId": 5246,
        "contract": "contracts/1p/OneP.sol:OneP",
        "label": "usernameRegistry",
        "offset": 0,
        "slot": "605",
        "type": "t_mapping(t_string_memory_ptr,t_struct(UserProfile)6137_storage)"
      },
      {
        "astId": 5251,
        "contract": "contracts/1p/OneP.sol:OneP",
        "label": "userStateRegistry",
        "offset": 0,
        "slot": "606",
        "type": "t_mapping(t_string_memory_ptr,t_struct(UserState)6152_storage)"
      },
      {
        "astId": 5256,
        "contract": "contracts/1p/OneP.sol:OneP",
        "label": "attemptRegistry",
        "offset": 0,
        "slot": "607",
        "type": "t_mapping(t_uint64,t_struct(Attempt)6166_storage)"
      },
      {
        "astId": 5259,
        "contract": "contracts/1p/OneP.sol:OneP",
        "label": "allUsernames",
        "offset": 0,
        "slot": "608",
        "type": "t_struct(Bytes32Set)4821_storage"
      },
      {
        "astId": 5262,
        "contract": "contracts/1p/OneP.sol:OneP",
        "label": "allUsernamesArray",
        "offset": 0,
        "slot": "610",
        "type": "t_array(t_string_storage)dyn_storage"
      },
      {
        "astId": 5264,
        "contract": "contracts/1p/OneP.sol:OneP",
        "label": "nextAttemptId",
        "offset": 0,
        "slot": "611",
        "type": "t_uint64"
      },
      {
        "astId": 5266,
        "contract": "contracts/1p/OneP.sol:OneP",
        "label": "verifier",
        "offset": 8,
        "slot": "611",
        "type": "t_address"
      }
    ],
    "types": {
      "t_address": {
        "encoding": "inplace",
        "label": "address",
        "numberOfBytes": "20"
      },
      "t_array(t_bytes32)dyn_storage": {
        "base": "t_bytes32",
        "encoding": "dynamic_array",
        "label": "bytes32[]",
        "numberOfBytes": "32"
      },
      "t_array(t_string_storage)dyn_storage": {
        "base": "t_string_storage",
        "encoding": "dynamic_array",
        "label": "string[]",
        "numberOfBytes": "32"
      },
      "t_array(t_uint256)45_storage": {
        "base": "t_uint256",
        "encoding": "inplace",
        "label": "uint256[45]",
        "numberOfBytes": "1440"
      },
      "t_array(t_uint256)48_storage": {
        "base": "t_uint256",
        "encoding": "inplace",
        "label": "uint256[48]",
        "numberOfBytes": "1536"
      },
      "t_array(t_uint256)49_storage": {
        "base": "t_uint256",
        "encoding": "inplace",
        "label": "uint256[49]",
        "numberOfBytes": "1568"
      },
      "t_array(t_uint256)50_storage": {
        "base": "t_uint256",
        "encoding": "inplace",
        "label": "uint256[50]",
        "numberOfBytes": "1600"
      },
      "t_bool": {
        "encoding": "inplace",
        "label": "bool",
        "numberOfBytes": "1"
      },
      "t_bytes32": {
        "encoding": "inplace",
        "label": "bytes32",
        "numberOfBytes": "32"
      },
      "t_enum(Status)6130": {
        "encoding": "inplace",
        "label": "enum OnePProtocol.Status",
        "numberOfBytes": "1"
      },
      "t_mapping(t_address,t_mapping(t_address,t_uint256))": {
        "encoding": "mapping",
        "key": "t_address",
        "label": "mapping(address => mapping(address => uint256))",
        "numberOfBytes": "32",
        "value": "t_mapping(t_address,t_uint256)"
      },
      "t_mapping(t_address,t_struct(Counter)2587_storage)": {
        "encoding": "mapping",
        "key": "t_address",
        "label": "mapping(address => struct CountersUpgradeable.Counter)",
        "numberOfBytes": "32",
        "value": "t_struct(Counter)2587_storage"
      },
      "t_mapping(t_address,t_uint256)": {
        "encoding": "mapping",
        "key": "t_address",
        "label": "mapping(address => uint256)",
        "numberOfBytes": "32",
        "value": "t_uint256"
      },
      "t_mapping(t_bytes32,t_uint256)": {
        "encoding": "mapping",
        "key": "t_bytes32",
        "label": "mapping(bytes32 => uint256)",
        "numberOfBytes": "32",
        "value": "t_uint256"
      },
      "t_mapping(t_string_memory_ptr,t_struct(UserProfile)6137_storage)": {
        "encoding": "mapping",
        "key": "t_string_memory_ptr",
        "label": "mapping(string => struct OnePProtocol.UserProfile)",
        "numberOfBytes": "32",
        "value": "t_struct(UserProfile)6137_storage"
      },
      "t_mapping(t_string_memory_ptr,t_struct(UserState)6152_storage)": {
        "encoding": "mapping",
        "key": "t_string_memory_ptr",
        "label": "mapping(string => struct OnePProtocol.UserState)",
        "numberOfBytes": "32",
        "value": "t_struct(UserState)6152_storage"
      },
      "t_mapping(t_uint64,t_struct(Attempt)6166_storage)": {
        "encoding": "mapping",
        "key": "t_uint64",
        "label": "mapping(uint64 => struct OnePProtocol.Attempt)",
        "numberOfBytes": "32",
        "value": "t_struct(Attempt)6166_storage"
      },
      "t_string_memory_ptr": {
        "encoding": "bytes",
        "label": "string",
        "numberOfBytes": "32"
      },
      "t_string_storage": {
        "encoding": "bytes",
        "label": "string",
        "numberOfBytes": "32"
      },
      "t_struct(Attempt)6166_storage": {
        "encoding": "inplace",
        "label": "struct OnePProtocol.Attempt",
        "members": [
          {
            "astId": 6154,
            "contract": "contracts/1p/OneP.sol:OneP",
            "label": "id",
            "offset": 0,
            "slot": "0",
            "type": "t_uint64"
          },
          {
            "astId": 6156,
            "contract": "contracts/1p/OneP.sol:OneP",
            "label": "onePUser",
            "offset": 0,
            "slot": "1",
            "type": "t_string_storage"
          },
          {
            "astId": 6158,
            "contract": "contracts/1p/OneP.sol:OneP",
            "label": "hotWallet",
            "offset": 0,
            "slot": "2",
            "type": "t_address"
          },
          {
            "astId": 6160,
            "contract": "contracts/1p/OneP.sol:OneP",
            "label": "expiresAt",
            "offset": 20,
            "slot": "2",
            "type": "t_uint64"
          },
          {
            "astId": 6162,
            "contract": "contracts/1p/OneP.sol:OneP",
            "label": "difficulty",
            "offset": 0,
            "slot": "3",
            "type": "t_uint64"
          },
          {
            "astId": 6165,
            "contract": "contracts/1p/OneP.sol:OneP",
            "label": "status",
            "offset": 8,
            "slot": "3",
            "type": "t_enum(Status)6130"
          }
        ],
        "numberOfBytes": "128"
      },
      "t_struct(Bytes32Set)4821_storage": {
        "encoding": "inplace",
        "label": "struct EnumerableSet.Bytes32Set",
        "members": [
          {
            "astId": 4820,
            "contract": "contracts/1p/OneP.sol:OneP",
            "label": "_inner",
            "offset": 0,
            "slot": "0",
            "type": "t_struct(Set)4627_storage"
          }
        ],
        "numberOfBytes": "64"
      },
      "t_struct(Counter)2587_storage": {
        "encoding": "inplace",
        "label": "struct CountersUpgradeable.Counter",
        "members": [
          {
            "astId": 2586,
            "contract": "contracts/1p/OneP.sol:OneP",
            "label": "_value",
            "offset": 0,
            "slot": "0",
            "type": "t_uint256"
          }
        ],
        "numberOfBytes": "32"
      },
      "t_struct(Set)4627_storage": {
        "encoding": "inplace",
        "label": "struct EnumerableSet.Set",
        "members": [
          {
            "astId": 4622,
            "contract": "contracts/1p/OneP.sol:OneP",
            "label": "_values",
            "offset": 0,
            "slot": "0",
            "type": "t_array(t_bytes32)dyn_storage"
          },
          {
            "astId": 4626,
            "contract": "contracts/1p/OneP.sol:OneP",
            "label": "_indexes",
            "offset": 0,
            "slot": "1",
            "type": "t_mapping(t_bytes32,t_uint256)"
          }
        ],
        "numberOfBytes": "64"
      },
      "t_struct(UserProfile)6137_storage": {
        "encoding": "inplace",
        "label": "struct OnePProtocol.UserProfile",
        "members": [
          {
            "astId": 6132,
            "contract": "contracts/1p/OneP.sol:OneP",
            "label": "name",
            "offset": 0,
            "slot": "0",
            "type": "t_string_storage"
          },
          {
            "astId": 6134,
            "contract": "contracts/1p/OneP.sol:OneP",
            "label": "img",
            "offset": 0,
            "slot": "1",
            "type": "t_string_storage"
          },
          {
            "astId": 6136,
            "contract": "contracts/1p/OneP.sol:OneP",
            "label": "account",
            "offset": 0,
            "slot": "2",
            "type": "t_address"
          }
        ],
        "numberOfBytes": "96"
      },
      "t_struct(UserState)6152_storage": {
        "encoding": "inplace",
        "label": "struct OnePProtocol.UserState",
        "members": [
          {
            "astId": 6139,
            "contract": "contracts/1p/OneP.sol:OneP",
            "label": "totalAttempts",
            "offset": 0,
            "slot": "0",
            "type": "t_uint64"
          },
          {
            "astId": 6141,
            "contract": "contracts/1p/OneP.sol:OneP",
            "label": "successCount",
            "offset": 8,
            "slot": "0",
            "type": "t_uint64"
          },
          {
            "astId": 6143,
            "contract": "contracts/1p/OneP.sol:OneP",
            "label": "failureCount",
            "offset": 16,
            "slot": "0",
            "type": "t_uint64"
          },
          {
            "astId": 6145,
            "contract": "contracts/1p/OneP.sol:OneP",
            "label": "firstFailureTs",
            "offset": 24,
            "slot": "0",
            "type": "t_uint64"
          },
          {
            "astId": 6147,
            "contract": "contracts/1p/OneP.sol:OneP",
            "label": "lastFailureTs",
            "offset": 0,
            "slot": "1",
            "type": "t_uint64"
          },
          {
            "astId": 6149,
            "contract": "contracts/1p/OneP.sol:OneP",
            "label": "d",
            "offset": 8,
            "slot": "1",
            "type": "t_uint64"
          },
          {
            "astId": 6151,
            "contract": "contracts/1p/OneP.sol:OneP",
            "label": "highAbuse",
            "offset": 16,
            "slot": "1",
            "type": "t_bool"
          }
        ],
        "numberOfBytes": "64"
      },
      "t_uint256": {
        "encoding": "inplace",
        "label": "uint256",
        "numberOfBytes": "32"
      },
      "t_uint64": {
        "encoding": "inplace",
        "label": "uint64",
        "numberOfBytes": "8"
      },
      "t_uint8": {
        "encoding": "inplace",
        "label": "uint8",
        "numberOfBytes": "1"
      }
    }
  }
}