{
  "address": "0xBA12100D1ffAFAaB8240012EEE03808a9a88ECA8",
  "abi": [
    {
      "inputs": [],
      "stateMutability": "nonpayable",
      "type": "constructor"
    },
    {
      "anonymous": false,
      "inputs": [
        {
          "indexed": false,
          "internalType": "string",
          "name": "onePUser",
          "type": "string"
        },
        {
          "indexed": false,
          "internalType": "address",
          "name": "account",
          "type": "address"
        }
      ],
      "name": "AccountAttached",
      "type": "event"
    },
    {
      "anonymous": false,
      "inputs": [
        {
          "indexed": false,
          "internalType": "address",
          "name": "previousAdmin",
          "type": "address"
        },
        {
          "indexed": false,
          "internalType": "address",
          "name": "newAdmin",
          "type": "address"
        }
      ],
      "name": "AdminChanged",
      "type": "event"
    },
    {
      "anonymous": false,
      "inputs": [
        {
          "indexed": true,
          "internalType": "address",
          "name": "owner",
          "type": "address"
        },
        {
          "indexed": true,
          "internalType": "address",
          "name": "spender",
          "type": "address"
        },
        {
          "indexed": false,
          "internalType": "uint256",
          "name": "value",
          "type": "uint256"
        }
      ],
      "name": "Approval",
      "type": "event"
    },
    {
      "anonymous": false,
      "inputs": [
        {
          "indexed": false,
          "internalType": "uint64",
          "name": "id",
          "type": "uint64"
        },
        {
          "indexed": false,
          "internalType": "string",
          "name": "onePUser",
          "type": "string"
        },
        {
          "indexed": false,
          "internalType": "address",
          "name": "hotWallet",
          "type": "address"
        },
        {
          "indexed": false,
          "internalType": "uint64",
          "name": "difficulty",
          "type": "uint64"
        }
      ],
      "name": "AttemptCreated",
      "type": "event"
    },
    {
      "anonymous": false,
      "inputs": [
        {
          "indexed": false,
          "internalType": "uint64",
          "name": "id",
          "type": "uint64"
        },
        {
          "indexed": false,
          "internalType": "enum OnePProtocol.Status",
          "name": "newStatus",
          "type": "uint8"
        }
      ],
      "name": "AttemptUpdated",
      "type": "event"
    },
    {
      "anonymous": false,
      "inputs": [
        {
          "indexed": true,
          "internalType": "address",
          "name": "beacon",
          "type": "address"
        }
      ],
      "name": "BeaconUpgraded",
      "type": "event"
    },
    {
      "anonymous": false,
      "inputs": [],
      "name": "EIP712DomainChanged",
      "type": "event"
    },
    {
      "anonymous": false,
      "inputs": [
        {
          "indexed": false,
          "internalType": "uint8",
          "name": "version",
          "type": "uint8"
        }
      ],
      "name": "Initialized",
      "type": "event"
    },
    {
      "anonymous": false,
      "inputs": [
        {
          "indexed": true,
          "internalType": "address",
          "name": "previousOwner",
          "type": "address"
        },
        {
          "indexed": true,
          "internalType": "address",
          "name": "newOwner",
          "type": "address"
        }
      ],
      "name": "OwnershipTransferred",
      "type": "event"
    },
    {
      "anonymous": false,
      "inputs": [
        {
          "indexed": false,
          "internalType": "address",
          "name": "account",
          "type": "address"
        }
      ],
      "name": "Paused",
      "type": "event"
    },
    {
      "anonymous": false,
      "inputs": [
        {
          "indexed": true,
          "internalType": "address",
          "name": "from",
          "type": "address"
        },
        {
          "indexed": true,
          "internalType": "address",
          "name": "to",
          "type": "address"
        },
        {
          "indexed": false,
          "internalType": "uint256",
          "name": "value",
          "type": "uint256"
        }
      ],
      "name": "Transfer",
      "type": "event"
    },
    {
      "anonymous": false,
      "inputs": [
        {
          "indexed": false,
          "internalType": "address",
          "name": "account",
          "type": "address"
        }
      ],
      "name": "Unpaused",
      "type": "event"
    },
    {
      "anonymous": false,
      "inputs": [
        {
          "indexed": true,
          "internalType": "address",
          "name": "implementation",
          "type": "address"
        }
      ],
      "name": "Upgraded",
      "type": "event"
    },
    {
      "anonymous": false,
      "inputs": [
        {
          "indexed": false,
          "internalType": "string",
          "name": "onePUser",
          "type": "string"
        },
        {
          "indexed": false,
          "internalType": "string",
          "name": "name",
          "type": "string"
        },
        {
          "indexed": false,
          "internalType": "string",
          "name": "img",
          "type": "string"
        }
      ],
      "name": "UsernameRegistered",
      "type": "event"
    },
    {
      "inputs": [],
      "name": "DOMAIN_SEPARATOR",
      "outputs": [
        {
          "internalType": "bytes32",
          "name": "",
          "type": "bytes32"
        }
      ],
      "stateMutability": "view",
      "type": "function"
    },
    {
      "inputs": [
        {
          "internalType": "uint256",
          "name": "",
          "type": "uint256"
        }
      ],
      "name": "allUsernamesArray",
      "outputs": [
        {
          "internalType": "string",
          "name": "",
          "type": "string"
        }
      ],
      "stateMutability": "view",
      "type": "function"
    },
    {
      "inputs": [
        {
          "internalType": "address",
          "name": "owner",
          "type": "address"
        },
        {
          "internalType": "address",
          "name": "spender",
          "type": "address"
        }
      ],
      "name": "allowance",
      "outputs": [
        {
          "internalType": "uint256",
          "name": "",
          "type": "uint256"
        }
      ],
      "stateMutability": "view",
      "type": "function"
    },
    {
      "inputs": [
        {
          "internalType": "address",
          "name": "spender",
          "type": "address"
        },
        {
          "internalType": "uint256",
          "name": "amount",
          "type": "uint256"
        }
      ],
      "name": "approve",
      "outputs": [
        {
          "internalType": "bool",
          "name": "",
          "type": "bool"
        }
      ],
      "stateMutability": "nonpayable",
      "type": "function"
    },
    {
      "inputs": [
        {
          "internalType": "string",
          "name": "onePUser",
          "type": "string"
        },
        {
          "internalType": "address",
          "name": "account",
          "type": "address"
        }
      ],
      "name": "attachAccount",
      "outputs": [],
      "stateMutability": "nonpayable",
      "type": "function"
    },
    {
      "inputs": [
        {
          "internalType": "uint64",
          "name": "",
          "type": "uint64"
        }
      ],
      "name": "attemptRegistry",
      "outputs": [
        {
          "internalType": "uint64",
          "name": "id",
          "type": "uint64"
        },
        {
          "internalType": "string",
          "name": "onePUser",
          "type": "string"
        },
        {
          "internalType": "address",
          "name": "hotWallet",
          "type": "address"
        },
        {
          "internalType": "uint64",
          "name": "expiresAt",
          "type": "uint64"
        },
        {
          "internalType": "uint64",
          "name": "difficulty",
          "type": "uint64"
        },
        {
          "internalType": "enum OnePProtocol.Status",
          "name": "status",
          "type": "uint8"
        }
      ],
      "stateMutability": "view",
      "type": "function"
    },
    {
      "inputs": [
        {
          "internalType": "address",
          "name": "account",
          "type": "address"
        }
      ],
      "name": "balanceOf",
      "outputs": [
        {
          "internalType": "uint256",
          "name": "",
          "type": "uint256"
        }
      ],
      "stateMutability": "view",
      "type": "function"
    },
    {
      "inputs": [
        {
          "internalType": "uint256",
          "name": "amount",
          "type": "uint256"
        }
      ],
      "name": "burn",
      "outputs": [],
      "stateMutability": "nonpayable",
      "type": "function"
    },
    {
      "inputs": [
        {
          "internalType": "address",
          "name": "from",
          "type": "address"
        },
        {
          "internalType": "uint256",
          "name": "amount",
          "type": "uint256"
        }
      ],
      "name": "burn",
      "outputs": [],
      "stateMutability": "nonpayable",
      "type": "function"
    },
    {
      "inputs": [
        {
          "internalType": "address",
          "name": "account",
          "type": "address"
        },
        {
          "internalType": "uint256",
          "name": "amount",
          "type": "uint256"
        }
      ],
      "name": "burnFrom",
      "outputs": [],
      "stateMutability": "nonpayable",
      "type": "function"
    },
    {
      "inputs": [],
      "name": "cap",
      "outputs": [
        {
          "internalType": "uint256",
          "name": "",
          "type": "uint256"
        }
      ],
      "stateMutability": "view",
      "type": "function"
    },
    {
      "inputs": [],
      "name": "decimals",
      "outputs": [
        {
          "internalType": "uint8",
          "name": "",
          "type": "uint8"
        }
      ],
      "stateMutability": "view",
      "type": "function"
    },
    {
      "inputs": [
        {
          "internalType": "address",
          "name": "spender",
          "type": "address"
        },
        {
          "internalType": "uint256",
          "name": "subtractedValue",
          "type": "uint256"
        }
      ],
      "name": "decreaseAllowance",
      "outputs": [
        {
          "internalType": "bool",
          "name": "",
          "type": "bool"
        }
      ],
      "stateMutability": "nonpayable",
      "type": "function"
    },
    {
      "inputs": [],
      "name": "eip712Domain",
      "outputs": [
        {
          "internalType": "bytes1",
          "name": "fields",
          "type": "bytes1"
        },
        {
          "internalType": "string",
          "name": "name",
          "type": "string"
        },
        {
          "internalType": "string",
          "name": "version",
          "type": "string"
        },
        {
          "internalType": "uint256",
          "name": "chainId",
          "type": "uint256"
        },
        {
          "internalType": "address",
          "name": "verifyingContract",
          "type": "address"
        },
        {
          "internalType": "bytes32",
          "name": "salt",
          "type": "bytes32"
        },
        {
          "internalType": "uint256[]",
          "name": "extensions",
          "type": "uint256[]"
        }
      ],
      "stateMutability": "view",
      "type": "function"
    },
    {
      "inputs": [],
      "name": "getAllAttemptIds",
      "outputs": [
        {
          "internalType": "uint64[]",
          "name": "",
          "type": "uint64[]"
        }
      ],
      "stateMutability": "view",
      "type": "function"
    },
    {
      "inputs": [],
      "name": "getAllUsernames",
      "outputs": [
        {
          "internalType": "string[]",
          "name": "",
          "type": "string[]"
        }
      ],
      "stateMutability": "view",
      "type": "function"
    },
    {
      "inputs": [
        {
          "internalType": "uint64",
          "name": "attemptId",
          "type": "uint64"
        }
      ],
      "name": "getAttempt",
      "outputs": [
        {
          "components": [
            {
              "internalType": "uint64",
              "name": "id",
              "type": "uint64"
            },
            {
              "internalType": "string",
              "name": "onePUser",
              "type": "string"
            },
            {
              "internalType": "address",
              "name": "hotWallet",
              "type": "address"
            },
            {
              "internalType": "uint64",
              "name": "expiresAt",
              "type": "uint64"
            },
            {
              "internalType": "uint64",
              "name": "difficulty",
              "type": "uint64"
            },
            {
              "internalType": "enum OnePProtocol.Status",
              "name": "status",
              "type": "uint8"
            }
          ],
          "internalType": "struct OnePProtocol.Attempt",
          "name": "",
          "type": "tuple"
        }
      ],
      "stateMutability": "view",
      "type": "function"
    },
    {
      "inputs": [
        {
          "internalType": "string",
          "name": "onePUser",
          "type": "string"
        }
      ],
      "name": "getAttemptFee",
      "outputs": [
        {
          "internalType": "uint256",
          "name": "attemptFee",
          "type": "uint256"
        }
      ],
      "stateMutability": "view",
      "type": "function"
    },
    {
      "inputs": [
        {
          "internalType": "string",
          "name": "onePUser",
          "type": "string"
        }
      ],
      "name": "getUserProfile",
      "outputs": [
        {
          "components": [
            {
              "internalType": "string",
              "name": "name",
              "type": "string"
            },
            {
              "internalType": "string",
              "name": "img",
              "type": "string"
            },
            {
              "internalType": "address",
              "name": "account",
              "type": "address"
            }
          ],
          "internalType": "struct OnePProtocol.UserProfile",
          "name": "",
          "type": "tuple"
        }
      ],
      "stateMutability": "view",
      "type": "function"
    },
    {
      "inputs": [
        {
          "internalType": "string",
          "name": "onePUser",
          "type": "string"
        }
      ],
      "name": "getUserState",
      "outputs": [
        {
          "components": [
            {
              "internalType": "uint64",
              "name": "totalAttempts",
              "type": "uint64"
            },
            {
              "internalType": "uint64",
              "name": "successCount",
              "type": "uint64"
            },
            {
              "internalType": "uint64",
              "name": "failureCount",
              "type": "uint64"
            },
            {
              "internalType": "uint64",
              "name": "firstFailureTs",
              "type": "uint64"
            },
            {
              "internalType": "uint64",
              "name": "lastFailureTs",
              "type": "uint64"
            },
            {
              "internalType": "uint64",
              "name": "d",
              "type": "uint64"
            },
            {
              "internalType": "bool",
              "name": "highAbuse",
              "type": "bool"
            }
          ],
          "internalType": "struct OnePProtocol.UserState",
          "name": "",
          "type": "tuple"
        }
      ],
      "stateMutability": "view",
      "type": "function"
    },
    {
      "inputs": [
        {
          "internalType": "address",
          "name": "spender",
          "type": "address"
        },
        {
          "internalType": "uint256",
          "name": "addedValue",
          "type": "uint256"
        }
      ],
      "name": "increaseAllowance",
      "outputs": [
        {
          "internalType": "bool",
          "name": "",
          "type": "bool"
        }
      ],
      "stateMutability": "nonpayable",
      "type": "function"
    },
    {
      "inputs": [
        {
          "internalType": "address",
          "name": "_verifier",
          "type": "address"
        }
      ],
      "name": "initialize",
      "outputs": [],
      "stateMutability": "nonpayable",
      "type": "function"
    },
    {
      "inputs": [
        {
          "internalType": "uint256",
          "name": "_initialSupply",
          "type": "uint256"
        },
        {
          "internalType": "uint256",
          "name": "_cap",
          "type": "uint256"
        }
      ],
      "name": "initializeToken",
      "outputs": [],
      "stateMutability": "nonpayable",
      "type": "function"
    },
    {
      "inputs": [
        {
          "internalType": "address",
          "name": "to",
          "type": "address"
        },
        {
          "internalType": "uint256",
          "name": "amount",
          "type": "uint256"
        }
      ],
      "name": "mint",
      "outputs": [],
      "stateMutability": "nonpayable",
      "type": "function"
    },
    {
      "inputs": [],
      "name": "name",
      "outputs": [
        {
          "internalType": "string",
          "name": "",
          "type": "string"
        }
      ],
      "stateMutability": "view",
      "type": "function"
    },
    {
      "inputs": [],
      "name": "nextAttemptId",
      "outputs": [
        {
          "internalType": "uint64",
          "name": "",
          "type": "uint64"
        }
      ],
      "stateMutability": "view",
      "type": "function"
    },
    {
      "inputs": [
        {
          "internalType": "address",
          "name": "owner",
          "type": "address"
        }
      ],
      "name": "nonces",
      "outputs": [
        {
          "internalType": "uint256",
          "name": "",
          "type": "uint256"
        }
      ],
      "stateMutability": "view",
      "type": "function"
    },
    {
      "inputs": [],
      "name": "owner",
      "outputs": [
        {
          "internalType": "address",
          "name": "",
          "type": "address"
        }
      ],
      "stateMutability": "view",
      "type": "function"
    },
    {
      "inputs": [],
      "name": "pause",
      "outputs": [],
      "stateMutability": "nonpayable",
      "type": "function"
    },
    {
      "inputs": [],
      "name": "paused",
      "outputs": [
        {
          "internalType": "bool",
          "name": "",
          "type": "bool"
        }
      ],
      "stateMutability": "view",
      "type": "function"
    },
    {
      "inputs": [
        {
          "internalType": "address",
          "name": "owner",
          "type": "address"
        },
        {
          "internalType": "address",
          "name": "spender",
          "type": "address"
        },
        {
          "internalType": "uint256",
          "name": "value",
          "type": "uint256"
        },
        {
          "internalType": "uint256",
          "name": "deadline",
          "type": "uint256"
        },
        {
          "internalType": "uint8",
          "name": "v",
          "type": "uint8"
        },
        {
          "internalType": "bytes32",
          "name": "r",
          "type": "bytes32"
        },
        {
          "internalType": "bytes32",
          "name": "s",
          "type": "bytes32"
        }
      ],
      "name": "permit",
      "outputs": [],
      "stateMutability": "nonpayable",
      "type": "function"
    },
    {
      "inputs": [],
      "name": "proxiableUUID",
      "outputs": [
        {
          "internalType": "bytes32",
          "name": "",
          "type": "bytes32"
        }
      ],
      "stateMutability": "view",
      "type": "function"
    },
    {
      "inputs": [
        {
          "internalType": "string",
          "name": "onePUser",
          "type": "string"
        },
        {
          "internalType": "string",
          "name": "name",
          "type": "string"
        },
        {
          "internalType": "string",
          "name": "img",
          "type": "string"
        }
      ],
      "name": "register",
      "outputs": [],
      "stateMutability": "nonpayable",
      "type": "function"
    },
    {
      "inputs": [],
      "name": "renounceOwnership",
      "outputs": [],
      "stateMutability": "nonpayable",
      "type": "function"
    },
    {
      "inputs": [
        {
          "internalType": "string",
          "name": "onePUser",
          "type": "string"
        }
      ],
      "name": "requestAttempt",
      "outputs": [],
      "stateMutability": "nonpayable",
      "type": "function"
    },
    {
      "inputs": [],
      "name": "symbol",
      "outputs": [
        {
          "internalType": "string",
          "name": "",
          "type": "string"
        }
      ],
      "stateMutability": "view",
      "type": "function"
    },
    {
      "inputs": [],
      "name": "totalSupply",
      "outputs": [
        {
          "internalType": "uint256",
          "name": "",
          "type": "uint256"
        }
      ],
      "stateMutability": "view",
      "type": "function"
    },
    {
      "inputs": [
        {
          "internalType": "address",
          "name": "to",
          "type": "address"
        },
        {
          "internalType": "uint256",
          "name": "amount",
          "type": "uint256"
        }
      ],
      "name": "transfer",
      "outputs": [
        {
          "internalType": "bool",
          "name": "",
          "type": "bool"
        }
      ],
      "stateMutability": "nonpayable",
      "type": "function"
    },
    {
      "inputs": [
        {
          "internalType": "address",
          "name": "from",
          "type": "address"
        },
        {
          "internalType": "address",
          "name": "to",
          "type": "address"
        },
        {
          "internalType": "uint256",
          "name": "amount",
          "type": "uint256"
        }
      ],
      "name": "transferFrom",
      "outputs": [
        {
          "internalType": "bool",
          "name": "",
          "type": "bool"
        }
      ],
      "stateMutability": "nonpayable",
      "type": "function"
    },
    {
      "inputs": [
        {
          "internalType": "address",
          "name": "newOwner",
          "type": "address"
        }
      ],
      "name": "transferOwnership",
      "outputs": [],
      "stateMutability": "nonpayable",
      "type": "function"
    },
    {
      "inputs": [],
      "name": "unpause",
      "outputs": [],
      "stateMutability": "nonpayable",
      "type": "function"
    },
    {
      "inputs": [
        {
          "internalType": "uint64",
          "name": "attemptId",
          "type": "uint64"
        },
        {
          "internalType": "enum OnePProtocol.Status",
          "name": "newStatus",
          "type": "uint8"
        }
      ],
      "name": "updateAttemptStatus",
      "outputs": [],
      "stateMutability": "nonpayable",
      "type": "function"
    },
    {
      "inputs": [
        {
          "internalType": "address",
          "name": "_verifier",
          "type": "address"
        }
      ],
      "name": "updateVerifier",
      "outputs": [],
      "stateMutability": "nonpayable",
      "type": "function"
    },
    {
      "inputs": [
        {
          "internalType": "address",
          "name": "newImplementation",
          "type": "address"
        }
      ],
      "name": "upgradeTo",
      "outputs": [],
      "stateMutability": "nonpayable",
      "type": "function"
    },
    {
      "inputs": [
        {
          "internalType": "address",
          "name": "newImplementation",
          "type": "address"
        },
        {
          "internalType": "bytes",
          "name": "data",
          "type": "bytes"
        }
      ],
      "name": "upgradeToAndCall",
      "outputs": [],
      "stateMutability": "payable",
      "type": "function"
    },
    {
      "inputs": [
        {
          "internalType": "string",
          "name": "",
          "type": "string"
        }
      ],
      "name": "userStateRegistry",
      "outputs": [
        {
          "internalType": "uint64",
          "name": "totalAttempts",
          "type": "uint64"
        },
        {
          "internalType": "uint64",
          "name": "successCount",
          "type": "uint64"
        },
        {
          "internalType": "uint64",
          "name": "failureCount",
          "type": "uint64"
        },
        {
          "internalType": "uint64",
          "name": "firstFailureTs",
          "type": "uint64"
        },
        {
          "internalType": "uint64",
          "name": "lastFailureTs",
          "type": "uint64"
        },
        {
          "internalType": "uint64",
          "name": "d",
          "type": "uint64"
        },
        {
          "internalType": "bool",
          "name": "highAbuse",
          "type": "bool"
        }
      ],
      "stateMutability": "view",
      "type": "function"
    },
    {
      "inputs": [
        {
          "internalType": "string",
          "name": "onePUser",
          "type": "string"
        }
      ],
      "name": "usernameExists",
      "outputs": [
        {
          "internalType": "bool",
          "name": "",
          "type": "bool"
        }
      ],
      "stateMutability": "view",
      "type": "function"
    },
    {
      "inputs": [
        {
          "internalType": "string",
          "name": "",
          "type": "string"
        }
      ],
      "name": "usernameRegistry",
      "outputs": [
        {
          "internalType": "string",
          "name": "name",
          "type": "string"
        },
        {
          "internalType": "string",
          "name": "img",
          "type": "string"
        },
        {
          "internalType": "address",
          "name": "account",
          "type": "address"
        }
      ],
      "stateMutability": "view",
      "type": "function"
    },
    {
      "inputs": [],
      "name": "verifier",
      "outputs": [
        {
          "internalType": "address",
          "name": "",
          "type": "address"
        }
      ],
      "stateMutability": "view",
      "type": "function"
    }
  ],
  "transactionHash": "0xf0f162cdd9d7e8cc6e91010ab588fad8bedd4db2bae67e5e5530483f823c6985",
  "args": [],
  "numDeployments": 1,
  "solcInputHash": "6b3e7d6d16afbfa3b4d3188642c93928",
  "bytecode": "0x60a06040523060805234801561001457600080fd5b5061001d61002a565b61002561002a565b6100e9565b600054610100900460ff16156100965760405162461bcd60e51b815260206004820152602760248201527f496e697469616c697a61626c653a20636f6e747261637420697320696e697469604482015266616c697a696e6760c81b606482015260840160405180910390fd5b60005460ff908116146100e7576000805460ff191660ff9081179091556040519081527f7f26b83ff96e1f2b6a682f133852f6798a09c465da95921460cefb38474024989060200160405180910390a15b565b608051614e8261012060003960008181610ba101528181610bea01528181610ecd01528181610f0d0152610f9c0152614e826000f3fe6080604052600436106102ae5760003560e01c80637ecebe0011610175578063c4d66de8116100dc578063dbddc3b411610095578063ed7b22571161006f578063ed7b22571461094d578063f2fde38b1461096f578063f309e3f91461098f578063f9c72035146109af57600080fd5b8063dbddc3b4146108ed578063dc0683c01461090d578063dd62ed3e1461092d57600080fd5b8063c4d66de8146107f8578063c898d36b14610818578063ce18884214610845578063d505accf14610874578063d607b5c614610894578063da2dfd11146108b457600080fd5b806397fc007c1161012e57806397fc007c1461072b5780639dc29fac1461074b578063a457c2d71461076b578063a81203b61461078b578063a9059cbb146107b8578063bd071486146107d857600080fd5b80637ecebe00146105d75780638456cb59146105f757806384b0196e1461060c578063852da046146106345780638da5cb5b146106f757806395d89b411461071657600080fd5b806340c10f19116102195780635c975abb116101d25780635c975abb1461050757806369e4c16c1461051f57806370a082311461053f578063715018a61461057557806379cc67901461058a5780637a0d62b2146105aa57600080fd5b806340c10f191461045d57806342966c681461047d5780634cd08d031461049d5780634f1ef286146104bd57806352d1902d146104d057806353620375146104e557600080fd5b8063313ce5671161026b578063313ce567146103bf578063355274ea146103db5780633644e515146103f15780633659cfe61461040657806339509351146104285780633f4ba83a1461044857600080fd5b806306fdde03146102b3578063095ea7b3146102de5780630bdc25351461030e57806318160ddd1461034057806323b872dd1461035f5780632b7ac3f31461037f575b600080fd5b3480156102bf57600080fd5b506102c86109cf565b6040516102d59190614162565b60405180910390f35b3480156102ea57600080fd5b506102fe6102f9366004614191565b610a61565b60405190151581526020016102d5565b34801561031a57600080fd5b5061032e6103293660046141d2565b610a7b565b6040516102d596959493929190614225565b34801561034c57600080fd5b506035545b6040519081526020016102d5565b34801561036b57600080fd5b506102fe61037a366004614287565b610b62565b34801561038b57600080fd5b50610263546103a790600160401b90046001600160a01b031681565b6040516001600160a01b0390911681526020016102d5565b3480156103cb57600080fd5b50604051601281526020016102d5565b3480156103e757600080fd5b5061013054610351565b3480156103fd57600080fd5b50610351610b88565b34801561041257600080fd5b506104266104213660046142c4565b610b97565b005b34801561043457600080fd5b506102fe610443366004614191565b610c7f565b34801561045457600080fd5b50610426610ca1565b34801561046957600080fd5b50610426610478366004614191565b610cb3565b34801561048957600080fd5b506104266104983660046142df565b610cc9565b3480156104a957600080fd5b506104266104b83660046143a6565b610cd3565b6104266104cb366004614437565b610ec3565b3480156104dc57600080fd5b50610351610f8f565b3480156104f157600080fd5b506104fa611042565b6040516102d59190614498565b34801561051357600080fd5b5060cc5460ff166102fe565b34801561052b57600080fd5b5061035161053a3660046144fd565b61111c565b34801561054b57600080fd5b5061035161055a3660046142c4565b6001600160a01b031660009081526033602052604090205490565b34801561058157600080fd5b50610426611337565b34801561059657600080fd5b506104266105a5366004614191565b611349565b3480156105b657600080fd5b506105ca6105c53660046141d2565b61135e565b6040516102d59190614531565b3480156105e357600080fd5b506103516105f23660046142c4565b6114ce565b34801561060357600080fd5b506104266114ec565b34801561061857600080fd5b506106216114fc565b6040516102d597969594939291906145b4565b34801561064057600080fd5b506106ad61064f3660046144fd565b805160208183018101805161025e82529282019190930120915280546001909101546001600160401b0380831692600160401b808204831693600160801b808404851694600160c01b90940484169380831693830416910460ff1687565b604080516001600160401b03988916815296881660208801529487169486019490945291851660608501528416608084015290921660a082015290151560c082015260e0016102d5565b34801561070357600080fd5b50610195546001600160a01b03166103a7565b34801561072257600080fd5b506102c861159a565b34801561073757600080fd5b506104266107463660046142c4565b6115a9565b34801561075757600080fd5b50610426610766366004614191565b611627565b34801561077757600080fd5b506102fe610786366004614191565b6116bb565b34801561079757600080fd5b506107ab6107a63660046144fd565b611741565b6040516102d5919061464c565b3480156107c457600080fd5b506102fe6107d3366004614191565b6118c3565b3480156107e457600080fd5b506102c86107f33660046142df565b6118d1565b34801561080457600080fd5b506104266108133660046142c4565b61197e565b34801561082457600080fd5b506108386108333660046144fd565b611ad0565b6040516102d591906146a7565b34801561085157600080fd5b506108656108603660046144fd565b611b97565b6040516102d59392919061473d565b34801561088057600080fd5b5061042661088f36600461478a565b611cde565b3480156108a057600080fd5b506104266108af3660046147f7565b611e42565b3480156108c057600080fd5b50610263546108d5906001600160401b031681565b6040516001600160401b0390911681526020016102d5565b3480156108f957600080fd5b50610426610908366004614819565b611eba565b34801561091957600080fd5b50610426610928366004614866565b61207e565b34801561093957600080fd5b506103516109483660046148a1565b6125f0565b34801561095957600080fd5b5061096261261b565b6040516102d591906148cb565b34801561097b57600080fd5b5061042661098a3660046142c4565b6126c9565b34801561099b57600080fd5b506102fe6109aa3660046144fd565b61273f565b3480156109bb57600080fd5b506104266109ca3660046144fd565b612779565b6060603680546109de90614917565b80601f0160208091040260200160405190810160405280929190818152602001828054610a0a90614917565b8015610a575780601f10610a2c57610100808354040283529160200191610a57565b820191906000526020600020905b815481529060010190602001808311610a3a57829003601f168201915b5050505050905090565b600033610a6f818585612af2565b60019150505b92915050565b61025f60205260009081526040902080546001820180546001600160401b039092169291610aa890614917565b80601f0160208091040260200160405190810160405280929190818152602001828054610ad490614917565b8015610b215780601f10610af657610100808354040283529160200191610b21565b820191906000526020600020905b815481529060010190602001808311610b0457829003601f168201915b50505050600283015460039093015491926001600160a01b03811692600160a01b9091046001600160401b039081169250811690600160401b900460ff1686565b600033610b70858285612c16565b610b7b858585612c8a565b60019150505b9392505050565b6000610b92612e40565b905090565b6001600160a01b037f0000000000000000000000000000000000000000000000000000000000000000163003610be85760405162461bcd60e51b8152600401610bdf9061494b565b60405180910390fd5b7f00000000000000000000000000000000000000000000000000000000000000006001600160a01b0316610c31600080516020614e06833981519152546001600160a01b031690565b6001600160a01b031614610c575760405162461bcd60e51b8152600401610bdf90614997565b610c6081612e4a565b60408051600080825260208201909252610c7c91839190612e52565b50565b600033610a6f818585610c9283836125f0565b610c9c91906149f9565b612af2565b610ca9612fbd565b610cb1613018565b565b610cbb612fbd565b610cc5828261306a565b5050565b610c7c3382613074565b610cdb6131b4565b610ce48361320f565b610d235760405162461bcd60e51b815260206004820152601060248201526f496e76616c696420757365726e616d6560801b6044820152606401610bdf565b610d5e83604051602001610d379190614a0c565b6040516020818303038152906040528051906020012061026061322a90919063ffffffff16565b610d9c5760405162461bcd60e51b815260206004820152600f60248201526e557365726e616d652065786973747360881b6044820152606401610bdf565b610db0333068056bc75e2d63100000612c8a565b60408051606081018252838152602081018390526000818301529051819061025d90610ddd908790614a0c565b90815260405190819003602001902081518190610dfa9082614a76565b5060208201516001820190610e0f9082614a76565b5060409190910151600290910180546001600160a01b0319166001600160a01b0390921691909117905561026280546001810182556000919091527f338bfe207be87fe819ed3a8a6fc3e5b2e6e3d835cbfe1057849661fdcf4c639101610e768582614a76565b507fbd923fe07a823605215bd6fd9be1099106f4391586bbebfe8ff6f933655ee3a0848484604051610eaa93929190614b34565b60405180910390a150610ebe60016101c755565b505050565b6001600160a01b037f0000000000000000000000000000000000000000000000000000000000000000163003610f0b5760405162461bcd60e51b8152600401610bdf9061494b565b7f00000000000000000000000000000000000000000000000000000000000000006001600160a01b0316610f54600080516020614e06833981519152546001600160a01b031690565b6001600160a01b031614610f7a5760405162461bcd60e51b8152600401610bdf90614997565b610f8382612e4a565b610cc582826001612e52565b6000306001600160a01b037f0000000000000000000000000000000000000000000000000000000000000000161461102f5760405162461bcd60e51b815260206004820152603860248201527f555550535570677261646561626c653a206d757374206e6f742062652063616c60448201527f6c6564207468726f7567682064656c656761746563616c6c00000000000000006064820152608401610bdf565b50600080516020614e0683398151915290565b6060610262805480602002602001604051908101604052809291908181526020016000905b8282101561111357838290600052602060002001805461108690614917565b80601f01602080910402602001604051908101604052809291908181526020018280546110b290614917565b80156110ff5780601f106110d4576101008083540402835291602001916110ff565b820191906000526020600020905b8154815290600101906020018083116110e257829003601f168201915b505050505081526020019060010190611067565b50505050905090565b60008061025e836040516111309190614a0c565b908152604080516020928190038301812060e08201835280546001600160401b038082168452600160401b808304821696850196909652600160801b808304821695850195909552600160c01b9091048116606084015260019091015480821660808401529384041660a082018190529190920460ff16151560c0830152909150600090156111c3578160a001516111c6565b60015b9050662386f26fc10000670de0b6b3a7640000600a60006111f06001600160401b03861680614b6d565b90506112056001600160401b03861682614b6d565b9050611212600282614b84565b905060006112208380614b6d565b905061122c8382614b6d565b9050611239600282614b84565b90506000306001600160a01b031663313ce5676040518163ffffffff1660e01b8152600401602060405180830381865afa15801561127b573d6000803e3d6000fd5b505050506040513d601f19601f8201168201806040525081019061129f9190614ba6565b60ff16905060006112b08787614bc3565b90506000836112bf8487614b6d565b6112c99190614b84565b90506000836112d88385614b6d565b6112e29190614b84565b905060006112f0828b6149f9565b90508881111561130c5750969c9b505050505050505050505050565b898110156113265750979c9b505050505050505050505050565b9d9c50505050505050505050505050565b61133f612fbd565b610cb1600061323e565b611354823383612c16565b610cc58282613074565b6113956040805160c0810182526000808252606060208301819052928201819052918101829052608081018290529060a082015290565b6001600160401b03808316600090815261025f6020908152604091829020825160c0810190935280549093168252600183018054929392918401916113d990614917565b80601f016020809104026020016040519081016040528092919081815260200182805461140590614917565b80156114525780601f1061142757610100808354040283529160200191611452565b820191906000526020600020905b81548152906001019060200180831161143557829003601f168201915b505050918352505060028201546001600160a01b0381166020830152600160a01b90046001600160401b0390811660408301526003808401549182166060840152608090920191600160401b90910460ff16908111156114b4576114b46141ed565b60038111156114c5576114c56141ed565b90525092915050565b6001600160a01b038116600090815260996020526040812054610a75565b6114f4612fbd565b610cb1613291565b6000606080600080600060606065546000801b14801561151c5750606654155b6115605760405162461bcd60e51b81526020600482015260156024820152741152540dcc4c8e88155b9a5b9a5d1a585b1a5e9959605a1b6044820152606401610bdf565b6115686132ce565b6115706132dd565b60408051600080825260208201909252600f60f81b9b939a50919850469750309650945092509050565b6060603780546109de90614917565b6115b1612fbd565b6001600160a01b0381166115fa5760405162461bcd60e51b815260206004820152601060248201526f24b73b30b634b2103b32b934b334b2b960811b6044820152606401610bdf565b61026380546001600160a01b03909216600160401b02600160401b600160e01b0319909216919091179055565b336001600160a01b03831614806116495750610195546001600160a01b031633145b6113545760405162461bcd60e51b815260206004820152603f60248201527f4f6e6c7920746865206f776e6572206f662074686520746f6b656e206f72207460448201527f686520746f6b656e20686f6c6465722063616e206275726e20746f6b656e73006064820152608401610bdf565b600033816116c982866125f0565b9050838110156117295760405162461bcd60e51b815260206004820152602560248201527f45524332303a2064656372656173656420616c6c6f77616e63652062656c6f77604482015264207a65726f60d81b6064820152608401610bdf565b6117368286868403612af2565b506001949350505050565b60408051606080820183528082526020820152600081830152905161025d9061176b908490614a0c565b908152602001604051809103902060405180606001604052908160008201805461179490614917565b80601f01602080910402602001604051908101604052809291908181526020018280546117c090614917565b801561180d5780601f106117e25761010080835404028352916020019161180d565b820191906000526020600020905b8154815290600101906020018083116117f057829003601f168201915b5050505050815260200160018201805461182690614917565b80601f016020809104026020016040519081016040528092919081815260200182805461185290614917565b801561189f5780601f106118745761010080835404028352916020019161189f565b820191906000526020600020905b81548152906001019060200180831161188257829003601f168201915b5050509183525050600291909101546001600160a01b031660209091015292915050565b600033610a6f818585612c8a565b61026281815481106118e257600080fd5b9060005260206000200160009150905080546118fd90614917565b80601f016020809104026020016040519081016040528092919081815260200182805461192990614917565b80156119765780601f1061194b57610100808354040283529160200191611976565b820191906000526020600020905b81548152906001019060200180831161195957829003601f168201915b505050505081565b600054610100900460ff161580801561199e5750600054600160ff909116105b806119b85750303b1580156119b8575060005460ff166001145b611a1b5760405162461bcd60e51b815260206004820152602e60248201527f496e697469616c697a61626c653a20636f6e747261637420697320616c72656160448201526d191e481a5b9a5d1a585b1a5e995960921b6064820152608401610bdf565b6000805460ff191660011790558015611a3e576000805461ff0019166101001790555b6a084595161401484a0000006a52b7d2dcc80cd2e4000000611a608282611e42565b50506102638054600160401b600160e01b031916600160401b6001600160a01b038516021790558015610cc5576000805461ff0019169055604051600181527f7f26b83ff96e1f2b6a682f133852f6798a09c465da95921460cefb38474024989060200160405180910390a15050565b6040805160e081018252600080825260208201819052818301819052606082018190526080820181905260a0820181905260c0820152905161025e90611b17908490614a0c565b908152604080516020928190038301812060e08201835280546001600160401b038082168452600160401b808304821696850196909652600160801b808304821695850195909552600160c01b9091048116606084015260019091015480821660808401529384041660a0820152910460ff16151560c082015292915050565b805160208183018101805161025d82529282019190930120915280548190611bbe90614917565b80601f0160208091040260200160405190810160405280929190818152602001828054611bea90614917565b8015611c375780601f10611c0c57610100808354040283529160200191611c37565b820191906000526020600020905b815481529060010190602001808311611c1a57829003601f168201915b505050505090806001018054611c4c90614917565b80601f0160208091040260200160405190810160405280929190818152602001828054611c7890614917565b8015611cc55780601f10611c9a57610100808354040283529160200191611cc5565b820191906000526020600020905b815481529060010190602001808311611ca857829003601f168201915b505050600290930154919250506001600160a01b031683565b83421115611d2e5760405162461bcd60e51b815260206004820152601d60248201527f45524332305065726d69743a206578706972656420646561646c696e650000006044820152606401610bdf565b60007f6e71edae12b1b97f4d1f60370fef10105fa2faae0126114a169c64845d6126c9888888611d5d8c6132ec565b6040805160208101969096526001600160a01b0394851690860152929091166060840152608083015260a082015260c0810186905260e0016040516020818303038152906040528051906020012090506000611db882613312565b90506000611dc88287878761333f565b9050896001600160a01b0316816001600160a01b031614611e2b5760405162461bcd60e51b815260206004820152601e60248201527f45524332305065726d69743a20696e76616c6964207369676e617475726500006044820152606401610bdf565b611e368a8a8a612af2565b50505050505050505050565b604080518082018252600280825261031560f41b602080840182905284518086019095529184529083015290611e788282613369565b611e818261339a565b611e8a836133e4565b611e92613414565b611e9a613443565b611ea2613472565b611eaa6134a1565b611eb4338561306a565b50505050565b61026354600160401b90046001600160a01b03163314611f0c5760405162461bcd60e51b815260206004820152600d60248201526c27b7363c903b32b934b334b2b960991b6044820152606401610bdf565b600061025d83604051611f1f9190614a0c565b908152602001604051809103902090506000816000018054611f4090614917565b905011611f895760405162461bcd60e51b8152602060048201526017602482015276155cd95c9b985b59481b9bdd081c9959da5cdd195c9959604a1b6044820152606401610bdf565b60028101546001600160a01b031615611fda5760405162461bcd60e51b81526020600482015260136024820152721058d8dbdd5b9d08185b1c9958591e481cd95d606a1b6044820152606401610bdf565b6001600160a01b0382166120225760405162461bcd60e51b815260206004820152600f60248201526e125b9d985b1a59081858d8dbdd5b9d608a1b6044820152606401610bdf565b6002810180546001600160a01b0319166001600160a01b0384161790556040517ff609fe4c93cca40e8981fee69d133b9cfa79155bc0cdee3c154e46c64fd7b9fa906120719085908590614bd6565b60405180910390a1505050565b61026354600160401b90046001600160a01b031633146120d05760405162461bcd60e51b815260206004820152600d60248201526c27b7363c903b32b934b334b2b960991b6044820152606401610bdf565b6001600160401b038216600090815261025f60205260409020600381015461210290600160401b900460ff16836134c8565b61214e5760405162461bcd60e51b815260206004820152601a60248201527f537461747573206d7573742062652070726f67726573736976650000000000006044820152606401610bdf565b600381015461216790600160401b900460ff16836134fc565b6121b35760405162461bcd60e51b815260206004820152601960248201527f496e76616c696420737461747573207472616e736974696f6e000000000000006044820152606401610bdf565b6040805160c0810190915281546001600160401b031681526001820180546122e9929184916020840191906121e790614917565b80601f016020809104026020016040519081016040528092919081815260200182805461221390614917565b80156122605780601f1061223557610100808354040283529160200191612260565b820191906000526020600020905b81548152906001019060200180831161224357829003601f168201915b505050918352505060028201546001600160a01b0381166020830152600160a01b90046001600160401b0390811660408301526003808401549182166060840152608090920191600160401b90910460ff16908111156122c2576122c26141ed565b60038111156122d3576122d36141ed565b905250606001516001600160401b031642101590565b156123285760405162461bcd60e51b815260206004820152600f60248201526e105d1d195b5c1d08195e1c1a5c9959608a1b6044820152606401610bdf565b818160030160086101000a81548160ff0219169083600381111561234e5761234e6141ed565b02179055507f689fa9f55ffd5f17620eedece51304ea7d5d365566907941bb2e34d0cbd1c54c8383604051612384929190614c00565b60405180910390a160028260038111156123a0576123a06141ed565b14806123bd575060038260038111156123bb576123bb6141ed565b145b15610ebe57600061025e826001016040516123d89190614c1d565b9081526040519081900360200190209050600060028460038111156123ff576123ff6141ed565b1490504281156124c8578254600160401b90046001600160401b031683600861242783614c92565b91906101000a8154816001600160401b0302191690836001600160401b031602179055505060018360010160089054906101000a90046001600160401b03166001600160401b03161161247b57600161249b565b60018381015461249b9190600160401b90046001600160401b0316614cbd565b8360010160086101000a8154816001600160401b0302191690836001600160401b031602179055506125e8565b8254600160801b90046001600160401b03168360106124e683614c92565b82546101009290920a6001600160401b038181021990931691831602179091558454600160c01b90041660000390506125385782546001600160c01b0316600160c01b6001600160401b038316021783555b60018301805467ffffffffffffffff19166001600160401b0383811691909117909155835461257991600160801b8204811691600160c01b90041683613596565b156125945760018301805460ff60801b1916600160801b1790555b60018301546125bf90600160401b81046001600160401b031690600160801b900460ff1660006135e1565b8360010160086101000a8154816001600160401b0302191690836001600160401b031602179055505b505050505050565b6001600160a01b03918216600090815260346020908152604080832093909416825291909152205490565b610263546060906000906001600160401b0390811690811115612640576126406142f8565b604051908082528060200260200182016040528015612669578160200160208202803683370190505b50905060005b610263546001600160401b0390811690821610156126c3578082826001600160401b0316815181106126a3576126a3614cdc565b6001600160401b039092166020928302919091019091015260010161266f565b50919050565b6126d1612fbd565b6001600160a01b0381166127365760405162461bcd60e51b815260206004820152602660248201527f4f776e61626c653a206e6577206f776e657220697320746865207a65726f206160448201526564647265737360d01b6064820152608401610bdf565b610c7c8161323e565b600080826040516020016127539190614a0c565b60408051601f1981840301815291905280516020909101209050610b816102608261363e565b6127816131b4565b60405163f309e3f960e01b8152309063f309e3f9906127a4908490600401614162565b602060405180830381865afa1580156127c1573d6000803e3d6000fd5b505050506040513d601f19601f820116820180604052508101906127e59190614cf2565b61282b5760405162461bcd60e51b8152602060048201526017602482015276155cd95c9b985b59481b9bdd081c9959da5cdd195c9959604a1b6044820152606401610bdf565b600061025d8260405161283e9190614a0c565b90815260405190819003602001902060028101549091506001600160a01b0316806128665750305b60006128718461111c565b9050600080600061288184613656565b925092509250612892333083612c8a565b61289d338685612c8a565b610263546128bd903390600160401b90046001600160a01b031684612c8a565b6128c73082613074565b600061025e886040516128da9190614a0c565b90815260405190819003602001902060018101549091506001600160401b03600160401b9091041660000361292b576001810180546fffffffffffffffff00000000000000001916600160401b1790555b80546001600160401b031681600061294283614c92565b82546101009290920a6001600160401b0381810219909316918316021790915560018301546102638054600160401b9092048316935060009291909116908261298a83614c92565b91906101000a8154816001600160401b0302191690836001600160401b03160217905550905060006129c1828c33866102586136eb565b6001600160401b03838116600090815261025f602090815260409091208351815467ffffffffffffffff1916931692909217825582015191925082916001820190612a0c9082614a76565b50604082015160028201805460608501516001600160401b03908116600160a01b026001600160e01b03199092166001600160a01b03909416939093171790556080830151600380840180549290931667ffffffffffffffff1983168117845560a0860151939268ffffffffffffffffff19161790600160401b908490811115612a9857612a986141ed565b02179055509050507f0f6a47bdf5782b21edfaa370264af1691d2eb2324e9aec5b69d70b539b0b794b828c3386604051612ad59493929190614d14565b60405180910390a150505050505050505050610c7c60016101c755565b6001600160a01b038316612b545760405162461bcd60e51b8152602060048201526024808201527f45524332303a20617070726f76652066726f6d20746865207a65726f206164646044820152637265737360e01b6064820152608401610bdf565b6001600160a01b038216612bb55760405162461bcd60e51b815260206004820152602260248201527f45524332303a20617070726f766520746f20746865207a65726f206164647265604482015261737360f01b6064820152608401610bdf565b6001600160a01b0383811660008181526034602090815260408083209487168084529482529182902085905590518481527f8c5be1e5ebec7d5bd14f71427d1e84f3dd0314c0f7b2291e5b200ac8c7c3b925910160405180910390a3505050565b6000612c2284846125f0565b90506000198114611eb45781811015612c7d5760405162461bcd60e51b815260206004820152601d60248201527f45524332303a20696e73756666696369656e7420616c6c6f77616e63650000006044820152606401610bdf565b611eb48484848403612af2565b6001600160a01b038316612cee5760405162461bcd60e51b815260206004820152602560248201527f45524332303a207472616e736665722066726f6d20746865207a65726f206164604482015264647265737360d81b6064820152608401610bdf565b6001600160a01b038216612d505760405162461bcd60e51b815260206004820152602360248201527f45524332303a207472616e7366657220746f20746865207a65726f206164647260448201526265737360e81b6064820152608401610bdf565b612d5b838383613788565b6001600160a01b03831660009081526033602052604090205481811015612dd35760405162461bcd60e51b815260206004820152602660248201527f45524332303a207472616e7366657220616d6f756e7420657863656564732062604482015265616c616e636560d01b6064820152608401610bdf565b6001600160a01b0380851660008181526033602052604080822086860390559286168082529083902080548601905591517fddf252ad1be2c89b69c2b068fc378daa952ba7f163c4a11628f55a4df523b3ef90612e339086815260200190565b60405180910390a3611eb4565b6000610b92613793565b610c7c612fbd565b7f4910fdfa16fed3260ed0e7147f7cc6da11a60208b5b9406d12a635614ffd91435460ff1615612e8557610ebe83613807565b826001600160a01b03166352d1902d6040518163ffffffff1660e01b8152600401602060405180830381865afa925050508015612edf575060408051601f3d908101601f19168201909252612edc91810190614d60565b60015b612f425760405162461bcd60e51b815260206004820152602e60248201527f45524331393637557067726164653a206e657720696d706c656d656e7461746960448201526d6f6e206973206e6f74205555505360901b6064820152608401610bdf565b600080516020614e068339815191528114612fb15760405162461bcd60e51b815260206004820152602960248201527f45524331393637557067726164653a20756e737570706f727465642070726f786044820152681a58589b195555525160ba1b6064820152608401610bdf565b50610ebe8383836138a3565b610195546001600160a01b03163314610cb15760405162461bcd60e51b815260206004820181905260248201527f4f776e61626c653a2063616c6c6572206973206e6f7420746865206f776e65726044820152606401610bdf565b6130206138c8565b60cc805460ff191690557f5db9ee0a495bf2e6ff9c91a7834c1ba4fdd244a5e8aa4e537bd38aeae4b073aa335b6040516001600160a01b03909116815260200160405180910390a1565b610cc58282613911565b6001600160a01b0382166130d45760405162461bcd60e51b815260206004820152602160248201527f45524332303a206275726e2066726f6d20746865207a65726f206164647265736044820152607360f81b6064820152608401610bdf565b6130e082600083613788565b6001600160a01b038216600090815260336020526040902054818110156131545760405162461bcd60e51b815260206004820152602260248201527f45524332303a206275726e20616d6f756e7420657863656564732062616c616e604482015261636560f01b6064820152608401610bdf565b6001600160a01b03831660008181526033602090815260408083208686039055603580548790039055518581529192917fddf252ad1be2c89b69c2b068fc378daa952ba7f163c4a11628f55a4df523b3ef910160405180910390a3505050565b60026101c754036132075760405162461bcd60e51b815260206004820152601f60248201527f5265656e7472616e637947756172643a207265656e7472616e742063616c6c006044820152606401610bdf565b60026101c755565b8051600090829015801590610b815750516040101592915050565b6000610b818383613981565b60016101c755565b61019580546001600160a01b038381166001600160a01b0319831681179093556040519116919082907f8be0079c531659141344cd1fd0a4f28419497f9722a3daafe3b4186f6b6457e090600090a35050565b6132996139d0565b60cc805460ff191660011790557f62e78cea01bee320cd4e420270b5ea74000d11b0c9f74754ebdbfc544b05a25861304d3390565b6060606780546109de90614917565b6060606880546109de90614917565b6001600160a01b03811660009081526099602052604090208054600181018255906126c3565b6000610a7561331f612e40565b8360405161190160f01b8152600281019290925260228201526042902090565b600080600061335087878787613a16565b9150915061335d81613ada565b5090505b949350505050565b600054610100900460ff166133905760405162461bcd60e51b8152600401610bdf90614d79565b610cc58282613c24565b600054610100900460ff166133c15760405162461bcd60e51b8152600401610bdf90614d79565b610c7c81604051806040016040528060018152602001603160f81b815250613c64565b600054610100900460ff1661340b5760405162461bcd60e51b8152600401610bdf90614d79565b610c7c81613cb3565b600054610100900460ff1661343b5760405162461bcd60e51b8152600401610bdf90614d79565b610cb1613d28565b600054610100900460ff1661346a5760405162461bcd60e51b8152600401610bdf90614d79565b610cb1613d5b565b600054610100900460ff166134995760405162461bcd60e51b8152600401610bdf90614d79565b610cb1613d8b565b600054610100900460ff16610cb15760405162461bcd60e51b8152600401610bdf90614d79565b60008260038111156134dc576134dc6141ed565b60ff168260038111156134f1576134f16141ed565b60ff16119392505050565b600080836003811115613511576135116141ed565b14801561352f5750600182600381111561352d5761352d6141ed565b145b1561353c57506001610a75565b6001836003811115613550576135506141ed565b1480156135895750600282600381111561356c5761356c6141ed565b148061358957506003826003811115613587576135876141ed565b145b15610a7557506001610a75565b60006003846001600160401b0316101580156135bb57506000836001600160401b0316115b80156133615750610e106135cf8484614cbd565b6001600160401b031610949350505050565b60008115613613576001846001600160401b03161161360157600161360c565b61360c600185614cbd565b9050610b81565b821561362e5761360c600a613629866002614dc4565b613db2565b61360c600a613629866001614de6565b60008181526001830160205260408120541515610b81565b60008080612710613669610fa086614b6d565b6136739190614b84565b9250612710613684610fa086614b6d565b61368e9190614b84565b915061271061369f6107d086614b6d565b6136a99190614b84565b90506000816136b884866149f9565b6136c291906149f9565b9050848110156136e3576136d68186614bc3565b6136e090836149f9565b91505b509193909250565b6137226040805160c0810182526000808252606060208301819052928201819052918101829052608081018290529060a082015290565b60004290506040518060c00160405280886001600160401b03168152602001878152602001866001600160a01b0316815260200184836137629190614de6565b6001600160401b0390811682528616602082015260400160009052979650505050505050565b610ebe838383613dda565b60007f8b73c3c69bb8fe3d512ecc4cf759cc79239f7b179b0ffacaa9a75d522b39400f6137be613e40565b6137c6613e99565b60408051602081019490945283019190915260608201524660808201523060a082015260c00160405160208183030381529060405280519060200120905090565b6001600160a01b0381163b6138745760405162461bcd60e51b815260206004820152602d60248201527f455243313936373a206e657720696d706c656d656e746174696f6e206973206e60448201526c1bdd08184818dbdb9d1c9858dd609a1b6064820152608401610bdf565b600080516020614e0683398151915280546001600160a01b0319166001600160a01b0392909216919091179055565b6138ac83613eca565b6000825111806138b95750805b15610ebe57611eb48383613f0a565b60cc5460ff16610cb15760405162461bcd60e51b815260206004820152601460248201527314185d5cd8589b194e881b9bdd081c185d5cd95960621b6044820152606401610bdf565b610130548161391f60355490565b61392991906149f9565b11156139775760405162461bcd60e51b815260206004820152601960248201527f45524332304361707065643a20636170206578636565646564000000000000006044820152606401610bdf565b610cc58282613f2f565b60008181526001830160205260408120546139c857508154600181810184556000848152602080822090930184905584548482528286019093526040902091909155610a75565b506000610a75565b60cc5460ff1615610cb15760405162461bcd60e51b815260206004820152601060248201526f14185d5cd8589b194e881c185d5cd95960821b6044820152606401610bdf565b6000807f7fffffffffffffffffffffffffffffff5d576e7357a4501ddfe92f46681b20a0831115613a4d5750600090506003613ad1565b6040805160008082526020820180845289905260ff881692820192909252606081018690526080810185905260019060a0016020604051602081039080840390855afa158015613aa1573d6000803e3d6000fd5b5050604051601f1901519150506001600160a01b038116613aca57600060019250925050613ad1565b9150600090505b94509492505050565b6000816004811115613aee57613aee6141ed565b03613af65750565b6001816004811115613b0a57613b0a6141ed565b03613b575760405162461bcd60e51b815260206004820152601860248201527f45434453413a20696e76616c6964207369676e617475726500000000000000006044820152606401610bdf565b6002816004811115613b6b57613b6b6141ed565b03613bb85760405162461bcd60e51b815260206004820152601f60248201527f45434453413a20696e76616c6964207369676e6174757265206c656e677468006044820152606401610bdf565b6003816004811115613bcc57613bcc6141ed565b03610c7c5760405162461bcd60e51b815260206004820152602260248201527f45434453413a20696e76616c6964207369676e6174757265202773272076616c604482015261756560f01b6064820152608401610bdf565b600054610100900460ff16613c4b5760405162461bcd60e51b8152600401610bdf90614d79565b6036613c578382614a76565b506037610ebe8282614a76565b600054610100900460ff16613c8b5760405162461bcd60e51b8152600401610bdf90614d79565b6067613c978382614a76565b506068613ca48282614a76565b50506000606581905560665550565b600054610100900460ff16613cda5760405162461bcd60e51b8152600401610bdf90614d79565b60008111613d225760405162461bcd60e51b8152602060048201526015602482015274045524332304361707065643a20636170206973203605c1b6044820152606401610bdf565b61013055565b600054610100900460ff16613d4f5760405162461bcd60e51b8152600401610bdf90614d79565b60cc805460ff19169055565b600054610100900460ff16613d825760405162461bcd60e51b8152600401610bdf90614d79565b610cb13361323e565b600054610100900460ff166132365760405162461bcd60e51b8152600401610bdf90614d79565b6000816001600160401b0316836001600160401b031610613dd35781610b81565b5090919050565b60cc5460ff1615610ebe5760405162461bcd60e51b815260206004820152602a60248201527f45524332305061757361626c653a20746f6b656e207472616e736665722077686044820152691a5b19481c185d5cd95960b21b6064820152608401610bdf565b600080613e4b6132ce565b805190915015613e62578051602090910120919050565b6065548015613e715792915050565b7fc5d2460186f7233c927e7db2dcc703c0e500b653ca82273b7bfad8045d85a4709250505090565b600080613ea46132dd565b805190915015613ebb578051602090910120919050565b6066548015613e715792915050565b613ed381613807565b6040516001600160a01b038216907fbc7cd75a20ee27fd9adebab32041f755214dbc6bffa90cc0225b39da2e5c2d3b90600090a250565b6060610b818383604051806060016040528060278152602001614e2660279139613ffc565b6001600160a01b038216613f855760405162461bcd60e51b815260206004820152601f60248201527f45524332303a206d696e7420746f20746865207a65726f2061646472657373006044820152606401610bdf565b613f9160008383613788565b8060356000828254613fa391906149f9565b90915550506001600160a01b0382166000818152603360209081526040808320805486019055518481527fddf252ad1be2c89b69c2b068fc378daa952ba7f163c4a11628f55a4df523b3ef910160405180910390a35050565b6060600080856001600160a01b0316856040516140199190614a0c565b600060405180830381855af49150503d8060008114614054576040519150601f19603f3d011682016040523d82523d6000602084013e614059565b606091505b509150915061406a86838387614074565b9695505050505050565b606083156140e35782516000036140dc576001600160a01b0385163b6140dc5760405162461bcd60e51b815260206004820152601d60248201527f416464726573733a2063616c6c20746f206e6f6e2d636f6e74726163740000006044820152606401610bdf565b5081613361565b61336183838151156140f85781518083602001fd5b8060405162461bcd60e51b8152600401610bdf9190614162565b60005b8381101561412d578181015183820152602001614115565b50506000910152565b6000815180845261414e816020860160208601614112565b601f01601f19169290920160200192915050565b602081526000610b816020830184614136565b80356001600160a01b038116811461418c57600080fd5b919050565b600080604083850312156141a457600080fd5b6141ad83614175565b946020939093013593505050565b80356001600160401b038116811461418c57600080fd5b6000602082840312156141e457600080fd5b610b81826141bb565b634e487b7160e01b600052602160045260246000fd5b6004811061422157634e487b7160e01b600052602160045260246000fd5b9052565b6001600160401b038716815260c06020820152600061424760c0830188614136565b6001600160a01b03871660408401526001600160401b03868116606085015285166080840152905061427c60a0830184614203565b979650505050505050565b60008060006060848603121561429c57600080fd5b6142a584614175565b92506142b360208501614175565b929592945050506040919091013590565b6000602082840312156142d657600080fd5b610b8182614175565b6000602082840312156142f157600080fd5b5035919050565b634e487b7160e01b600052604160045260246000fd5b6000806001600160401b03841115614328576143286142f8565b50604051601f19601f85018116603f011681018181106001600160401b0382111715614356576143566142f8565b60405283815290508082840185101561436e57600080fd5b83836020830137600060208583010152509392505050565b600082601f83011261439757600080fd5b610b818383356020850161430e565b6000806000606084860312156143bb57600080fd5b83356001600160401b038111156143d157600080fd5b6143dd86828701614386565b93505060208401356001600160401b038111156143f957600080fd5b61440586828701614386565b92505060408401356001600160401b0381111561442157600080fd5b61442d86828701614386565b9150509250925092565b6000806040838503121561444a57600080fd5b61445383614175565b915060208301356001600160401b0381111561446e57600080fd5b8301601f8101851361447f57600080fd5b61448e8582356020840161430e565b9150509250929050565b6000602082016020835280845180835260408501915060408160051b86010192506020860160005b828110156144f157603f198786030184526144dc858351614136565b945060209384019391909101906001016144c0565b50929695505050505050565b60006020828403121561450f57600080fd5b81356001600160401b0381111561452557600080fd5b61336184828501614386565b602081526001600160401b0382511660208201526000602083015160c0604084015261456060e0840182614136565b905060018060a01b0360408501511660608401526001600160401b0360608501511660808401526001600160401b0360808501511660a084015260a08401516145ac60c0850182614203565b509392505050565b60ff60f81b8816815260e0602082015260006145d360e0830189614136565b82810360408401526145e58189614136565b606084018890526001600160a01b038716608085015260a0840186905283810360c08501528451808252602080870193509091019060005b8181101561463b57835183526020938401939092019160010161461d565b50909b9a5050505050505050505050565b6020815260008251606060208401526146686080840182614136565b90506020840151601f198483030160408501526146858282614136565b604095909501516001600160a01b031660609490940193909352509192915050565b600060e0820190506001600160401b0383511682526001600160401b0360208401511660208301526001600160401b0360408401511660408301526001600160401b0360608401511660608301526001600160401b03608084015116608083015260a083015161472260a08401826001600160401b03169052565b5060c083015161473660c084018215159052565b5092915050565b6060815260006147506060830186614136565b82810360208401526147628186614136565b91505060018060a01b0383166040830152949350505050565b60ff81168114610c7c57600080fd5b600080600080600080600060e0888a0312156147a557600080fd5b6147ae88614175565b96506147bc60208901614175565b9550604088013594506060880135935060808801356147da8161477b565b9699959850939692959460a0840135945060c09093013592915050565b6000806040838503121561480a57600080fd5b50508035926020909101359150565b6000806040838503121561482c57600080fd5b82356001600160401b0381111561484257600080fd5b61484e85828601614386565b92505061485d60208401614175565b90509250929050565b6000806040838503121561487957600080fd5b614882836141bb565b915060208301356004811061489657600080fd5b809150509250929050565b600080604083850312156148b457600080fd5b6148bd83614175565b915061485d60208401614175565b602080825282518282018190526000918401906040840190835b8181101561490c5783516001600160401b03168352602093840193909201916001016148e5565b509095945050505050565b600181811c9082168061492b57607f821691505b6020821081036126c357634e487b7160e01b600052602260045260246000fd5b6020808252602c908201527f46756e6374696f6e206d7573742062652063616c6c6564207468726f7567682060408201526b19195b1959d85d1958d85b1b60a21b606082015260800190565b6020808252602c908201527f46756e6374696f6e206d7573742062652063616c6c6564207468726f7567682060408201526b6163746976652070726f787960a01b606082015260800190565b634e487b7160e01b600052601160045260246000fd5b80820180821115610a7557610a756149e3565b60008251614a1e818460208701614112565b9190910192915050565b601f821115610ebe57806000526020600020601f840160051c81016020851015614a4f5750805b601f840160051c820191505b81811015614a6f5760008155600101614a5b565b5050505050565b81516001600160401b03811115614a8f57614a8f6142f8565b614aa381614a9d8454614917565b84614a28565b6020601f821160018114614ad75760008315614abf5750848201515b600019600385901b1c1916600184901b178455614a6f565b600084815260208120601f198516915b82811015614b075787850151825560209485019460019092019101614ae7565b5084821015614b255786840151600019600387901b60f8161c191681555b50505050600190811b01905550565b606081526000614b476060830186614136565b8281036020840152614b598186614136565b9050828103604084015261406a8185614136565b8082028115828204841417610a7557610a756149e3565b600082614ba157634e487b7160e01b600052601260045260246000fd5b500490565b600060208284031215614bb857600080fd5b8151610b818161477b565b81810381811115610a7557610a756149e3565b604081526000614be96040830185614136565b905060018060a01b03831660208301529392505050565b6001600160401b038316815260408101610b816020830184614203565b6000808354614c2b81614917565b600182168015614c425760018114614c5757614c87565b60ff1983168652811515820286019350614c87565b86600052602060002060005b83811015614c7f57815488820152600190910190602001614c63565b505081860193505b509195945050505050565b60006001600160401b0382166001600160401b038103614cb457614cb46149e3565b60010192915050565b6001600160401b038281168282160390811115610a7557610a756149e3565b634e487b7160e01b600052603260045260246000fd5b600060208284031215614d0457600080fd5b81518015158114610b8157600080fd5b6001600160401b0385168152608060208201526000614d366080830186614136565b6001600160a01b03949094166040830152506001600160401b039190911660609091015292915050565b600060208284031215614d7257600080fd5b5051919050565b6020808252602b908201527f496e697469616c697a61626c653a20636f6e7472616374206973206e6f74206960408201526a6e697469616c697a696e6760a81b606082015260800190565b6001600160401b038181168382160290811690818114614736576147366149e3565b6001600160401b038181168382160190811115610a7557610a756149e356fe360894a13ba1a3210667c828492db98dca3e2076cc3735a920a3ca505d382bbc416464726573733a206c6f772d6c6576656c2064656c65676174652063616c6c206661696c6564a26469706673582212207a0c3d307da42b8ec612ac0b72764cebd69d219e1ce0d122b0a01d554ad5ad9564736f6c634300081e0033",
  "devdoc": {
    "details": "Child contract that inherits from OnePToken and implements the 1P Protocol",
    "events": {
      "AdminChanged(address,address)": {
        "details": "Emitted when the admin account has changed."
      },
      "Approval(address,address,uint256)": {
        "details": "Emitted when the allowance of a `spender` for an `owner` is set by a call to {approve}. `value` is the new allowance."
      },
      "BeaconUpgraded(address)": {
        "details": "Emitted when the beacon is changed."
      },
      "EIP712DomainChanged()": {
        "details": "MAY be emitted to signal that the domain could have changed."
      },
      "Initialized(uint8)": {
        "details": "Triggered when the contract has been initialized or reinitialized."
      },
      "Paused(address)": {
        "details": "Emitted when the pause is triggered by `account`."
      },
      "Transfer(address,address,uint256)": {
        "details": "Emitted when `value` tokens are moved from one account (`from`) to another (`to`). Note that `value` may be zero."
      },
      "Unpaused(address)": {
        "details": "Emitted when the pause is lifted by `account`."
      },
      "Upgraded(address)": {
        "details": "Emitted when the implementation is upgraded."
      }
    },
    "kind": "dev",
    "methods": {
      "DOMAIN_SEPARATOR()": {
        "details": "Returns the domain separator used in the encoding of the signature for {permit}, as defined by {EIP712}."
      },
      "allowance(address,address)": {
        "details": "See {IERC20-allowance}."
      },
      "approve(address,uint256)": {
        "details": "See {IERC20-approve}. NOTE: If `amount` is the maximum `uint256`, the allowance is not updated on `transferFrom`. This is semantically equivalent to an infinite approval. Requirements: - `spender` cannot be the zero address."
      },
      "attachAccount(string,address)": {
        "details": "Attach custodial account to username (Step 2 of 1P Protocol)",
        "params": {
          "account": "Custodial wallet address",
          "onePUser": "Username to attach account to"
        }
      },
      "balanceOf(address)": {
        "details": "See {IERC20-balanceOf}."
      },
      "burn(address,uint256)": {
        "details": "Burn tokens from account (only owner)",
        "params": {
          "amount": "Amount of tokens to burn",
          "from": "Address to burn tokens from"
        }
      },
      "burn(uint256)": {
        "details": "Destroys `amount` tokens from the caller. See {ERC20-_burn}."
      },
      "burnFrom(address,uint256)": {
        "details": "Destroys `amount` tokens from `account`, deducting from the caller's allowance. See {ERC20-_burn} and {ERC20-allowance}. Requirements: - the caller must have allowance for ``accounts``'s tokens of at least `amount`."
      },
      "cap()": {
        "details": "Returns the cap on the token's total supply."
      },
      "constructor": {
        "custom:oz-upgrades-unsafe-allow": "constructor"
      },
      "decimals()": {
        "details": "Returns the number of decimals used to get its user representation. For example, if `decimals` equals `2`, a balance of `505` tokens should be displayed to a user as `5.05` (`505 / 10 ** 2`). Tokens usually opt for a value of 18, imitating the relationship between Ether and Wei. This is the default value returned by this function, unless it's overridden. NOTE: This information is only used for _display_ purposes: it in no way affects any of the arithmetic of the contract, including {IERC20-balanceOf} and {IERC20-transfer}."
      },
      "decreaseAllowance(address,uint256)": {
        "details": "Atomically decreases the allowance granted to `spender` by the caller. This is an alternative to {approve} that can be used as a mitigation for problems described in {IERC20-approve}. Emits an {Approval} event indicating the updated allowance. Requirements: - `spender` cannot be the zero address. - `spender` must have allowance for the caller of at least `subtractedValue`."
      },
      "eip712Domain()": {
        "details": "See {EIP-5267}. _Available since v4.9._"
      },
      "getAllAttemptIds()": {
        "details": "Get all attempt IDs"
      },
      "getAllUsernames()": {
        "details": "Get all registered usernames"
      },
      "getAttempt(uint64)": {
        "details": "Get attempt by ID"
      },
      "getAttemptFee(string)": {
        "details": "Calculate attempt fee based on user's difficulty level using mathematical bonding curve",
        "params": {
          "onePUser": "Username to get difficulty for"
        },
        "returns": {
          "attemptFee": "Fee for the attempt based on difficulty"
        }
      },
      "getUserProfile(string)": {
        "details": "Get user profile by username"
      },
      "getUserState(string)": {
        "details": "Get user state by username"
      },
      "increaseAllowance(address,uint256)": {
        "details": "Atomically increases the allowance granted to `spender` by the caller. This is an alternative to {approve} that can be used as a mitigation for problems described in {IERC20-approve}. Emits an {Approval} event indicating the updated allowance. Requirements: - `spender` cannot be the zero address."
      },
      "initialize(address)": {
        "details": "Initialize the OneP contract",
        "params": {
          "_verifier": "Address of the backend verifier"
        }
      },
      "initializeToken(uint256,uint256)": {
        "details": "Initialize the OnePToken contract",
        "params": {
          "_cap": "Maximum token supply cap",
          "_initialSupply": "Initial token supply to mint"
        }
      },
      "mint(address,uint256)": {
        "details": "Mint tokens (only owner)"
      },
      "name()": {
        "details": "Returns the name of the token."
      },
      "nonces(address)": {
        "details": "Returns the current nonce for `owner`. This value must be included whenever a signature is generated for {permit}. Every successful call to {permit} increases ``owner``'s nonce by one. This prevents a signature from being used multiple times."
      },
      "owner()": {
        "details": "Returns the address of the current owner."
      },
      "pause()": {
        "details": "Pause contract (only owner)"
      },
      "paused()": {
        "details": "Returns true if the contract is paused, and false otherwise."
      },
      "permit(address,address,uint256,uint256,uint8,bytes32,bytes32)": {
        "details": "Sets `value` as the allowance of `spender` over ``owner``'s tokens, given ``owner``'s signed approval. IMPORTANT: The same issues {IERC20-approve} has related to transaction ordering also apply here. Emits an {Approval} event. Requirements: - `spender` cannot be the zero address. - `deadline` must be a timestamp in the future. - `v`, `r` and `s` must be a valid `secp256k1` signature from `owner` over the EIP712-formatted function arguments. - the signature must use ``owner``'s current nonce (see {nonces}). For more information on the signature format, see the https://eips.ethereum.org/EIPS/eip-2612#specification[relevant EIP section]. CAUTION: See Security Considerations above."
      },
      "proxiableUUID()": {
        "details": "Implementation of the ERC1822 {proxiableUUID} function. This returns the storage slot used by the implementation. It is used to validate the implementation's compatibility when performing an upgrade. IMPORTANT: A proxy pointing at a proxiable contract should not be considered proxiable itself, because this risks bricking a proxy that upgrades to it, by delegating to itself until out of gas. Thus it is critical that this function revert if invoked through a proxy. This is guaranteed by the `notDelegated` modifier."
      },
      "register(string,string,string)": {
        "details": "Register a new username (Step 1 of 1P Protocol)",
        "params": {
          "img": "Profile image URL",
          "name": "Display name for the user",
          "onePUser": "Username to register (e.g., \"alice.1p\")"
        }
      },
      "renounceOwnership()": {
        "details": "Leaves the contract without owner. It will not be possible to call `onlyOwner` functions. Can only be called by the current owner. NOTE: Renouncing ownership will leave the contract without an owner, thereby disabling any functionality that is only available to the owner."
      },
      "requestAttempt(string)": {
        "details": "Request authentication attempt (Step 3 of 1P Protocol)",
        "params": {
          "onePUser": "Username requesting authentication"
        }
      },
      "symbol()": {
        "details": "Returns the symbol of the token, usually a shorter version of the name."
      },
      "totalSupply()": {
        "details": "See {IERC20-totalSupply}."
      },
      "transfer(address,uint256)": {
        "details": "See {IERC20-transfer}. Requirements: - `to` cannot be the zero address. - the caller must have a balance of at least `amount`."
      },
      "transferFrom(address,address,uint256)": {
        "details": "See {IERC20-transferFrom}. Emits an {Approval} event indicating the updated allowance. This is not required by the EIP. See the note at the beginning of {ERC20}. NOTE: Does not update the allowance if the current allowance is the maximum `uint256`. Requirements: - `from` and `to` cannot be the zero address. - `from` must have a balance of at least `amount`. - the caller must have allowance for ``from``'s tokens of at least `amount`."
      },
      "transferOwnership(address)": {
        "details": "Transfers ownership of the contract to a new account (`newOwner`). Can only be called by the current owner."
      },
      "unpause()": {
        "details": "Unpause contract (only owner)"
      },
      "updateAttemptStatus(uint64,uint8)": {
        "details": "Update attempt status with progressive validation (only verifier)",
        "params": {
          "attemptId": "ID of the attempt to update",
          "newStatus": "New status (must be greater than current status)"
        }
      },
      "updateVerifier(address)": {
        "details": "Update verifier address (only owner)"
      },
      "upgradeTo(address)": {
        "custom:oz-upgrades-unsafe-allow-reachable": "delegatecall",
        "details": "Upgrade the implementation of the proxy to `newImplementation`. Calls {_authorizeUpgrade}. Emits an {Upgraded} event."
      },
      "upgradeToAndCall(address,bytes)": {
        "custom:oz-upgrades-unsafe-allow-reachable": "delegatecall",
        "details": "Upgrade the implementation of the proxy to `newImplementation`, and subsequently execute the function call encoded in `data`. Calls {_authorizeUpgrade}. Emits an {Upgraded} event."
      },
      "usernameExists(string)": {
        "details": "Check if username exists"
      }
    },
    "title": "OneP",
    "version": 1
  },
  "userdoc": {
    "kind": "user",
    "methods": {},
    "notice": "This contract adds quantum-resistant authentication functionality to the base token Architecture: - Inherits from OnePToken for ERC20 functionality and token economics - Uses OnePProtocol library for authentication logic - Maintains separation of concerns: token logic in parent, protocol logic here",
    "version": 1
  },
  "storageLayout": {
    "storage": [
      {
        "astId": 530,
        "contract": "contracts/1p/OneP.sol:OneP",
        "label": "_initialized",
        "offset": 0,
        "slot": "0",
        "type": "t_uint8"
      },
      {
        "astId": 533,
        "contract": "contracts/1p/OneP.sol:OneP",
        "label": "_initializing",
        "offset": 1,
        "slot": "0",
        "type": "t_bool"
      },
      {
        "astId": 2956,
        "contract": "contracts/1p/OneP.sol:OneP",
        "label": "__gap",
        "offset": 0,
        "slot": "1",
        "type": "t_array(t_uint256)50_storage"
      },
      {
        "astId": 1062,
        "contract": "contracts/1p/OneP.sol:OneP",
        "label": "_balances",
        "offset": 0,
        "slot": "51",
        "type": "t_mapping(t_address,t_uint256)"
      },
      {
        "astId": 1068,
        "contract": "contracts/1p/OneP.sol:OneP",
        "label": "_allowances",
        "offset": 0,
        "slot": "52",
        "type": "t_mapping(t_address,t_mapping(t_address,t_uint256))"
      },
      {
        "astId": 1070,
        "contract": "contracts/1p/OneP.sol:OneP",
        "label": "_totalSupply",
        "offset": 0,
        "slot": "53",
        "type": "t_uint256"
      },
      {
        "astId": 1072,
        "contract": "contracts/1p/OneP.sol:OneP",
        "label": "_name",
        "offset": 0,
        "slot": "54",
        "type": "t_string_storage"
      },
      {
        "astId": 1074,
        "contract": "contracts/1p/OneP.sol:OneP",
        "label": "_symbol",
        "offset": 0,
        "slot": "55",
        "type": "t_string_storage"
      },
      {
        "astId": 1654,
        "contract": "contracts/1p/OneP.sol:OneP",
        "label": "__gap",
        "offset": 0,
        "slot": "56",
        "type": "t_array(t_uint256)45_storage"
      },
      {
        "astId": 3755,
        "contract": "contracts/1p/OneP.sol:OneP",
        "label": "_hashedName",
        "offset": 0,
        "slot": "101",
        "type": "t_bytes32"
      },
      {
        "astId": 3758,
        "contract": "contracts/1p/OneP.sol:OneP",
        "label": "_hashedVersion",
        "offset": 0,
        "slot": "102",
        "type": "t_bytes32"
      },
      {
        "astId": 3760,
        "contract": "contracts/1p/OneP.sol:OneP",
        "label": "_name",
        "offset": 0,
        "slot": "103",
        "type": "t_string_storage"
      },
      {
        "astId": 3762,
        "contract": "contracts/1p/OneP.sol:OneP",
        "label": "_version",
        "offset": 0,
        "slot": "104",
        "type": "t_string_storage"
      },
      {
        "astId": 4020,
        "contract": "contracts/1p/OneP.sol:OneP",
        "label": "__gap",
        "offset": 0,
        "slot": "105",
        "type": "t_array(t_uint256)48_storage"
      },
      {
        "astId": 1974,
        "contract": "contracts/1p/OneP.sol:OneP",
        "label": "_nonces",
        "offset": 0,
        "slot": "153",
        "type": "t_mapping(t_address,t_struct(Counter)2963_storage)"
      },
      {
        "astId": 1982,
        "contract": "contracts/1p/OneP.sol:OneP",
        "label": "_PERMIT_TYPEHASH_DEPRECATED_SLOT",
        "offset": 0,
        "slot": "154",
        "type": "t_bytes32"
      },
      {
        "astId": 2138,
        "contract": "contracts/1p/OneP.sol:OneP",
        "label": "__gap",
        "offset": 0,
        "slot": "155",
        "type": "t_array(t_uint256)49_storage"
      },
      {
        "astId": 851,
        "contract": "contracts/1p/OneP.sol:OneP",
        "label": "_paused",
        "offset": 0,
        "slot": "204",
        "type": "t_bool"
      },
      {
        "astId": 956,
        "contract": "contracts/1p/OneP.sol:OneP",
        "label": "__gap",
        "offset": 0,
        "slot": "205",
        "type": "t_array(t_uint256)49_storage"
      },
      {
        "astId": 1946,
        "contract": "contracts/1p/OneP.sol:OneP",
        "label": "__gap",
        "offset": 0,
        "slot": "254",
        "type": "t_array(t_uint256)50_storage"
      },
      {
        "astId": 1810,
        "contract": "contracts/1p/OneP.sol:OneP",
        "label": "_cap",
        "offset": 0,
        "slot": "304",
        "type": "t_uint256"
      },
      {
        "astId": 1885,
        "contract": "contracts/1p/OneP.sol:OneP",
        "label": "__gap",
        "offset": 0,
        "slot": "305",
        "type": "t_array(t_uint256)50_storage"
      },
      {
        "astId": 1797,
        "contract": "contracts/1p/OneP.sol:OneP",
        "label": "__gap",
        "offset": 0,
        "slot": "355",
        "type": "t_array(t_uint256)50_storage"
      },
      {
        "astId": 11,
        "contract": "contracts/1p/OneP.sol:OneP",
        "label": "_owner",
        "offset": 0,
        "slot": "405",
        "type": "t_address"
      },
      {
        "astId": 131,
        "contract": "contracts/1p/OneP.sol:OneP",
        "label": "__gap",
        "offset": 0,
        "slot": "406",
        "type": "t_array(t_uint256)49_storage"
      },
      {
        "astId": 972,
        "contract": "contracts/1p/OneP.sol:OneP",
        "label": "_status",
        "offset": 0,
        "slot": "455",
        "type": "t_uint256"
      },
      {
        "astId": 1041,
        "contract": "contracts/1p/OneP.sol:OneP",
        "label": "__gap",
        "offset": 0,
        "slot": "456",
        "type": "t_array(t_uint256)49_storage"
      },
      {
        "astId": 512,
        "contract": "contracts/1p/OneP.sol:OneP",
        "label": "__gap",
        "offset": 0,
        "slot": "505",
        "type": "t_array(t_uint256)50_storage"
      },
      {
        "astId": 828,
        "contract": "contracts/1p/OneP.sol:OneP",
        "label": "__gap",
        "offset": 0,
        "slot": "555",
        "type": "t_array(t_uint256)50_storage"
      },
      {
        "astId": 6507,
        "contract": "contracts/1p/OneP.sol:OneP",
        "label": "usernameRegistry",
        "offset": 0,
        "slot": "605",
        "type": "t_mapping(t_string_memory_ptr,t_struct(UserProfile)7403_storage)"
      },
      {
        "astId": 6512,
        "contract": "contracts/1p/OneP.sol:OneP",
        "label": "userStateRegistry",
        "offset": 0,
        "slot": "606",
        "type": "t_mapping(t_string_memory_ptr,t_struct(UserState)7418_storage)"
      },
      {
        "astId": 6517,
        "contract": "contracts/1p/OneP.sol:OneP",
        "label": "attemptRegistry",
        "offset": 0,
        "slot": "607",
        "type": "t_mapping(t_uint64,t_struct(Attempt)7432_storage)"
      },
      {
        "astId": 6520,
        "contract": "contracts/1p/OneP.sol:OneP",
        "label": "allUsernames",
        "offset": 0,
        "slot": "608",
        "type": "t_struct(Bytes32Set)6082_storage"
      },
      {
        "astId": 6523,
        "contract": "contracts/1p/OneP.sol:OneP",
        "label": "allUsernamesArray",
        "offset": 0,
        "slot": "610",
        "type": "t_array(t_string_storage)dyn_storage"
      },
      {
        "astId": 6525,
        "contract": "contracts/1p/OneP.sol:OneP",
        "label": "nextAttemptId",
        "offset": 0,
        "slot": "611",
        "type": "t_uint64"
      },
      {
        "astId": 6527,
        "contract": "contracts/1p/OneP.sol:OneP",
        "label": "verifier",
        "offset": 8,
        "slot": "611",
        "type": "t_address"
      }
    ],
    "types": {
      "t_address": {
        "encoding": "inplace",
        "label": "address",
        "numberOfBytes": "20"
      },
      "t_array(t_bytes32)dyn_storage": {
        "base": "t_bytes32",
        "encoding": "dynamic_array",
        "label": "bytes32[]",
        "numberOfBytes": "32"
      },
      "t_array(t_string_storage)dyn_storage": {
        "base": "t_string_storage",
        "encoding": "dynamic_array",
        "label": "string[]",
        "numberOfBytes": "32"
      },
      "t_array(t_uint256)45_storage": {
        "base": "t_uint256",
        "encoding": "inplace",
        "label": "uint256[45]",
        "numberOfBytes": "1440"
      },
      "t_array(t_uint256)48_storage": {
        "base": "t_uint256",
        "encoding": "inplace",
        "label": "uint256[48]",
        "numberOfBytes": "1536"
      },
      "t_array(t_uint256)49_storage": {
        "base": "t_uint256",
        "encoding": "inplace",
        "label": "uint256[49]",
        "numberOfBytes": "1568"
      },
      "t_array(t_uint256)50_storage": {
        "base": "t_uint256",
        "encoding": "inplace",
        "label": "uint256[50]",
        "numberOfBytes": "1600"
      },
      "t_bool": {
        "encoding": "inplace",
        "label": "bool",
        "numberOfBytes": "1"
      },
      "t_bytes32": {
        "encoding": "inplace",
        "label": "bytes32",
        "numberOfBytes": "32"
      },
      "t_enum(Status)7396": {
        "encoding": "inplace",
        "label": "enum OnePProtocol.Status",
        "numberOfBytes": "1"
      },
      "t_mapping(t_address,t_mapping(t_address,t_uint256))": {
        "encoding": "mapping",
        "key": "t_address",
        "label": "mapping(address => mapping(address => uint256))",
        "numberOfBytes": "32",
        "value": "t_mapping(t_address,t_uint256)"
      },
      "t_mapping(t_address,t_struct(Counter)2963_storage)": {
        "encoding": "mapping",
        "key": "t_address",
        "label": "mapping(address => struct CountersUpgradeable.Counter)",
        "numberOfBytes": "32",
        "value": "t_struct(Counter)2963_storage"
      },
      "t_mapping(t_address,t_uint256)": {
        "encoding": "mapping",
        "key": "t_address",
        "label": "mapping(address => uint256)",
        "numberOfBytes": "32",
        "value": "t_uint256"
      },
      "t_mapping(t_bytes32,t_uint256)": {
        "encoding": "mapping",
        "key": "t_bytes32",
        "label": "mapping(bytes32 => uint256)",
        "numberOfBytes": "32",
        "value": "t_uint256"
      },
      "t_mapping(t_string_memory_ptr,t_struct(UserProfile)7403_storage)": {
        "encoding": "mapping",
        "key": "t_string_memory_ptr",
        "label": "mapping(string => struct OnePProtocol.UserProfile)",
        "numberOfBytes": "32",
        "value": "t_struct(UserProfile)7403_storage"
      },
      "t_mapping(t_string_memory_ptr,t_struct(UserState)7418_storage)": {
        "encoding": "mapping",
        "key": "t_string_memory_ptr",
        "label": "mapping(string => struct OnePProtocol.UserState)",
        "numberOfBytes": "32",
        "value": "t_struct(UserState)7418_storage"
      },
      "t_mapping(t_uint64,t_struct(Attempt)7432_storage)": {
        "encoding": "mapping",
        "key": "t_uint64",
        "label": "mapping(uint64 => struct OnePProtocol.Attempt)",
        "numberOfBytes": "32",
        "value": "t_struct(Attempt)7432_storage"
      },
      "t_string_memory_ptr": {
        "encoding": "bytes",
        "label": "string",
        "numberOfBytes": "32"
      },
      "t_string_storage": {
        "encoding": "bytes",
        "label": "string",
        "numberOfBytes": "32"
      },
      "t_struct(Attempt)7432_storage": {
        "encoding": "inplace",
        "label": "struct OnePProtocol.Attempt",
        "members": [
          {
            "astId": 7420,
            "contract": "contracts/1p/OneP.sol:OneP",
            "label": "id",
            "offset": 0,
            "slot": "0",
            "type": "t_uint64"
          },
          {
            "astId": 7422,
            "contract": "contracts/1p/OneP.sol:OneP",
            "label": "onePUser",
            "offset": 0,
            "slot": "1",
            "type": "t_string_storage"
          },
          {
            "astId": 7424,
            "contract": "contracts/1p/OneP.sol:OneP",
            "label": "hotWallet",
            "offset": 0,
            "slot": "2",
            "type": "t_address"
          },
          {
            "astId": 7426,
            "contract": "contracts/1p/OneP.sol:OneP",
            "label": "expiresAt",
            "offset": 20,
            "slot": "2",
            "type": "t_uint64"
          },
          {
            "astId": 7428,
            "contract": "contracts/1p/OneP.sol:OneP",
            "label": "difficulty",
            "offset": 0,
            "slot": "3",
            "type": "t_uint64"
          },
          {
            "astId": 7431,
            "contract": "contracts/1p/OneP.sol:OneP",
            "label": "status",
            "offset": 8,
            "slot": "3",
            "type": "t_enum(Status)7396"
          }
        ],
        "numberOfBytes": "128"
      },
      "t_struct(Bytes32Set)6082_storage": {
        "encoding": "inplace",
        "label": "struct EnumerableSet.Bytes32Set",
        "members": [
          {
            "astId": 6081,
            "contract": "contracts/1p/OneP.sol:OneP",
            "label": "_inner",
            "offset": 0,
            "slot": "0",
            "type": "t_struct(Set)5888_storage"
          }
        ],
        "numberOfBytes": "64"
      },
      "t_struct(Counter)2963_storage": {
        "encoding": "inplace",
        "label": "struct CountersUpgradeable.Counter",
        "members": [
          {
            "astId": 2962,
            "contract": "contracts/1p/OneP.sol:OneP",
            "label": "_value",
            "offset": 0,
            "slot": "0",
            "type": "t_uint256"
          }
        ],
        "numberOfBytes": "32"
      },
      "t_struct(Set)5888_storage": {
        "encoding": "inplace",
        "label": "struct EnumerableSet.Set",
        "members": [
          {
            "astId": 5883,
            "contract": "contracts/1p/OneP.sol:OneP",
            "label": "_values",
            "offset": 0,
            "slot": "0",
            "type": "t_array(t_bytes32)dyn_storage"
          },
          {
            "astId": 5887,
            "contract": "contracts/1p/OneP.sol:OneP",
            "label": "_indexes",
            "offset": 0,
            "slot": "1",
            "type": "t_mapping(t_bytes32,t_uint256)"
          }
        ],
        "numberOfBytes": "64"
      },
      "t_struct(UserProfile)7403_storage": {
        "encoding": "inplace",
        "label": "struct OnePProtocol.UserProfile",
        "members": [
          {
            "astId": 7398,
            "contract": "contracts/1p/OneP.sol:OneP",
            "label": "name",
            "offset": 0,
            "slot": "0",
            "type": "t_string_storage"
          },
          {
            "astId": 7400,
            "contract": "contracts/1p/OneP.sol:OneP",
            "label": "img",
            "offset": 0,
            "slot": "1",
            "type": "t_string_storage"
          },
          {
            "astId": 7402,
            "contract": "contracts/1p/OneP.sol:OneP",
            "label": "account",
            "offset": 0,
            "slot": "2",
            "type": "t_address"
          }
        ],
        "numberOfBytes": "96"
      },
      "t_struct(UserState)7418_storage": {
        "encoding": "inplace",
        "label": "struct OnePProtocol.UserState",
        "members": [
          {
            "astId": 7405,
            "contract": "contracts/1p/OneP.sol:OneP",
            "label": "totalAttempts",
            "offset": 0,
            "slot": "0",
            "type": "t_uint64"
          },
          {
            "astId": 7407,
            "contract": "contracts/1p/OneP.sol:OneP",
            "label": "successCount",
            "offset": 8,
            "slot": "0",
            "type": "t_uint64"
          },
          {
            "astId": 7409,
            "contract": "contracts/1p/OneP.sol:OneP",
            "label": "failureCount",
            "offset": 16,
            "slot": "0",
            "type": "t_uint64"
          },
          {
            "astId": 7411,
            "contract": "contracts/1p/OneP.sol:OneP",
            "label": "firstFailureTs",
            "offset": 24,
            "slot": "0",
            "type": "t_uint64"
          },
          {
            "astId": 7413,
            "contract": "contracts/1p/OneP.sol:OneP",
            "label": "lastFailureTs",
            "offset": 0,
            "slot": "1",
            "type": "t_uint64"
          },
          {
            "astId": 7415,
            "contract": "contracts/1p/OneP.sol:OneP",
            "label": "d",
            "offset": 8,
            "slot": "1",
            "type": "t_uint64"
          },
          {
            "astId": 7417,
            "contract": "contracts/1p/OneP.sol:OneP",
            "label": "highAbuse",
            "offset": 16,
            "slot": "1",
            "type": "t_bool"
          }
        ],
        "numberOfBytes": "64"
      },
      "t_uint256": {
        "encoding": "inplace",
        "label": "uint256",
        "numberOfBytes": "32"
      },
      "t_uint64": {
        "encoding": "inplace",
        "label": "uint64",
        "numberOfBytes": "8"
      },
      "t_uint8": {
        "encoding": "inplace",
        "label": "uint8",
        "numberOfBytes": "1"
      }
    }
  }
}