{
  "address": "0x936717B9D775f946FF358f5439989E198b505ce0",
  "abi": [
    {
      "anonymous": false,
      "inputs": [
        {
          "indexed": true,
          "internalType": "bytes32",
          "name": "intentHash",
          "type": "bytes32"
        },
        {
          "indexed": false,
          "internalType": "bytes32",
          "name": "secret",
          "type": "bytes32"
        }
      ],
      "name": "BridgeIntentCompleted",
      "type": "event"
    },
    {
      "anonymous": false,
      "inputs": [
        {
          "indexed": true,
          "internalType": "bytes32",
          "name": "intentHash",
          "type": "bytes32"
        },
        {
          "indexed": true,
          "internalType": "address",
          "name": "user",
          "type": "address"
        },
        {
          "indexed": false,
          "internalType": "uint256",
          "name": "amount",
          "type": "uint256"
        },
        {
          "indexed": false,
          "internalType": "uint256",
          "name": "sourceChainId",
          "type": "uint256"
        },
        {
          "indexed": false,
          "internalType": "uint256",
          "name": "targetChainId",
          "type": "uint256"
        },
        {
          "indexed": false,
          "internalType": "bytes32",
          "name": "hashlock",
          "type": "bytes32"
        },
        {
          "indexed": false,
          "internalType": "uint256",
          "name": "timelock",
          "type": "uint256"
        }
      ],
      "name": "BridgeIntentCreated",
      "type": "event"
    },
    {
      "anonymous": false,
      "inputs": [
        {
          "indexed": true,
          "internalType": "bytes32",
          "name": "intentHash",
          "type": "bytes32"
        }
      ],
      "name": "BridgeIntentRefunded",
      "type": "event"
    },
    {
      "anonymous": false,
      "inputs": [
        {
          "indexed": true,
          "internalType": "bytes32",
          "name": "intentHash",
          "type": "bytes32"
        },
        {
          "indexed": true,
          "internalType": "address",
          "name": "maker",
          "type": "address"
        },
        {
          "indexed": false,
          "internalType": "bytes",
          "name": "orderData",
          "type": "bytes"
        }
      ],
      "name": "FusionOrderCreated",
      "type": "event"
    },
    {
      "anonymous": false,
      "inputs": [
        {
          "indexed": false,
          "internalType": "uint8",
          "name": "version",
          "type": "uint8"
        }
      ],
      "name": "Initialized",
      "type": "event"
    },
    {
      "anonymous": false,
      "inputs": [
        {
          "indexed": true,
          "internalType": "address",
          "name": "previousOwner",
          "type": "address"
        },
        {
          "indexed": true,
          "internalType": "address",
          "name": "newOwner",
          "type": "address"
        }
      ],
      "name": "OwnershipTransferred",
      "type": "event"
    },
    {
      "inputs": [
        {
          "internalType": "bytes32",
          "name": "",
          "type": "bytes32"
        }
      ],
      "name": "bridgeIntents",
      "outputs": [
        {
          "internalType": "address",
          "name": "user",
          "type": "address"
        },
        {
          "internalType": "uint256",
          "name": "amount",
          "type": "uint256"
        },
        {
          "internalType": "uint256",
          "name": "sourceChainId",
          "type": "uint256"
        },
        {
          "internalType": "uint256",
          "name": "targetChainId",
          "type": "uint256"
        },
        {
          "internalType": "bytes32",
          "name": "hashlock",
          "type": "bytes32"
        },
        {
          "internalType": "uint256",
          "name": "timelock",
          "type": "uint256"
        },
        {
          "internalType": "bool",
          "name": "completed",
          "type": "bool"
        },
        {
          "internalType": "bool",
          "name": "refunded",
          "type": "bool"
        }
      ],
      "stateMutability": "view",
      "type": "function"
    },
    {
      "inputs": [
        {
          "internalType": "bytes32",
          "name": "intentHash",
          "type": "bytes32"
        },
        {
          "internalType": "bytes32",
          "name": "secret",
          "type": "bytes32"
        }
      ],
      "name": "completeBridgeIntent",
      "outputs": [],
      "stateMutability": "nonpayable",
      "type": "function"
    },
    {
      "inputs": [
        {
          "internalType": "uint256",
          "name": "amount",
          "type": "uint256"
        },
        {
          "internalType": "uint256",
          "name": "targetChainId",
          "type": "uint256"
        },
        {
          "internalType": "bytes32",
          "name": "hashlock",
          "type": "bytes32"
        },
        {
          "internalType": "uint256",
          "name": "timelock",
          "type": "uint256"
        }
      ],
      "name": "createBridgeIntent",
      "outputs": [
        {
          "internalType": "bytes32",
          "name": "intentHash",
          "type": "bytes32"
        }
      ],
      "stateMutability": "nonpayable",
      "type": "function"
    },
    {
      "inputs": [
        {
          "internalType": "bytes32",
          "name": "intentHash",
          "type": "bytes32"
        }
      ],
      "name": "getBridgeIntent",
      "outputs": [
        {
          "components": [
            {
              "internalType": "address",
              "name": "user",
              "type": "address"
            },
            {
              "internalType": "uint256",
              "name": "amount",
              "type": "uint256"
            },
            {
              "internalType": "uint256",
              "name": "sourceChainId",
              "type": "uint256"
            },
            {
              "internalType": "uint256",
              "name": "targetChainId",
              "type": "uint256"
            },
            {
              "internalType": "bytes32",
              "name": "hashlock",
              "type": "bytes32"
            },
            {
              "internalType": "uint256",
              "name": "timelock",
              "type": "uint256"
            },
            {
              "internalType": "bool",
              "name": "completed",
              "type": "bool"
            },
            {
              "internalType": "bool",
              "name": "refunded",
              "type": "bool"
            }
          ],
          "internalType": "struct UnrealBridge.BridgeIntent",
          "name": "",
          "type": "tuple"
        }
      ],
      "stateMutability": "view",
      "type": "function"
    },
    {
      "inputs": [
        {
          "internalType": "address",
          "name": "unrealToken_",
          "type": "address"
        }
      ],
      "name": "initialize",
      "outputs": [],
      "stateMutability": "nonpayable",
      "type": "function"
    },
    {
      "inputs": [],
      "name": "owner",
      "outputs": [
        {
          "internalType": "address",
          "name": "",
          "type": "address"
        }
      ],
      "stateMutability": "view",
      "type": "function"
    },
    {
      "inputs": [
        {
          "internalType": "bytes32",
          "name": "intentHash",
          "type": "bytes32"
        }
      ],
      "name": "refundBridgeIntent",
      "outputs": [],
      "stateMutability": "nonpayable",
      "type": "function"
    },
    {
      "inputs": [],
      "name": "renounceOwnership",
      "outputs": [],
      "stateMutability": "nonpayable",
      "type": "function"
    },
    {
      "inputs": [
        {
          "internalType": "address",
          "name": "newUnrealToken",
          "type": "address"
        }
      ],
      "name": "setUnrealToken",
      "outputs": [],
      "stateMutability": "nonpayable",
      "type": "function"
    },
    {
      "inputs": [
        {
          "internalType": "address",
          "name": "newOwner",
          "type": "address"
        }
      ],
      "name": "transferOwnership",
      "outputs": [],
      "stateMutability": "nonpayable",
      "type": "function"
    },
    {
      "inputs": [],
      "name": "unrealToken",
      "outputs": [
        {
          "internalType": "contract UnrealToken",
          "name": "",
          "type": "address"
        }
      ],
      "stateMutability": "view",
      "type": "function"
    }
  ],
  "transactionHash": "0x61a033336cfbf2840fc84e22bc1a5ace29b35140d66cee8a516d502f5192966c",
  "args": [],
  "numDeployments": 1,
  "solcInputHash": "95dcf1a94714cd564ec2aed9cc2688c4",
  "bytecode": "0x6080604052348015600f57600080fd5b506111a58061001f6000396000f3fe608060405234801561001057600080fd5b50600436106100a95760003560e01c8063b03c253a11610071578063b03c253a146101c0578063c4d66de8146101d3578063e67e214a146101e6578063f2fde38b146101f9578063f62728201461020c578063fd88772e1461034257600080fd5b80635ef0cd41146100ae578063715018a6146100c35780637d5ecad8146100cb5780638306ff7c146100f15780638da5cb5b1461019b575b600080fd5b6100c16100bc366004610fee565b610355565b005b6100c1610609565b6100de6100d9366004611007565b61061d565b6040519081526020015b60405180910390f35b6101526100ff366004610fee565b60986020526000908152604090208054600182015460028301546003840154600485015460058601546006909601546001600160a01b039095169593949293919290919060ff8082169161010090041688565b604080516001600160a01b0390991689526020890197909752958701949094526060860192909252608085015260a0840152151560c0830152151560e0820152610100016100e8565b6033546001600160a01b03165b6040516001600160a01b0390911681526020016100e8565b6100c16101ce366004611039565b610980565b6100c16101e1366004611039565b6109aa565b6097546101a8906001600160a01b031681565b6100c1610207366004611039565b610ade565b6102d961021a366004610fee565b6040805161010081018252600080825260208201819052918101829052606081018290526080810182905260a0810182905260c0810182905260e0810191909152506000908152609860209081526040918290208251610100808201855282546001600160a01b031682526001830154938201939093526002820154938101939093526003810154606084015260048101546080840152600581015460a08401526006015460ff808216151560c085015291900416151560e082015290565b6040516100e8919081516001600160a01b031681526020808301519082015260408083015190820152606080830151908201526080808301519082015260a0828101519082015260c08083015115159082015260e0918201511515918101919091526101000190565b6100c1610350366004611069565b610b57565b60008181526098602052604090205481906001600160a01b03166103b85760405162461bcd60e51b8152602060048201526015602482015274125b9d195b9d08191bd95cc81b9bdd08195e1a5cdd605a1b60448201526064015b60405180910390fd5b60008181526098602052604090206006015460ff16156104155760405162461bcd60e51b8152602060048201526018602482015277125b9d195b9d08185b1c9958591e4818dbdb5c1b195d195960421b60448201526064016103af565b600081815260986020526040902060060154610100900460ff16156104765760405162461bcd60e51b8152602060048201526017602482015276125b9d195b9d08185b1c9958591e481c99599d5b991959604a1b60448201526064016103af565b61047e610e2d565b6000828152609860205260409020600581015442116104d45760405162461bcd60e51b8152602060048201526012602482015271125b9d195b9d081b9bdd08195e1c1a5c995960721b60448201526064016103af565b80546001600160a01b031633146105245760405162461bcd60e51b815260206004820152601460248201527313db9b1e481d5cd95c8818d85b881c99599d5b9960621b60448201526064016103af565b60068101805461ff0019166101001790556097548154600183015460405163a9059cbb60e01b81526001600160a01b039283166004820152602481019190915291169063a9059cbb906044016020604051808303816000875af115801561058f573d6000803e3d6000fd5b505050506040513d601f19601f820116820180604052508101906105b3919061108b565b6105cf5760405162461bcd60e51b81526004016103af906110ad565b60405183907fa86d12f70d193e3e57256c6a94a31016554ffe1f9d20bda652e1d934c1feb59d90600090a2506106056001606555565b5050565b610611610e8d565b61061b6000610ee7565b565b6000610627610e2d565b600085116106775760405162461bcd60e51b815260206004820152601d60248201527f416d6f756e74206d7573742062652067726561746572207468616e203000000060448201526064016103af565b4282116106c65760405162461bcd60e51b815260206004820152601e60248201527f54696d656c6f636b206d75737420626520696e2074686520667574757265000060448201526064016103af565b826107065760405162461bcd60e51b815260206004820152601060248201526f496e76616c696420686173686c6f636b60801b60448201526064016103af565b6040516bffffffffffffffffffffffff193360601b16602082015260348101869052466054820152607481018590526094810184905260b481018390524260d482015260f40160408051808303601f1901815282825280516020918201206101008085018452338086528386018b815246878701908152606088018c8152608089018c815260a08a018c8152600060c08c0181815260e08d018281528a83526098909b52908b90209b518c546001600160a01b0319166001600160a01b03918216178d55955160018d0155935160028c0155915160038b0155516004808b0191909155905160058a0155905160069098018054965161ffff1990971698151561ff001916989098179515159093029490941790955560975493516323b872dd60e01b81529081019490945230602485015260448401899052935016906323b872dd906064016020604051808303816000875af115801561086a573d6000803e3d6000fd5b505050506040513d601f19601f8201168201806040525081019061088e919061108b565b6108aa5760405162461bcd60e51b81526004016103af906110ad565b604080518681524660208201529081018590526060810184905260808101839052339082907f72614130f2d25b77c9d73d0179f1f1d5622f0c8ed381ef2b519c109cfbeaa9d09060a00160405180910390a36040805160208101839052908101869052606081018590526000906080016040516020818303038152906040529050336001600160a01b0316827fab60a75ebac7469bb453c3cd7c5b64d79bd277c3393bb300c9e6a098d4c8bb198360405161096591906110d6565b60405180910390a3506109786001606555565b949350505050565b610988610e8d565b609780546001600160a01b0319166001600160a01b0392909216919091179055565b600054610100900460ff16158080156109ca5750600054600160ff909116105b806109e45750303b1580156109e4575060005460ff166001145b610a475760405162461bcd60e51b815260206004820152602e60248201527f496e697469616c697a61626c653a20636f6e747261637420697320616c72656160448201526d191e481a5b9a5d1a585b1a5e995960921b60648201526084016103af565b6000805460ff191660011790558015610a6a576000805461ff0019166101001790555b610a72610f39565b610a7a610f68565b609780546001600160a01b0319166001600160a01b0384161790558015610605576000805461ff0019169055604051600181527f7f26b83ff96e1f2b6a682f133852f6798a09c465da95921460cefb38474024989060200160405180910390a15050565b610ae6610e8d565b6001600160a01b038116610b4b5760405162461bcd60e51b815260206004820152602660248201527f4f776e61626c653a206e6577206f776e657220697320746865207a65726f206160448201526564647265737360d01b60648201526084016103af565b610b5481610ee7565b50565b60008281526098602052604090205482906001600160a01b0316610bb55760405162461bcd60e51b8152602060048201526015602482015274125b9d195b9d08191bd95cc81b9bdd08195e1a5cdd605a1b60448201526064016103af565b60008181526098602052604090206006015460ff1615610c125760405162461bcd60e51b8152602060048201526018602482015277125b9d195b9d08185b1c9958591e4818dbdb5c1b195d195960421b60448201526064016103af565b600081815260986020526040902060060154610100900460ff1615610c735760405162461bcd60e51b8152602060048201526017602482015276125b9d195b9d08185b1c9958591e481c99599d5b991959604a1b60448201526064016103af565b610c7b610e2d565b6000838152609860209081526040918290206004810154835192830186905290929091016040516020818303038152906040528051906020012014610cf35760405162461bcd60e51b815260206004820152600e60248201526d125b9d985b1a59081cd958dc995d60921b60448201526064016103af565b8060050154421115610d385760405162461bcd60e51b815260206004820152600e60248201526d125b9d195b9d08195e1c1a5c995960921b60448201526064016103af565b60068101805460ff1916600190811790915560975482549183015460405163a9059cbb60e01b81526001600160a01b039384166004820152602481019190915291169063a9059cbb906044016020604051808303816000875af1158015610da3573d6000803e3d6000fd5b505050506040513d601f19601f82011682018060405250810190610dc7919061108b565b610de35760405162461bcd60e51b81526004016103af906110ad565b837f28c119fc8610610ca1a4db00ef24b2e977ceb480c0337163d112d92647c62a4484604051610e1591815260200190565b60405180910390a250610e286001606555565b505050565b600260655403610e7f5760405162461bcd60e51b815260206004820152601f60248201527f5265656e7472616e637947756172643a207265656e7472616e742063616c6c0060448201526064016103af565b6002606555565b6001606555565b6033546001600160a01b0316331461061b5760405162461bcd60e51b815260206004820181905260248201527f4f776e61626c653a2063616c6c6572206973206e6f7420746865206f776e657260448201526064016103af565b603380546001600160a01b038381166001600160a01b0319831681179093556040519116919082907f8be0079c531659141344cd1fd0a4f28419497f9722a3daafe3b4186f6b6457e090600090a35050565b600054610100900460ff16610f605760405162461bcd60e51b81526004016103af90611124565b61061b610f97565b600054610100900460ff16610f8f5760405162461bcd60e51b81526004016103af90611124565b61061b610fc7565b600054610100900460ff16610fbe5760405162461bcd60e51b81526004016103af90611124565b61061b33610ee7565b600054610100900460ff16610e865760405162461bcd60e51b81526004016103af90611124565b60006020828403121561100057600080fd5b5035919050565b6000806000806080858703121561101d57600080fd5b5050823594602084013594506040840135936060013592509050565b60006020828403121561104b57600080fd5b81356001600160a01b038116811461106257600080fd5b9392505050565b6000806040838503121561107c57600080fd5b50508035926020909101359150565b60006020828403121561109d57600080fd5b8151801515811461106257600080fd5b6020808252600f908201526e151c985b9cd9995c8819985a5b1959608a1b604082015260600190565b602081526000825180602084015260005b8181101561110457602081860181015160408684010152016110e7565b506000604082850101526040601f19601f83011684010191505092915050565b6020808252602b908201527f496e697469616c697a61626c653a20636f6e7472616374206973206e6f74206960408201526a6e697469616c697a696e6760a81b60608201526080019056fea264697066735822122065dd8c753ee73e42b732558376db67e9ff8e4adace964b6c7df1390b44dc41aa64736f6c634300081e0033",
  "devdoc": {
    "details": "Bridge contract for $UNREAL utility token with 1inch Fusion+ integration Implements hashlock/timelock mechanism for cross-chain atomic swaps",
    "events": {
      "Initialized(uint8)": {
        "details": "Triggered when the contract has been initialized or reinitialized."
      }
    },
    "kind": "dev",
    "methods": {
      "completeBridgeIntent(bytes32,bytes32)": {
        "details": "Complete bridge intent by revealing secret",
        "params": {
          "intentHash": "Hash of the bridge intent",
          "secret": "Secret that matches the hashlock"
        }
      },
      "createBridgeIntent(uint256,uint256,bytes32,uint256)": {
        "details": "Create a bridge intent with hashlock/timelock",
        "params": {
          "amount": "Amount to bridge",
          "hashlock": "Hash of the secret (keccak256 of secret)",
          "targetChainId": "Target chain ID",
          "timelock": "Expiration timestamp"
        }
      },
      "getBridgeIntent(bytes32)": {
        "details": "Get bridge intent details",
        "params": {
          "intentHash": "Hash of the bridge intent"
        }
      },
      "owner()": {
        "details": "Returns the address of the current owner."
      },
      "refundBridgeIntent(bytes32)": {
        "details": "Refund bridge intent after timelock expires",
        "params": {
          "intentHash": "Hash of the bridge intent"
        }
      },
      "renounceOwnership()": {
        "details": "Leaves the contract without owner. It will not be possible to call `onlyOwner` functions. Can only be called by the current owner. NOTE: Renouncing ownership will leave the contract without an owner, thereby disabling any functionality that is only available to the owner."
      },
      "setUnrealToken(address)": {
        "details": "Emergency function to update UNREAL token address",
        "params": {
          "newUnrealToken": "New UNREAL token address"
        }
      },
      "transferOwnership(address)": {
        "details": "Transfers ownership of the contract to a new account (`newOwner`). Can only be called by the current owner."
      }
    },
    "title": "UnrealBridge",
    "version": 1
  },
  "userdoc": {
    "kind": "user",
    "methods": {},
    "version": 1
  },
  "storageLayout": {
    "storage": [
      {
        "astId": 530,
        "contract": "contracts/UnrealBridge.sol:UnrealBridge",
        "label": "_initialized",
        "offset": 0,
        "slot": "0",
        "type": "t_uint8"
      },
      {
        "astId": 533,
        "contract": "contracts/UnrealBridge.sol:UnrealBridge",
        "label": "_initializing",
        "offset": 1,
        "slot": "0",
        "type": "t_bool"
      },
      {
        "astId": 2580,
        "contract": "contracts/UnrealBridge.sol:UnrealBridge",
        "label": "__gap",
        "offset": 0,
        "slot": "1",
        "type": "t_array(t_uint256)50_storage"
      },
      {
        "astId": 11,
        "contract": "contracts/UnrealBridge.sol:UnrealBridge",
        "label": "_owner",
        "offset": 0,
        "slot": "51",
        "type": "t_address"
      },
      {
        "astId": 131,
        "contract": "contracts/UnrealBridge.sol:UnrealBridge",
        "label": "__gap",
        "offset": 0,
        "slot": "52",
        "type": "t_array(t_uint256)49_storage"
      },
      {
        "astId": 972,
        "contract": "contracts/UnrealBridge.sol:UnrealBridge",
        "label": "_status",
        "offset": 0,
        "slot": "101",
        "type": "t_uint256"
      },
      {
        "astId": 1041,
        "contract": "contracts/UnrealBridge.sol:UnrealBridge",
        "label": "__gap",
        "offset": 0,
        "slot": "102",
        "type": "t_array(t_uint256)49_storage"
      },
      {
        "astId": 7983,
        "contract": "contracts/UnrealBridge.sol:UnrealBridge",
        "label": "unrealToken",
        "offset": 0,
        "slot": "151",
        "type": "t_contract(UnrealToken)9383"
      },
      {
        "astId": 8005,
        "contract": "contracts/UnrealBridge.sol:UnrealBridge",
        "label": "bridgeIntents",
        "offset": 0,
        "slot": "152",
        "type": "t_mapping(t_bytes32,t_struct(BridgeIntent)8000_storage)"
      }
    ],
    "types": {
      "t_address": {
        "encoding": "inplace",
        "label": "address",
        "numberOfBytes": "20"
      },
      "t_array(t_uint256)49_storage": {
        "base": "t_uint256",
        "encoding": "inplace",
        "label": "uint256[49]",
        "numberOfBytes": "1568"
      },
      "t_array(t_uint256)50_storage": {
        "base": "t_uint256",
        "encoding": "inplace",
        "label": "uint256[50]",
        "numberOfBytes": "1600"
      },
      "t_bool": {
        "encoding": "inplace",
        "label": "bool",
        "numberOfBytes": "1"
      },
      "t_bytes32": {
        "encoding": "inplace",
        "label": "bytes32",
        "numberOfBytes": "32"
      },
      "t_contract(UnrealToken)9383": {
        "encoding": "inplace",
        "label": "contract UnrealToken",
        "numberOfBytes": "20"
      },
      "t_mapping(t_bytes32,t_struct(BridgeIntent)8000_storage)": {
        "encoding": "mapping",
        "key": "t_bytes32",
        "label": "mapping(bytes32 => struct UnrealBridge.BridgeIntent)",
        "numberOfBytes": "32",
        "value": "t_struct(BridgeIntent)8000_storage"
      },
      "t_struct(BridgeIntent)8000_storage": {
        "encoding": "inplace",
        "label": "struct UnrealBridge.BridgeIntent",
        "members": [
          {
            "astId": 7985,
            "contract": "contracts/UnrealBridge.sol:UnrealBridge",
            "label": "user",
            "offset": 0,
            "slot": "0",
            "type": "t_address"
          },
          {
            "astId": 7987,
            "contract": "contracts/UnrealBridge.sol:UnrealBridge",
            "label": "amount",
            "offset": 0,
            "slot": "1",
            "type": "t_uint256"
          },
          {
            "astId": 7989,
            "contract": "contracts/UnrealBridge.sol:UnrealBridge",
            "label": "sourceChainId",
            "offset": 0,
            "slot": "2",
            "type": "t_uint256"
          },
          {
            "astId": 7991,
            "contract": "contracts/UnrealBridge.sol:UnrealBridge",
            "label": "targetChainId",
            "offset": 0,
            "slot": "3",
            "type": "t_uint256"
          },
          {
            "astId": 7993,
            "contract": "contracts/UnrealBridge.sol:UnrealBridge",
            "label": "hashlock",
            "offset": 0,
            "slot": "4",
            "type": "t_bytes32"
          },
          {
            "astId": 7995,
            "contract": "contracts/UnrealBridge.sol:UnrealBridge",
            "label": "timelock",
            "offset": 0,
            "slot": "5",
            "type": "t_uint256"
          },
          {
            "astId": 7997,
            "contract": "contracts/UnrealBridge.sol:UnrealBridge",
            "label": "completed",
            "offset": 0,
            "slot": "6",
            "type": "t_bool"
          },
          {
            "astId": 7999,
            "contract": "contracts/UnrealBridge.sol:UnrealBridge",
            "label": "refunded",
            "offset": 1,
            "slot": "6",
            "type": "t_bool"
          }
        ],
        "numberOfBytes": "224"
      },
      "t_uint256": {
        "encoding": "inplace",
        "label": "uint256",
        "numberOfBytes": "32"
      },
      "t_uint8": {
        "encoding": "inplace",
        "label": "uint8",
        "numberOfBytes": "1"
      }
    }
  }
}