{
  "address": "0x27f19b7D6ADB7D8e3e4D431f96CB1B2934928664",
  "abi": [
    {
      "anonymous": false,
      "inputs": [
        {
          "indexed": false,
          "internalType": "bytes32",
          "name": "lockContractId",
          "type": "bytes32"
        },
        {
          "indexed": false,
          "internalType": "string",
          "name": "sourceChain",
          "type": "string"
        },
        {
          "indexed": false,
          "internalType": "string",
          "name": "sourceAddress",
          "type": "string"
        },
        {
          "indexed": false,
          "internalType": "address",
          "name": "destinationAddress",
          "type": "address"
        },
        {
          "indexed": false,
          "internalType": "uint256",
          "name": "amount",
          "type": "uint256"
        },
        {
          "indexed": false,
          "internalType": "string",
          "name": "preimage",
          "type": "string"
        }
      ],
      "name": "CrossChainSwapCompleted",
      "type": "event"
    },
    {
      "anonymous": false,
      "inputs": [
        {
          "indexed": false,
          "internalType": "uint8",
          "name": "version",
          "type": "uint8"
        }
      ],
      "name": "Initialized",
      "type": "event"
    },
    {
      "anonymous": false,
      "inputs": [
        {
          "indexed": true,
          "internalType": "address",
          "name": "previousOwner",
          "type": "address"
        },
        {
          "indexed": true,
          "internalType": "address",
          "name": "newOwner",
          "type": "address"
        }
      ],
      "name": "OwnershipTransferred",
      "type": "event"
    },
    {
      "anonymous": false,
      "inputs": [
        {
          "indexed": true,
          "internalType": "bytes32",
          "name": "lockContractId",
          "type": "bytes32"
        },
        {
          "indexed": false,
          "internalType": "bytes32",
          "name": "secretHash",
          "type": "bytes32"
        },
        {
          "indexed": true,
          "internalType": "address",
          "name": "recipient",
          "type": "address"
        },
        {
          "indexed": true,
          "internalType": "address",
          "name": "sender",
          "type": "address"
        },
        {
          "indexed": false,
          "internalType": "uint256",
          "name": "amount",
          "type": "uint256"
        },
        {
          "indexed": false,
          "internalType": "uint256",
          "name": "endtime",
          "type": "uint256"
        },
        {
          "indexed": false,
          "internalType": "string",
          "name": "targetChain",
          "type": "string"
        },
        {
          "indexed": false,
          "internalType": "string",
          "name": "targetAddress",
          "type": "string"
        }
      ],
      "name": "SwapInitiated",
      "type": "event"
    },
    {
      "anonymous": false,
      "inputs": [
        {
          "indexed": true,
          "internalType": "bytes32",
          "name": "lockContractId",
          "type": "bytes32"
        }
      ],
      "name": "SwapRefunded",
      "type": "event"
    },
    {
      "anonymous": false,
      "inputs": [
        {
          "indexed": true,
          "internalType": "bytes32",
          "name": "lockContractId",
          "type": "bytes32"
        },
        {
          "indexed": false,
          "internalType": "string",
          "name": "preimage",
          "type": "string"
        }
      ],
      "name": "SwapWithdrawn",
      "type": "event"
    },
    {
      "inputs": [
        {
          "internalType": "string",
          "name": "sourceChain",
          "type": "string"
        },
        {
          "internalType": "string",
          "name": "sourceAddress",
          "type": "string"
        },
        {
          "internalType": "address",
          "name": "destinationAddress",
          "type": "address"
        },
        {
          "internalType": "uint256",
          "name": "amount",
          "type": "uint256"
        },
        {
          "internalType": "string",
          "name": "preimage",
          "type": "string"
        }
      ],
      "name": "completeSwap",
      "outputs": [],
      "stateMutability": "nonpayable",
      "type": "function"
    },
    {
      "inputs": [
        {
          "internalType": "bytes32",
          "name": "lockContractId",
          "type": "bytes32"
        }
      ],
      "name": "getLockContract",
      "outputs": [
        {
          "internalType": "bytes32",
          "name": "secretHash",
          "type": "bytes32"
        },
        {
          "internalType": "address",
          "name": "recipient",
          "type": "address"
        },
        {
          "internalType": "address",
          "name": "sender",
          "type": "address"
        },
        {
          "internalType": "uint256",
          "name": "amount",
          "type": "uint256"
        },
        {
          "internalType": "uint256",
          "name": "endtime",
          "type": "uint256"
        },
        {
          "internalType": "bool",
          "name": "withdrawn",
          "type": "bool"
        },
        {
          "internalType": "bool",
          "name": "refunded",
          "type": "bool"
        },
        {
          "internalType": "string",
          "name": "preimage",
          "type": "string"
        }
      ],
      "stateMutability": "view",
      "type": "function"
    },
    {
      "inputs": [
        {
          "internalType": "bytes32",
          "name": "lockContractId",
          "type": "bytes32"
        }
      ],
      "name": "hasLockContract",
      "outputs": [
        {
          "internalType": "bool",
          "name": "",
          "type": "bool"
        }
      ],
      "stateMutability": "view",
      "type": "function"
    },
    {
      "inputs": [
        {
          "internalType": "contract UnrealToken",
          "name": "_unrealToken",
          "type": "address"
        }
      ],
      "name": "initialize",
      "outputs": [],
      "stateMutability": "nonpayable",
      "type": "function"
    },
    {
      "inputs": [
        {
          "internalType": "bytes32",
          "name": "secretHash",
          "type": "bytes32"
        },
        {
          "internalType": "address payable",
          "name": "recipient",
          "type": "address"
        },
        {
          "internalType": "uint256",
          "name": "amount",
          "type": "uint256"
        },
        {
          "internalType": "uint256",
          "name": "endtime",
          "type": "uint256"
        },
        {
          "internalType": "string",
          "name": "targetChain",
          "type": "string"
        },
        {
          "internalType": "string",
          "name": "targetAddress",
          "type": "string"
        }
      ],
      "name": "initiateSwap",
      "outputs": [
        {
          "internalType": "bytes32",
          "name": "lockContractId",
          "type": "bytes32"
        }
      ],
      "stateMutability": "nonpayable",
      "type": "function"
    },
    {
      "inputs": [
        {
          "internalType": "bytes32",
          "name": "",
          "type": "bytes32"
        }
      ],
      "name": "lockContracts",
      "outputs": [
        {
          "internalType": "bytes32",
          "name": "secretHash",
          "type": "bytes32"
        },
        {
          "internalType": "address payable",
          "name": "recipient",
          "type": "address"
        },
        {
          "internalType": "address payable",
          "name": "sender",
          "type": "address"
        },
        {
          "internalType": "uint256",
          "name": "amount",
          "type": "uint256"
        },
        {
          "internalType": "uint256",
          "name": "endtime",
          "type": "uint256"
        },
        {
          "internalType": "bool",
          "name": "withdrawn",
          "type": "bool"
        },
        {
          "internalType": "bool",
          "name": "refunded",
          "type": "bool"
        },
        {
          "internalType": "string",
          "name": "preimage",
          "type": "string"
        }
      ],
      "stateMutability": "view",
      "type": "function"
    },
    {
      "inputs": [],
      "name": "owner",
      "outputs": [
        {
          "internalType": "address",
          "name": "",
          "type": "address"
        }
      ],
      "stateMutability": "view",
      "type": "function"
    },
    {
      "inputs": [
        {
          "internalType": "bytes32",
          "name": "lockContractId",
          "type": "bytes32"
        }
      ],
      "name": "refund",
      "outputs": [
        {
          "internalType": "bool",
          "name": "success",
          "type": "bool"
        }
      ],
      "stateMutability": "nonpayable",
      "type": "function"
    },
    {
      "inputs": [],
      "name": "renounceOwnership",
      "outputs": [],
      "stateMutability": "nonpayable",
      "type": "function"
    },
    {
      "inputs": [
        {
          "internalType": "address",
          "name": "newOwner",
          "type": "address"
        }
      ],
      "name": "transferOwnership",
      "outputs": [],
      "stateMutability": "nonpayable",
      "type": "function"
    },
    {
      "inputs": [],
      "name": "unrealToken",
      "outputs": [
        {
          "internalType": "contract UnrealToken",
          "name": "",
          "type": "address"
        }
      ],
      "stateMutability": "view",
      "type": "function"
    },
    {
      "inputs": [
        {
          "internalType": "bytes32",
          "name": "lockContractId",
          "type": "bytes32"
        },
        {
          "internalType": "string",
          "name": "preimage",
          "type": "string"
        }
      ],
      "name": "withdraw",
      "outputs": [
        {
          "internalType": "bool",
          "name": "success",
          "type": "bool"
        }
      ],
      "stateMutability": "nonpayable",
      "type": "function"
    }
  ],
  "transactionHash": "0x7a8b67447050657d1caf9a2b825784ba9b578acb81ac08487e55562ef9bfdef6",
  "args": [],
  "numDeployments": 1,
  "solcInputHash": "db1e9b9bc50a7e979946683148bd1dda",
  "bytecode": "0x6080604052348015600f57600080fd5b5061194d8061001f6000396000f3fe608060405234801561001057600080fd5b50600436106100b45760003560e01c80638da5cb5b116100715780638da5cb5b1461014b578063bec7c79e14610170578063c4d66de814610183578063d4e81c3214610196578063e67e214a146101b7578063f2fde38b146101ca57600080fd5b806306a53665146100b95780631c0375fc146100e15780631da1170f1461010857806322fff5531461011b578063715018a6146101305780637249fbb614610138575b600080fd5b6100cc6100c7366004611247565b6101dd565b60405190151581526020015b60405180910390f35b6100f46100ef36600461130a565b61050c565b6040516100d8989796959493929190611373565b6100cc61011636600461130a565b610632565b61012e610129366004611430565b610652565b005b61012e6107a3565b6100cc61014636600461130a565b6107b7565b6033546001600160a01b03165b6040516001600160a01b0390911681526020016100d8565b6100f461017e36600461130a565b610a4b565b61012e6101913660046114f2565b610b2d565b6101a96101a4366004611516565b610c62565b6040519081526020016100d8565b609754610158906001600160a01b031681565b61012e6101d83660046114f2565b610ff7565b60006101e7611070565b826101f181610632565b6102165760405162461bcd60e51b815260040161020d9061159a565b60405180910390fd5b838360028160405160200161022b91906115d1565b60408051601f1981840301815290829052610245916115d1565b602060405180830381855afa158015610262573d6000803e3d6000fd5b5050506040513d601f19601f8201168201806040525081019061028591906115ed565b600083815260986020526040902054146102e15760405162461bcd60e51b815260206004820152601a60248201527f536563726574206861736820646f6573206e6f74206d61746368000000000000604482015260640161020d565b60008681526098602052604090206001015486906001600160a01b031633146103405760405162461bcd60e51b8152602060048201526011602482015270139bdd081d1a19481c9958da5c1a595b9d607a1b604482015260640161020d565b60008181526098602052604090206005015460ff16156103965760405162461bcd60e51b815260206004820152601160248201527020b63932b0b23c903bb4ba34323930bbb760791b604482015260640161020d565b600081815260986020526040902060050154610100900460ff16156103f05760405162461bcd60e51b815260206004820152601060248201526f105b1c9958591e481c99599d5b99195960821b604482015260640161020d565b60008781526098602052604090206006810161040c888261168f565b5060058101805460ff1916600190811790915560975490820154600383015460405163a9059cbb60e01b81526001600160a01b039283166004820152602481019190915291169063a9059cbb906044016020604051808303816000875af115801561047b573d6000803e3d6000fd5b505050506040513d601f19601f8201168201806040525081019061049f919061174e565b6104bb5760405162461bcd60e51b815260040161020d90611770565b877f131889cd7db85ba9c0b47ce492c8aeb9dc8b9e732f758ff6dd1263d8c0d6a095886040516104eb919061179f565b60405180910390a26001955050505050506105066001606555565b92915050565b6000806000806000806000606061052289610632565b61053e5760405162461bcd60e51b815260040161020d9061159a565b60008981526098602052604090208054600182015460028301546003840154600485015460058601546006870180546001600160a01b03968716969095169460ff808416936101009004169190819061059690611606565b80601f01602080910402602001604051908101604052809291908181526020018280546105c290611606565b801561060f5780601f106105e45761010080835404028352916020019161060f565b820191906000526020600020905b8154815290600101906020018083116105f257829003601f168201915b505050505090509850985098509850985098509850985050919395975091939597565b6000908152609860205260409020600201546001600160a01b0316151590565b61065a6110d0565b610662611070565b6000600289898989898989896040516020016106859897969594939291906117b2565b60408051601f198184030181529082905261069f916115d1565b602060405180830381855afa1580156106bc573d6000803e3d6000fd5b5050506040513d601f19601f820116820180604052508101906106df91906115ed565b6097546040516340c10f1960e01b81526001600160a01b038881166004830152602482018890529293509116906340c10f1990604401600060405180830381600087803b15801561072f57600080fd5b505af1158015610743573d6000803e3d6000fd5b505050507f738bc9d21dc6eecfc8ca61721b7239aea28c34e24d2a71a05cec5b4ce44b2b20818a8a8a8a8a8a8a8a6040516107869998979695949392919061182b565b60405180910390a1506107996001606555565b5050505050505050565b6107ab6110d0565b6107b5600061112a565b565b60006107c1611070565b816107cb81610632565b6107e75760405162461bcd60e51b815260040161020d9061159a565b60008381526098602052604090206002015483906001600160a01b031633146108435760405162461bcd60e51b815260206004820152600e60248201526d2737ba103a34329039b2b73232b960911b604482015260640161020d565b60008181526098602052604090206005015460ff16156108995760405162461bcd60e51b815260206004820152601160248201527020b63932b0b23c903bb4ba34323930bbb760791b604482015260640161020d565b600081815260986020526040902060050154610100900460ff16156108f35760405162461bcd60e51b815260206004820152601060248201526f105b1c9958591e481c99599d5b99195960821b604482015260640161020d565b60008181526098602052604090206004015442101561094b5760405162461bcd60e51b8152602060048201526014602482015273151a5b595b1bd8dac81b9bdd08195e1c1a5c995960621b604482015260640161020d565b6000848152609860205260409081902060058101805461ff00191661010017905560975460028201546003830154935163a9059cbb60e01b81526001600160a01b0391821660048201526024810194909452919291169063a9059cbb906044016020604051808303816000875af11580156109ca573d6000803e3d6000fd5b505050506040513d601f19601f820116820180604052508101906109ee919061174e565b610a0a5760405162461bcd60e51b815260040161020d90611770565b60405185907fc506b8643b74e7a2fbb400c79e929dd5dfffb301fb07afb3b0e8e7c47925cf5a90600090a260019350505050610a466001606555565b919050565b609860205260009081526040902080546001820154600283015460038401546004850154600586015460068701805496976001600160a01b039687169796909516959394929360ff8084169461010090940416929190610aaa90611606565b80601f0160208091040260200160405190810160405280929190818152602001828054610ad690611606565b8015610b235780601f10610af857610100808354040283529160200191610b23565b820191906000526020600020905b815481529060010190602001808311610b0657829003601f168201915b5050505050905088565b600054610100900460ff1615808015610b4d5750600054600160ff909116105b80610b675750303b158015610b67575060005460ff166001145b610bca5760405162461bcd60e51b815260206004820152602e60248201527f496e697469616c697a61626c653a20636f6e747261637420697320616c72656160448201526d191e481a5b9a5d1a585b1a5e995960921b606482015260840161020d565b6000805460ff191660011790558015610bed576000805461ff0019166101001790555b610bf561117c565b610bfd6111ab565b609780546001600160a01b0319166001600160a01b0384161790558015610c5e576000805461ff0019169055604051600181527f7f26b83ff96e1f2b6a682f133852f6798a09c465da95921460cefb38474024989060200160405180910390a15b5050565b6000610c6c611070565b85428111610cbc5760405162461bcd60e51b815260206004820152601e60248201527f456e642074696d65206d75737420626520696e20746865206675747572650000604482015260640161020d565b60008811610d0c5760405162461bcd60e51b815260206004820152601d60248201527f416d6f756e74206d7573742062652067726561746572207468616e2030000000604482015260640161020d565b60408051602081018c90526bffffffffffffffffffffffff1960608c811b8216938301939093523390921b909116605482015260688101899052608881018890524260a882015260029060c80160408051601f1981840301815290829052610d73916115d1565b602060405180830381855afa158015610d90573d6000803e3d6000fd5b5050506040513d601f19601f82011682018060405250810190610db391906115ed565b9150610dbe82610632565b15610e0b5760405162461bcd60e51b815260206004820152601c60248201527f4c6f636b20636f6e747261637420616c72656164792065786973747300000000604482015260640161020d565b6097546040516323b872dd60e01b8152336004820152306024820152604481018a90526001600160a01b03909116906323b872dd906064016020604051808303816000875af1158015610e62573d6000803e3d6000fd5b505050506040513d601f19601f82011682018060405250810190610e86919061174e565b610ea25760405162461bcd60e51b815260040161020d90611770565b6040805161010080820183528c82526001600160a01b038c8116602080850191825233858701908152606086018f8152608087018f8152600060a0890181815260c08a018281528b518088018d5283815260e08c019081528e845260989097529a9091208951815595516001870180546001600160a01b0319908116928a1692909217905593516002870180549095169716969096179092555160038401555160048301559151600582018054965161ffff1990971691151561ff0019169190911795151590930294909417909155519091906006820190610f84908261168f565b50905050336001600160a01b0316896001600160a01b0316837fc876b312236feffecf67473764b9debee3f59acd3b7e0d16bda4b5e198e842c38d8c8c8c8c8c8c604051610fd89796959493929190611893565b60405180910390a450610feb6001606555565b98975050505050505050565b610fff6110d0565b6001600160a01b0381166110645760405162461bcd60e51b815260206004820152602660248201527f4f776e61626c653a206e6577206f776e657220697320746865207a65726f206160448201526564647265737360d01b606482015260840161020d565b61106d8161112a565b50565b6002606554036110c25760405162461bcd60e51b815260206004820152601f60248201527f5265656e7472616e637947756172643a207265656e7472616e742063616c6c00604482015260640161020d565b6002606555565b6001606555565b6033546001600160a01b031633146107b55760405162461bcd60e51b815260206004820181905260248201527f4f776e61626c653a2063616c6c6572206973206e6f7420746865206f776e6572604482015260640161020d565b603380546001600160a01b038381166001600160a01b0319831681179093556040519116919082907f8be0079c531659141344cd1fd0a4f28419497f9722a3daafe3b4186f6b6457e090600090a35050565b600054610100900460ff166111a35760405162461bcd60e51b815260040161020d906118cc565b6107b56111da565b600054610100900460ff166111d25760405162461bcd60e51b815260040161020d906118cc565b6107b561120a565b600054610100900460ff166112015760405162461bcd60e51b815260040161020d906118cc565b6107b53361112a565b600054610100900460ff166110c95760405162461bcd60e51b815260040161020d906118cc565b634e487b7160e01b600052604160045260246000fd5b6000806040838503121561125a57600080fd5b82359150602083013567ffffffffffffffff81111561127857600080fd5b8301601f8101851361128957600080fd5b803567ffffffffffffffff8111156112a3576112a3611231565b604051601f8201601f19908116603f0116810167ffffffffffffffff811182821017156112d2576112d2611231565b6040528181528282016020018710156112ea57600080fd5b816020840160208301376000602083830101528093505050509250929050565b60006020828403121561131c57600080fd5b5035919050565b60005b8381101561133e578181015183820152602001611326565b50506000910152565b6000815180845261135f816020860160208601611323565b601f01601f19169290920160200192915050565b8881526001600160a01b03888116602083015287166040820152606081018690526080810185905283151560a082015282151560c082015261010060e082018190526000906113c490830184611347565b9a9950505050505050505050565b60008083601f8401126113e457600080fd5b50813567ffffffffffffffff8111156113fc57600080fd5b60208301915083602082850101111561141457600080fd5b9250929050565b6001600160a01b038116811461106d57600080fd5b60008060008060008060008060a0898b03121561144c57600080fd5b883567ffffffffffffffff81111561146357600080fd5b61146f8b828c016113d2565b909950975050602089013567ffffffffffffffff81111561148f57600080fd5b61149b8b828c016113d2565b90975095505060408901356114af8161141b565b935060608901359250608089013567ffffffffffffffff8111156114d257600080fd5b6114de8b828c016113d2565b999c989b5096995094979396929594505050565b60006020828403121561150457600080fd5b813561150f8161141b565b9392505050565b60008060008060008060008060c0898b03121561153257600080fd5b8835975060208901356115448161141b565b96506040890135955060608901359450608089013567ffffffffffffffff81111561156e57600080fd5b61157a8b828c016113d2565b90955093505060a089013567ffffffffffffffff8111156114d257600080fd5b6020808252601c908201527f4c6f636b20636f6e747261637420646f6573206e6f7420657869737400000000604082015260600190565b600082516115e3818460208701611323565b9190910192915050565b6000602082840312156115ff57600080fd5b5051919050565b600181811c9082168061161a57607f821691505b60208210810361163a57634e487b7160e01b600052602260045260246000fd5b50919050565b601f82111561168a57806000526020600020601f840160051c810160208510156116675750805b601f840160051c820191505b818110156116875760008155600101611673565b50505b505050565b815167ffffffffffffffff8111156116a9576116a9611231565b6116bd816116b78454611606565b84611640565b6020601f8211600181146116f157600083156116d95750848201515b600019600385901b1c1916600184901b178455611687565b600084815260208120601f198516915b828110156117215787850151825560209485019460019092019101611701565b508482101561173f5786840151600019600387901b60f8161c191681555b50505050600190811b01905550565b60006020828403121561176057600080fd5b8151801515811461150f57600080fd5b602080825260159082015274151bdad95b881d1c985b9cd9995c8819985a5b1959605a1b604082015260600190565b60208152600061150f6020830184611347565b878982376000888201600081528789823787810190506bffffffffffffffffffffffff198760601b1681528560148201528385603483013760009301603401928352509098975050505050505050565b81835281816020850137506000828201602090810191909152601f909101601f19169091010190565b89815260c06020820152600061184560c083018a8c611802565b828103604084015261185881898b611802565b6001600160a01b03881660608501526080840187905283810360a08501529050611883818587611802565b9c9b505050505050505050505050565b87815286602082015285604082015260a0606082015260006118b960a083018688611802565b82810360808401526113c4818587611802565b6020808252602b908201527f496e697469616c697a61626c653a20636f6e7472616374206973206e6f74206960408201526a6e697469616c697a696e6760a81b60608201526080019056fea26469706673582212206d6e7085cc5b7ce0bc714cd8f1ad330a2e0c5df747f176c15dd0c8f0642f3a8864736f6c634300081e0033",
  "devdoc": {
    "details": "This contract implements the HTLC functionality for cross-chain swaps between Etherlink and NEAR using the 1inch Fusion+ pattern.",
    "events": {
      "Initialized(uint8)": {
        "details": "Triggered when the contract has been initialized or reinitialized."
      }
    },
    "kind": "dev",
    "methods": {
      "completeSwap(string,string,address,uint256,string)": {
        "details": "Complete a cross-chain swap from another chain (to be called by relayer/oracle)",
        "params": {
          "amount": "Amount of tokens to transfer",
          "destinationAddress": "Address to receive tokens on Etherlink",
          "preimage": "Secret that was revealed on the source chain",
          "sourceAddress": "Source address on the other chain",
          "sourceChain": "Source blockchain name (e.g. \"NEAR\")"
        }
      },
      "getLockContract(bytes32)": {
        "details": "Get details of a lock contract",
        "params": {
          "lockContractId": "The ID of the lock contract to get"
        },
        "returns": {
          "amount": "The token amount",
          "endtime": "The expiry timestamp",
          "preimage": "The revealed preimage (if withdrawn)",
          "recipient": "The recipient address",
          "refunded": "Whether the tokens were refunded",
          "secretHash": "The hash of the secret",
          "sender": "The sender address",
          "withdrawn": "Whether the tokens were withdrawn"
        }
      },
      "hasLockContract(bytes32)": {
        "details": "Check if a lock contract exists",
        "params": {
          "lockContractId": "ID of the lock contract"
        },
        "returns": {
          "_0": "exists True if the contract exists"
        }
      },
      "initialize(address)": {
        "details": "Initialize the contract",
        "params": {
          "_unrealToken": "Address of the UnrealToken contract"
        }
      },
      "initiateSwap(bytes32,address,uint256,uint256,string,string)": {
        "details": "Initiates a cross-chain swap by locking tokens in the contract",
        "params": {
          "amount": "Amount of tokens to lock",
          "endtime": "Timestamp after which the sender can reclaim the tokens",
          "recipient": "Address that can withdraw the tokens with the secret",
          "secretHash": "Hash of the secret (sha256)",
          "targetAddress": "Target address on the other chain",
          "targetChain": "Target blockchain name (e.g. \"NEAR\")"
        },
        "returns": {
          "lockContractId": "ID of the created lock contract"
        }
      },
      "owner()": {
        "details": "Returns the address of the current owner."
      },
      "refund(bytes32)": {
        "details": "Refund tokens to the sender if the timelock has expired",
        "params": {
          "lockContractId": "ID of the lock contract"
        },
        "returns": {
          "success": "True if successful"
        }
      },
      "renounceOwnership()": {
        "details": "Leaves the contract without owner. It will not be possible to call `onlyOwner` functions. Can only be called by the current owner. NOTE: Renouncing ownership will leave the contract without an owner, thereby disabling any functionality that is only available to the owner."
      },
      "transferOwnership(address)": {
        "details": "Transfers ownership of the contract to a new account (`newOwner`). Can only be called by the current owner."
      },
      "withdraw(bytes32,string)": {
        "details": "Withdraw tokens by revealing the secret",
        "params": {
          "lockContractId": "ID of the lock contract",
          "preimage": "Secret that hashes to the secretHash"
        },
        "returns": {
          "success": "True if successful"
        }
      }
    },
    "title": "UnrealHTLC (Hash Time Lock Contract)",
    "version": 1
  },
  "userdoc": {
    "kind": "user",
    "methods": {},
    "version": 1
  },
  "storageLayout": {
    "storage": [
      {
        "astId": 530,
        "contract": "contracts/UnrealHTLC.sol:UnrealHTLC",
        "label": "_initialized",
        "offset": 0,
        "slot": "0",
        "type": "t_uint8"
      },
      {
        "astId": 533,
        "contract": "contracts/UnrealHTLC.sol:UnrealHTLC",
        "label": "_initializing",
        "offset": 1,
        "slot": "0",
        "type": "t_bool"
      },
      {
        "astId": 2956,
        "contract": "contracts/UnrealHTLC.sol:UnrealHTLC",
        "label": "__gap",
        "offset": 0,
        "slot": "1",
        "type": "t_array(t_uint256)50_storage"
      },
      {
        "astId": 11,
        "contract": "contracts/UnrealHTLC.sol:UnrealHTLC",
        "label": "_owner",
        "offset": 0,
        "slot": "51",
        "type": "t_address"
      },
      {
        "astId": 131,
        "contract": "contracts/UnrealHTLC.sol:UnrealHTLC",
        "label": "__gap",
        "offset": 0,
        "slot": "52",
        "type": "t_array(t_uint256)49_storage"
      },
      {
        "astId": 972,
        "contract": "contracts/UnrealHTLC.sol:UnrealHTLC",
        "label": "_status",
        "offset": 0,
        "slot": "101",
        "type": "t_uint256"
      },
      {
        "astId": 1041,
        "contract": "contracts/UnrealHTLC.sol:UnrealHTLC",
        "label": "__gap",
        "offset": 0,
        "slot": "102",
        "type": "t_array(t_uint256)49_storage"
      },
      {
        "astId": 9738,
        "contract": "contracts/UnrealHTLC.sol:UnrealHTLC",
        "label": "unrealToken",
        "offset": 0,
        "slot": "151",
        "type": "t_contract(UnrealToken)10717"
      },
      {
        "astId": 9743,
        "contract": "contracts/UnrealHTLC.sol:UnrealHTLC",
        "label": "lockContracts",
        "offset": 0,
        "slot": "152",
        "type": "t_mapping(t_bytes32,t_struct(LockContract)9735_storage)"
      }
    ],
    "types": {
      "t_address": {
        "encoding": "inplace",
        "label": "address",
        "numberOfBytes": "20"
      },
      "t_address_payable": {
        "encoding": "inplace",
        "label": "address payable",
        "numberOfBytes": "20"
      },
      "t_array(t_uint256)49_storage": {
        "base": "t_uint256",
        "encoding": "inplace",
        "label": "uint256[49]",
        "numberOfBytes": "1568"
      },
      "t_array(t_uint256)50_storage": {
        "base": "t_uint256",
        "encoding": "inplace",
        "label": "uint256[50]",
        "numberOfBytes": "1600"
      },
      "t_bool": {
        "encoding": "inplace",
        "label": "bool",
        "numberOfBytes": "1"
      },
      "t_bytes32": {
        "encoding": "inplace",
        "label": "bytes32",
        "numberOfBytes": "32"
      },
      "t_contract(UnrealToken)10717": {
        "encoding": "inplace",
        "label": "contract UnrealToken",
        "numberOfBytes": "20"
      },
      "t_mapping(t_bytes32,t_struct(LockContract)9735_storage)": {
        "encoding": "mapping",
        "key": "t_bytes32",
        "label": "mapping(bytes32 => struct UnrealHTLC.LockContract)",
        "numberOfBytes": "32",
        "value": "t_struct(LockContract)9735_storage"
      },
      "t_string_storage": {
        "encoding": "bytes",
        "label": "string",
        "numberOfBytes": "32"
      },
      "t_struct(LockContract)9735_storage": {
        "encoding": "inplace",
        "label": "struct UnrealHTLC.LockContract",
        "members": [
          {
            "astId": 9720,
            "contract": "contracts/UnrealHTLC.sol:UnrealHTLC",
            "label": "secretHash",
            "offset": 0,
            "slot": "0",
            "type": "t_bytes32"
          },
          {
            "astId": 9722,
            "contract": "contracts/UnrealHTLC.sol:UnrealHTLC",
            "label": "recipient",
            "offset": 0,
            "slot": "1",
            "type": "t_address_payable"
          },
          {
            "astId": 9724,
            "contract": "contracts/UnrealHTLC.sol:UnrealHTLC",
            "label": "sender",
            "offset": 0,
            "slot": "2",
            "type": "t_address_payable"
          },
          {
            "astId": 9726,
            "contract": "contracts/UnrealHTLC.sol:UnrealHTLC",
            "label": "amount",
            "offset": 0,
            "slot": "3",
            "type": "t_uint256"
          },
          {
            "astId": 9728,
            "contract": "contracts/UnrealHTLC.sol:UnrealHTLC",
            "label": "endtime",
            "offset": 0,
            "slot": "4",
            "type": "t_uint256"
          },
          {
            "astId": 9730,
            "contract": "contracts/UnrealHTLC.sol:UnrealHTLC",
            "label": "withdrawn",
            "offset": 0,
            "slot": "5",
            "type": "t_bool"
          },
          {
            "astId": 9732,
            "contract": "contracts/UnrealHTLC.sol:UnrealHTLC",
            "label": "refunded",
            "offset": 1,
            "slot": "5",
            "type": "t_bool"
          },
          {
            "astId": 9734,
            "contract": "contracts/UnrealHTLC.sol:UnrealHTLC",
            "label": "preimage",
            "offset": 0,
            "slot": "6",
            "type": "t_string_storage"
          }
        ],
        "numberOfBytes": "224"
      },
      "t_uint256": {
        "encoding": "inplace",
        "label": "uint256",
        "numberOfBytes": "32"
      },
      "t_uint8": {
        "encoding": "inplace",
        "label": "uint8",
        "numberOfBytes": "1"
      }
    }
  }
}